{
  "abi": [
    {
      "type": "function",
      "name": "acceptanceCommandTemplates",
      "inputs": [],
      "outputs": [
        {
          "name": "",
          "type": "string[][]",
          "internalType": "string[][]"
        }
      ],
      "stateMutability": "pure"
    },
    {
      "type": "function",
      "name": "accountHashes",
      "inputs": [
        {
          "name": "accountHash",
          "type": "bytes32",
          "internalType": "bytes32"
        }
      ],
      "outputs": [
        {
          "name": "account",
          "type": "address",
          "internalType": "address"
        }
      ],
      "stateMutability": "view"
    },
    {
      "type": "function",
      "name": "extractRecoveredAccountFromAcceptanceCommand",
      "inputs": [
        {
          "name": "commandParams",
          "type": "bytes[]",
          "internalType": "bytes[]"
        },
        {
          "name": "",
          "type": "uint256",
          "internalType": "uint256"
        }
      ],
      "outputs": [
        {
          "name": "",
          "type": "address",
          "internalType": "address"
        }
      ],
      "stateMutability": "view"
    },
    {
      "type": "function",
      "name": "extractRecoveredAccountFromRecoveryCommand",
      "inputs": [
        {
          "name": "commandParams",
          "type": "bytes[]",
          "internalType": "bytes[]"
        },
        {
          "name": "",
          "type": "uint256",
          "internalType": "uint256"
        }
      ],
      "outputs": [
        {
          "name": "",
          "type": "address",
          "internalType": "address"
        }
      ],
      "stateMutability": "view"
    },
    {
      "type": "function",
      "name": "parseRecoveryDataHash",
      "inputs": [
        {
          "name": "templateIdx",
          "type": "uint256",
          "internalType": "uint256"
        },
        {
          "name": "commandParams",
          "type": "bytes[]",
          "internalType": "bytes[]"
        }
      ],
      "outputs": [
        {
          "name": "",
          "type": "bytes32",
          "internalType": "bytes32"
        }
      ],
      "stateMutability": "pure"
    },
    {
      "type": "function",
      "name": "recoveryCommandTemplates",
      "inputs": [],
      "outputs": [
        {
          "name": "",
          "type": "string[][]",
          "internalType": "string[][]"
        }
      ],
      "stateMutability": "pure"
    },
    {
      "type": "function",
      "name": "storeAccountHash",
      "inputs": [
        {
          "name": "account",
          "type": "address",
          "internalType": "address"
        }
      ],
      "outputs": [],
      "stateMutability": "nonpayable"
    },
    {
      "type": "function",
      "name": "validateAcceptanceCommand",
      "inputs": [
        {
          "name": "templateIdx",
          "type": "uint256",
          "internalType": "uint256"
        },
        {
          "name": "commandParams",
          "type": "bytes[]",
          "internalType": "bytes[]"
        }
      ],
      "outputs": [
        {
          "name": "",
          "type": "address",
          "internalType": "address"
        }
      ],
      "stateMutability": "view"
    },
    {
      "type": "function",
      "name": "validateRecoveryCommand",
      "inputs": [
        {
          "name": "templateIdx",
          "type": "uint256",
          "internalType": "uint256"
        },
        {
          "name": "commandParams",
          "type": "bytes[]",
          "internalType": "bytes[]"
        }
      ],
      "outputs": [
        {
          "name": "",
          "type": "address",
          "internalType": "address"
        }
      ],
      "stateMutability": "view"
    },
    {
      "type": "error",
      "name": "ExistingStoredAccountHash",
      "inputs": [
        {
          "name": "account",
          "type": "address",
          "internalType": "address"
        }
      ]
    },
    {
      "type": "error",
      "name": "InvalidAccount",
      "inputs": []
    },
    {
      "type": "error",
      "name": "InvalidCommandParams",
      "inputs": [
        {
          "name": "paramsLength",
          "type": "uint256",
          "internalType": "uint256"
        },
        {
          "name": "expectedParamsLength",
          "type": "uint256",
          "internalType": "uint256"
        }
      ]
    },
    {
      "type": "error",
      "name": "InvalidTemplateIndex",
      "inputs": [
        {
          "name": "templateIdx",
          "type": "uint256",
          "internalType": "uint256"
        },
        {
          "name": "expectedTemplateIdx",
          "type": "uint256",
          "internalType": "uint256"
        }
      ]
    }
  ],
  "bytecode": {
    "object": "0x6080604052348015600f57600080fd5b50610e298061001f6000396000f3fe608060405234801561001057600080fd5b50600436106100935760003560e01c8063861f45b711610066578063861f45b7146100f8578063a5e3ee70146100dd578063ad775fdc1461010b578063d197216514610134578063da0667391461014957600080fd5b80630536542e14610098578063222f6cb5146100c85780632c4ce129146100dd5780633ef01b8f146100f0575b600080fd5b6100ab6100a6366004610ac8565b61016a565b6040516001600160a01b0390911681526020015b60405180910390f35b6100d06102b4565b6040516100bf9190610b5a565b6100ab6100eb366004610c06565b6104e8565b6100d06105b5565b6100ab610106366004610ac8565b61088b565b6100ab610119366004610c52565b6000602081905290815260409020546001600160a01b031681565b610147610142366004610c6b565b6108f7565b005b61015c610157366004610ac8565b6109a0565b6040519081526020016100bf565b6000831561019a57604051635be7785560e01b815260048101859052600060248201526044015b60405180910390fd5b600282146101c5576040516325922ecf60e21b81526004810183905260026024820152604401610191565b60006101d28484876104e8565b90506000848460018181106101e9576101e9610c9b565b90506020028101906101fb9190610cb1565b8101906102089190610d0e565b90506001600160a01b03821661023157604051630da30f6560e31b815260040160405180910390fd5b6040516399bbc83f60e01b815273__$ffd0c94c66d959deda02fa34153d397f8c$__906399bbc83f90610268908490600401610dc7565b602060405180830381865af4158015610285573d6000803e3d6000fd5b505050506040513d601f19601f820116820180604052508101906102a99190610dda565b509095945050505050565b60408051600180825281830190925260609160009190816020015b60608152602001906001900390816102cf57505060408051600580825260c08201909252919250602082015b60608152602001906001900390816102fb579050508160008151811061032357610323610c9b565b6020026020010181905250604051806040016040528060068152602001651058d8d95c1d60d21b8152508160008151811061036057610360610c9b565b602002602001015160008151811061037a5761037a610c9b565b60200260200101819052506040518060400160405280600881526020016733bab0b93234b0b760c11b815250816000815181106103b9576103b9610c9b565b60200260200101516001815181106103d3576103d3610c9b565b6020026020010181905250604051806040016040528060078152602001661c995c5d595cdd60ca1b8152508160008151811061041157610411610c9b565b602002602001015160028151811061042b5761042b610c9b565b6020026020010181905250604051806040016040528060038152602001623337b960e91b8152508160008151811061046557610465610c9b565b602002602001015160038151811061047f5761047f610c9b565b6020026020010181905250604051806040016040528060088152602001677b737472696e677d60c01b815250816000815181106104be576104be610c9b565b60200260200101516004815181106104d8576104d8610c9b565b6020908102919091010152919050565b60008073__$ffd0c94c66d959deda02fa34153d397f8c$__6399bbc83f8686600081811061051857610518610c9b565b905060200281019061052a9190610cb1565b8101906105379190610d0e565b6040518263ffffffff1660e01b81526004016105539190610dc7565b602060405180830381865af4158015610570573d6000803e3d6000fd5b505050506040513d601f19601f820116820180604052508101906105949190610dda565b6000908152602081905260409020546001600160a01b031695945050505050565b60408051600180825281830190925260609160009190816020015b60608152602001906001900390816105d05750506040805160078082526101008201909252919250602082015b60608152602001906001900390816105fd579050508160008151811061062557610625610c9b565b6020026020010181905250604051806040016040528060078152602001662932b1b7bb32b960c91b8152508160008151811061066357610663610c9b565b602002602001015160008151811061067d5761067d610c9b565b6020026020010181905250604051806040016040528060078152602001661858d8dbdd5b9d60ca1b815250816000815181106106bb576106bb610c9b565b60200260200101516001815181106106d5576106d5610c9b565b6020026020010181905250604051806040016040528060088152602001677b737472696e677d60c01b8152508160008151811061071457610714610c9b565b602002602001015160028151811061072e5761072e610c9b565b6020026020010181905250604051806040016040528060058152602001647573696e6760d81b8152508160008151811061076a5761076a610c9b565b602002602001015160038151811061078457610784610c9b565b6020026020010181905250604051806040016040528060088152602001677265636f7665727960c01b815250816000815181106107c3576107c3610c9b565b60200260200101516004815181106107dd576107dd610c9b565b6020026020010181905250604051806040016040528060048152602001630d0c2e6d60e31b8152508160008151811061081857610818610c9b565b602002602001015160058151811061083257610832610c9b565b6020026020010181905250604051806040016040528060088152602001677b737472696e677d60c01b8152508160008151811061087157610871610c9b565b60200260200101516006815181106104d8576104d8610c9b565b600083156108b657604051635be7785560e01b81526004810185905260006024820152604401610191565b600182146108e1576040516325922ecf60e21b81526004810183905260016024820152604401610191565b60006108ee8484876104e8565b95945050505050565b6040516bffffffffffffffffffffffff19606083901b16602082015260009060340160408051601f1981840301815291815281516020928301206000818152928390529120549091506001600160a01b0316156109725760405163d0c8a06b60e01b81526001600160a01b0383166004820152602401610191565b600090815260208190526040902080546001600160a01b0319166001600160a01b0392909216919091179055565b600083156109cb57604051635be7785560e01b81526004810185905260006024820152604401610191565b73__$ffd0c94c66d959deda02fa34153d397f8c$__6399bbc83f848460018181106109f8576109f8610c9b565b9050602002810190610a0a9190610cb1565b810190610a179190610d0e565b6040518263ffffffff1660e01b8152600401610a339190610dc7565b602060405180830381865af4158015610a50573d6000803e3d6000fd5b505050506040513d601f19601f82011682018060405250810190610a749190610dda565b949350505050565b60008083601f840112610a8e57600080fd5b50813567ffffffffffffffff811115610aa657600080fd5b6020830191508360208260051b8501011115610ac157600080fd5b9250929050565b600080600060408486031215610add57600080fd5b83359250602084013567ffffffffffffffff811115610afb57600080fd5b610b0786828701610a7c565b9497909650939450505050565b6000815180845260005b81811015610b3a57602081850181015186830182015201610b1e565b506000602082860101526020601f19601f83011685010191505092915050565b6000602082016020835280845180835260408501915060408160051b86010192506020860160005b82811015610bfa57868503603f19018452815180518087526020918201918088019190600582901b89010160005b82811015610be157601f198a8303018452610bcc828651610b14565b60209586019594909401939150600101610bb0565b5097505050602094850194929092019150600101610b82565b50929695505050505050565b600080600060408486031215610c1b57600080fd5b833567ffffffffffffffff811115610c3257600080fd5b610c3e86828701610a7c565b909790965060209590950135949350505050565b600060208284031215610c6457600080fd5b5035919050565b600060208284031215610c7d57600080fd5b81356001600160a01b0381168114610c9457600080fd5b9392505050565b634e487b7160e01b600052603260045260246000fd5b6000808335601e19843603018112610cc857600080fd5b83018035915067ffffffffffffffff821115610ce357600080fd5b602001915036819003821315610ac157600080fd5b634e487b7160e01b600052604160045260246000fd5b600060208284031215610d2057600080fd5b813567ffffffffffffffff811115610d3757600080fd5b8201601f81018413610d4857600080fd5b803567ffffffffffffffff811115610d6257610d62610cf8565b604051601f8201601f19908116603f0116810167ffffffffffffffff81118282101715610d9157610d91610cf8565b604052818152828201602001861015610da957600080fd5b81602084016020830137600091810160200191909152949350505050565b602081526000610c946020830184610b14565b600060208284031215610dec57600080fd5b505191905056fea264697066735822122054938601c072a8170fee522f51d8edee896b71cdecf5e2f0a7b04c294058ec6a64736f6c634300081b0033",
    "linkReferences": {
      "src/libraries/StringUtils.sol": {
        "StringUtils": [
          {
            "start": 607,
            "length": 20
          },
          {
            "start": 1292,
            "length": 20
          },
          {
            "start": 2540,
            "length": 20
          }
        ]
      }
    }
  },
  "methodIdentifiers": {
    "acceptanceCommandTemplates()": "222f6cb5",
    "accountHashes(bytes32)": "ad775fdc",
    "extractRecoveredAccountFromAcceptanceCommand(bytes[],uint256)": "2c4ce129",
    "extractRecoveredAccountFromRecoveryCommand(bytes[],uint256)": "a5e3ee70",
    "parseRecoveryDataHash(uint256,bytes[])": "da066739",
    "recoveryCommandTemplates()": "3ef01b8f",
    "storeAccountHash(address)": "d1972165",
    "validateAcceptanceCommand(uint256,bytes[])": "861f45b7",
    "validateRecoveryCommand(uint256,bytes[])": "0536542e"
  },
  "id": 83
}