{"abi":[{"type":"constructor","inputs":[{"name":"_verifier","type":"address","internalType":"address"},{"name":"_dkimRegistry","type":"address","internalType":"address"},{"name":"_emailAuthImpl","type":"address","internalType":"address"},{"name":"_subjectHandler","type":"address","internalType":"address"}],"stateMutability":"nonpayable"},{"type":"function","name":"MINIMUM_RECOVERY_WINDOW","inputs":[],"outputs":[{"name":"","type":"uint256","internalType":"uint256"}],"stateMutability":"view"},{"type":"function","name":"acceptanceSubjectTemplates","inputs":[],"outputs":[{"name":"","type":"string[][]","internalType":"string[][]"}],"stateMutability":"view"},{"type":"function","name":"addGuardian","inputs":[{"name":"guardian","type":"address","internalType":"address"},{"name":"weight","type":"uint256","internalType":"uint256"}],"outputs":[],"stateMutability":"nonpayable"},{"type":"function","name":"cancelRecovery","inputs":[],"outputs":[],"stateMutability":"nonpayable"},{"type":"function","name":"changeThreshold","inputs":[{"name":"threshold","type":"uint256","internalType":"uint256"}],"outputs":[],"stateMutability":"nonpayable"},{"type":"function","name":"completeRecovery","inputs":[{"name":"account","type":"address","internalType":"address"},{"name":"recoveryCalldata","type":"bytes","internalType":"bytes"}],"outputs":[],"stateMutability":"nonpayable"},{"type":"function","name":"computeAcceptanceTemplateId","inputs":[{"name":"templateIdx","type":"uint256","internalType":"uint256"}],"outputs":[{"name":"","type":"uint256","internalType":"uint256"}],"stateMutability":"pure"},{"type":"function","name":"computeEmailAuthAddress","inputs":[{"name":"recoveredAccount","type":"address","internalType":"address"},{"name":"accountSalt","type":"bytes32","internalType":"bytes32"}],"outputs":[{"name":"","type":"address","internalType":"address"}],"stateMutability":"view"},{"type":"function","name":"computeRecoveryTemplateId","inputs":[{"name":"templateIdx","type":"uint256","internalType":"uint256"}],"outputs":[{"name":"","type":"uint256","internalType":"uint256"}],"stateMutability":"pure"},{"type":"function","name":"configureRecovery","inputs":[{"name":"guardians","type":"address[]","internalType":"address[]"},{"name":"weights","type":"uint256[]","internalType":"uint256[]"},{"name":"threshold","type":"uint256","internalType":"uint256"},{"name":"delay","type":"uint256","internalType":"uint256"},{"name":"expiry","type":"uint256","internalType":"uint256"}],"outputs":[],"stateMutability":"nonpayable"},{"type":"function","name":"deInitRecoveryFromModule","inputs":[{"name":"account","type":"address","internalType":"address"}],"outputs":[],"stateMutability":"nonpayable"},{"type":"function","name":"dkim","inputs":[],"outputs":[{"name":"","type":"address","internalType":"address"}],"stateMutability":"view"},{"type":"function","name":"dkimAddr","inputs":[],"outputs":[{"name":"","type":"address","internalType":"address"}],"stateMutability":"view"},{"type":"function","name":"emailAuthImplementation","inputs":[],"outputs":[{"name":"","type":"address","internalType":"address"}],"stateMutability":"view"},{"type":"function","name":"emailAuthImplementationAddr","inputs":[],"outputs":[{"name":"","type":"address","internalType":"address"}],"stateMutability":"view"},{"type":"function","name":"emailRecoveryModule","inputs":[],"outputs":[{"name":"","type":"address","internalType":"address"}],"stateMutability":"view"},{"type":"function","name":"extractRecoveredAccountFromAcceptanceSubject","inputs":[{"name":"subjectParams","type":"bytes[]","internalType":"bytes[]"},{"name":"templateIdx","type":"uint256","internalType":"uint256"}],"outputs":[{"name":"","type":"address","internalType":"address"}],"stateMutability":"view"},{"type":"function","name":"extractRecoveredAccountFromRecoverySubject","inputs":[{"name":"subjectParams","type":"bytes[]","internalType":"bytes[]"},{"name":"templateIdx","type":"uint256","internalType":"uint256"}],"outputs":[{"name":"","type":"address","internalType":"address"}],"stateMutability":"view"},{"type":"function","name":"getGuardian","inputs":[{"name":"account","type":"address","internalType":"address"},{"name":"guardian","type":"address","internalType":"address"}],"outputs":[{"name":"","type":"tuple","internalType":"struct GuardianStorage","components":[{"name":"status","type":"uint8","internalType":"enum GuardianStatus"},{"name":"weight","type":"uint256","internalType":"uint256"}]}],"stateMutability":"view"},{"type":"function","name":"getGuardianConfig","inputs":[{"name":"account","type":"address","internalType":"address"}],"outputs":[{"name":"","type":"tuple","internalType":"struct IEmailRecoveryManager.GuardianConfig","components":[{"name":"guardianCount","type":"uint256","internalType":"uint256"},{"name":"totalWeight","type":"uint256","internalType":"uint256"},{"name":"threshold","type":"uint256","internalType":"uint256"},{"name":"initialized","type":"bool","internalType":"bool"}]}],"stateMutability":"view"},{"type":"function","name":"getRecoveryConfig","inputs":[{"name":"account","type":"address","internalType":"address"}],"outputs":[{"name":"","type":"tuple","internalType":"struct IEmailRecoveryManager.RecoveryConfig","components":[{"name":"delay","type":"uint256","internalType":"uint256"},{"name":"expiry","type":"uint256","internalType":"uint256"}]}],"stateMutability":"view"},{"type":"function","name":"getRecoveryRequest","inputs":[{"name":"account","type":"address","internalType":"address"}],"outputs":[{"name":"","type":"tuple","internalType":"struct IEmailRecoveryManager.RecoveryRequest","components":[{"name":"executeAfter","type":"uint256","internalType":"uint256"},{"name":"executeBefore","type":"uint256","internalType":"uint256"},{"name":"currentWeight","type":"uint256","internalType":"uint256"},{"name":"calldataHash","type":"bytes32","internalType":"bytes32"}]}],"stateMutability":"view"},{"type":"function","name":"handleAcceptance","inputs":[{"name":"emailAuthMsg","type":"tuple","internalType":"struct EmailAuthMsg","components":[{"name":"templateId","type":"uint256","internalType":"uint256"},{"name":"subjectParams","type":"bytes[]","internalType":"bytes[]"},{"name":"skipedSubjectPrefix","type":"uint256","internalType":"uint256"},{"name":"proof","type":"tuple","internalType":"struct EmailProof","components":[{"name":"domainName","type":"string","internalType":"string"},{"name":"publicKeyHash","type":"bytes32","internalType":"bytes32"},{"name":"timestamp","type":"uint256","internalType":"uint256"},{"name":"maskedSubject","type":"string","internalType":"string"},{"name":"emailNullifier","type":"bytes32","internalType":"bytes32"},{"name":"accountSalt","type":"bytes32","internalType":"bytes32"},{"name":"isCodeExist","type":"bool","internalType":"bool"},{"name":"proof","type":"bytes","internalType":"bytes"}]}]},{"name":"templateIdx","type":"uint256","internalType":"uint256"}],"outputs":[],"stateMutability":"nonpayable"},{"type":"function","name":"handleRecovery","inputs":[{"name":"emailAuthMsg","type":"tuple","internalType":"struct EmailAuthMsg","components":[{"name":"templateId","type":"uint256","internalType":"uint256"},{"name":"subjectParams","type":"bytes[]","internalType":"bytes[]"},{"name":"skipedSubjectPrefix","type":"uint256","internalType":"uint256"},{"name":"proof","type":"tuple","internalType":"struct EmailProof","components":[{"name":"domainName","type":"string","internalType":"string"},{"name":"publicKeyHash","type":"bytes32","internalType":"bytes32"},{"name":"timestamp","type":"uint256","internalType":"uint256"},{"name":"maskedSubject","type":"string","internalType":"string"},{"name":"emailNullifier","type":"bytes32","internalType":"bytes32"},{"name":"accountSalt","type":"bytes32","internalType":"bytes32"},{"name":"isCodeExist","type":"bool","internalType":"bool"},{"name":"proof","type":"bytes","internalType":"bytes"}]}]},{"name":"templateIdx","type":"uint256","internalType":"uint256"}],"outputs":[],"stateMutability":"nonpayable"},{"type":"function","name":"initialize","inputs":[{"name":"_emailRecoveryModule","type":"address","internalType":"address"}],"outputs":[],"stateMutability":"nonpayable"},{"type":"function","name":"recoverySubjectTemplates","inputs":[],"outputs":[{"name":"","type":"string[][]","internalType":"string[][]"}],"stateMutability":"view"},{"type":"function","name":"removeGuardian","inputs":[{"name":"guardian","type":"address","internalType":"address"}],"outputs":[],"stateMutability":"nonpayable"},{"type":"function","name":"subjectHandler","inputs":[],"outputs":[{"name":"","type":"address","internalType":"address"}],"stateMutability":"view"},{"type":"function","name":"updateRecoveryConfig","inputs":[{"name":"recoveryConfig","type":"tuple","internalType":"struct IEmailRecoveryManager.RecoveryConfig","components":[{"name":"delay","type":"uint256","internalType":"uint256"},{"name":"expiry","type":"uint256","internalType":"uint256"}]}],"outputs":[],"stateMutability":"nonpayable"},{"type":"function","name":"verifier","inputs":[],"outputs":[{"name":"","type":"address","internalType":"address"}],"stateMutability":"view"},{"type":"function","name":"verifierAddr","inputs":[],"outputs":[{"name":"","type":"address","internalType":"address"}],"stateMutability":"view"},{"type":"event","name":"AddedGuardian","inputs":[{"name":"account","type":"address","indexed":true,"internalType":"address"},{"name":"guardian","type":"address","indexed":true,"internalType":"address"}],"anonymous":false},{"type":"event","name":"ChangedThreshold","inputs":[{"name":"account","type":"address","indexed":true,"internalType":"address"},{"name":"threshold","type":"uint256","indexed":false,"internalType":"uint256"}],"anonymous":false},{"type":"event","name":"GuardianAccepted","inputs":[{"name":"account","type":"address","indexed":true,"internalType":"address"},{"name":"guardian","type":"address","indexed":true,"internalType":"address"}],"anonymous":false},{"type":"event","name":"Initialized","inputs":[{"name":"version","type":"uint64","indexed":false,"internalType":"uint64"}],"anonymous":false},{"type":"event","name":"RecoveryCancelled","inputs":[{"name":"account","type":"address","indexed":true,"internalType":"address"}],"anonymous":false},{"type":"event","name":"RecoveryCompleted","inputs":[{"name":"account","type":"address","indexed":true,"internalType":"address"}],"anonymous":false},{"type":"event","name":"RecoveryConfigUpdated","inputs":[{"name":"account","type":"address","indexed":true,"internalType":"address"},{"name":"delay","type":"uint256","indexed":false,"internalType":"uint256"},{"name":"expiry","type":"uint256","indexed":false,"internalType":"uint256"}],"anonymous":false},{"type":"event","name":"RecoveryConfigured","inputs":[{"name":"account","type":"address","indexed":true,"internalType":"address"},{"name":"guardianCount","type":"uint256","indexed":false,"internalType":"uint256"}],"anonymous":false},{"type":"event","name":"RecoveryDeInitialized","inputs":[{"name":"account","type":"address","indexed":true,"internalType":"address"}],"anonymous":false},{"type":"event","name":"RecoveryProcessed","inputs":[{"name":"account","type":"address","indexed":true,"internalType":"address"},{"name":"executeAfter","type":"uint256","indexed":false,"internalType":"uint256"},{"name":"executeBefore","type":"uint256","indexed":false,"internalType":"uint256"}],"anonymous":false},{"type":"event","name":"RemovedGuardian","inputs":[{"name":"account","type":"address","indexed":true,"internalType":"address"},{"name":"guardian","type":"address","indexed":true,"internalType":"address"}],"anonymous":false},{"type":"error","name":"AccountNotConfigured","inputs":[]},{"type":"error","name":"AddressAlreadyGuardian","inputs":[]},{"type":"error","name":"DelayMoreThanExpiry","inputs":[]},{"type":"error","name":"DelayNotPassed","inputs":[]},{"type":"error","name":"IncorrectNumberOfWeights","inputs":[]},{"type":"error","name":"InitializerNotDeployer","inputs":[]},{"type":"error","name":"InvalidAccountAddress","inputs":[]},{"type":"error","name":"InvalidCalldataHash","inputs":[]},{"type":"error","name":"InvalidGuardianAddress","inputs":[]},{"type":"error","name":"InvalidGuardianStatus","inputs":[{"name":"guardianStatus","type":"uint8","internalType":"enum GuardianStatus"},{"name":"expectedGuardianStatus","type":"uint8","internalType":"enum GuardianStatus"}]},{"type":"error","name":"InvalidGuardianWeight","inputs":[]},{"type":"error","name":"InvalidInitialization","inputs":[]},{"type":"error","name":"InvalidRecoveryModule","inputs":[]},{"type":"error","name":"InvalidSubjectHandler","inputs":[]},{"type":"error","name":"InvalidTemplateIndex","inputs":[]},{"type":"error","name":"MaxNumberOfGuardiansReached","inputs":[]},{"type":"error","name":"NoRecoveryConfigured","inputs":[]},{"type":"error","name":"NotEnoughApprovals","inputs":[]},{"type":"error","name":"NotInitializing","inputs":[]},{"type":"error","name":"NotRecoveryModule","inputs":[]},{"type":"error","name":"RecoveryInProcess","inputs":[]},{"type":"error","name":"RecoveryModuleNotAuthorized","inputs":[]},{"type":"error","name":"RecoveryRequestExpired","inputs":[]},{"type":"error","name":"RecoveryWindowTooShort","inputs":[]},{"type":"error","name":"SetupAlreadyCalled","inputs":[]},{"type":"error","name":"SetupNotCalled","inputs":[]},{"type":"error","name":"StatusCannotBeTheSame","inputs":[]},{"type":"error","name":"ThresholdCannotBeZero","inputs":[]},{"type":"error","name":"ThresholdCannotExceedTotalWeight","inputs":[]},{"type":"error","name":"TooManyValuesToRemove","inputs":[]},{"type":"error","name":"UnauthorizedAccountForGuardian","inputs":[]}],"bytecode":{"object":"0x60a060405234801561001057600080fd5b50604051613c1e380380613c1e83398101604081905261002f916100c6565b600080546001600160a01b038087166001600160a01b031992831617909255600180548684169083161790556002805485841692169190911790558116608081905261008e5760405163436dcac560e01b815260040160405180910390fd5b5050600480546001600160a01b031916331790555061011a9050565b80516001600160a01b03811681146100c157600080fd5b919050565b600080600080608085870312156100dc57600080fd5b6100e5856100aa565b93506100f3602086016100aa565b9250610101604086016100aa565b915061010f606086016100aa565b905092959194509250565b608051613abf61015f6000396000818161044901528181610ce101528181610fba015281816110c3015281816119a201528181611a1201526120e00152613abf6000f3fe608060405234801561001057600080fd5b50600436106101e55760003560e01c80635bafadda1161010f5780637dbcfcb9116100a2578063c18d09cf11610071578063c18d09cf146104d2578063c4d66de8146104e5578063da34a850146104f8578063e81dcaf21461051857600080fd5b80637dbcfcb91461049157806399150680146104a4578063b6201692146104ae578063b68126fa146104bf57600080fd5b80636da99515116100de5780636da9951514610431578063701e3eec14610444578063714041561461046b57806373357f851461047e57600080fd5b80635bafadda146103f057806360bb9d5c146103f8578063663ea2e21461040b578063694e80c31461041e57600080fd5b80632788bbda116101875780633a8eab14116101565780633a8eab14146103715780633e91cdcd14610384578063400ad5ce146103995780634f9a28b9146103aa57600080fd5b80632788bbda146102bc5780632b7ac3f31461032c57806330e6a5ab1461033d57806332ccc2f21461035057600080fd5b80630ead99f0116101c35780630ead99f0146102585780631098e02e14610283578063111e5313146102965780631788178f146102a957600080fd5b80630481af67146101ea5780630ba234d6146101ff5780630bb6094a14610207575b600080fd5b6101fd6101f8366004612c9c565b61052b565b005b6101fd610a92565b61021a610215366004612e0d565b610ae0565b60405161024f919081518152602080830151908201526040808301519082015260609182015115159181019190915260800190565b60405180910390f35b60035461026b906001600160a01b031681565b6040516001600160a01b03909116815260200161024f565b60025461026b906001600160a01b031681565b6101fd6102a4366004612e2a565b610b60565b6101fd6102b7366004612e56565b610ba4565b6103116102ca366004612e0d565b6040805180820190915260008082526020820152506001600160a01b0316600090815260056020908152604091829020825180840190935280548352600101549082015290565b6040805182518152602092830151928101929092520161024f565b6000546001600160a01b031661026b565b61026b61034b366004612ea4565b610cc7565b61036361035e366004612ee8565b610d62565b60405190815260200161024f565b61026b61037f366004612e2a565b610dba565b61038c610fb6565b60405161024f9190612fab565b6001546001600160a01b031661026b565b6103bd6103b8366004612e0d565b611043565b60405161024f91908151815260208083015190820152604080830151908201526060918201519181019190915260800190565b61038c6110bf565b6101fd61040636600461306e565b61111f565b60005461026b906001600160a01b031681565b6101fd61042c366004612ee8565b61129b565b61036361043f366004612ee8565b6112db565b61026b7f000000000000000000000000000000000000000000000000000000000000000081565b6101fd610479366004612e0d565b6112f1565b60015461026b906001600160a01b031681565b6101fd61049f366004612e0d565b611330565b6103636202a30081565b6002546001600160a01b031661026b565b6101fd6104cd366004612c9c565b61143e565b6101fd6104e036600461314a565b611600565b6101fd6104f3366004612e0d565b6117f7565b61050b610506366004613199565b611968565b60405161024f919061320a565b61026b610526366004612ea4565b611988565b600061053b836020015183611988565b90506001600160a01b0381166105935760405162461bcd60e51b81526020600482015260186024820152771a5b9d985b1a59081858d8dbdd5b9d081a5b88195b585a5b60421b60448201526064015b60405180910390fd5b60006105a782856060015160a00151610dba565b905060006105b484610d62565b855190915081146105fd5760405162461bcd60e51b81526020600482015260136024820152721a5b9d985b1a59081d195b5c1b185d19481a59606a1b604482015260640161058a565b606085015160c00151151560011461064e5760405162461bcd60e51b81526020600482015260146024820152736973436f646545786973742069732066616c736560601b604482015260640161058a565b6000826001600160a01b03163b60000361095a576000866060015160a0015161067f6002546001600160a01b031690565b606089015160a001516040516001600160a01b0389166024820152604481019190915230606482015260840160408051601f198184030181529181526020820180516001600160e01b03166369359f3760e11b179052516106df90612ab6565b6106ea92919061322b565b8190604051809103906000f590508015801561070a573d6000803e3d6000fd5b509050809150816001600160a01b031663557cf5ef6107316001546001600160a01b031690565b6040516001600160e01b031960e084901b1681526001600160a01b039091166004820152602401600060405180830381600087803b15801561077257600080fd5b505af1158015610786573d6000803e3d6000fd5b50505050816001600160a01b0316634141407c6107ab6000546001600160a01b031690565b6040516001600160e01b031960e084901b1681526001600160a01b039091166004820152602401600060405180830381600087803b1580156107ec57600080fd5b505af1158015610800573d6000803e3d6000fd5b5050505060005b61080f6110bf565b518110156108ab57826001600160a01b031663c4b84df461082f83610d62565b6108376110bf565b84815181106108485761084861324f565b60200260200101516040518363ffffffff1660e01b815260040161086d929190613265565b600060405180830381600087803b15801561088757600080fd5b505af115801561089b573d6000803e3d6000fd5b5050600190920191506108079050565b5060005b6108b7610fb6565b5181101561095357826001600160a01b031663c4b84df46108d7836112db565b6108df610fb6565b84815181106108f0576108f061324f565b60200260200101516040518363ffffffff1660e01b8152600401610915929190613265565b600060405180830381600087803b15801561092f57600080fd5b505af1158015610943573d6000803e3d6000fd5b5050600190920191506108af9050565b5050610a14565b829050306001600160a01b0316816001600160a01b031663f77c47916040518163ffffffff1660e01b8152600401602060405180830381865afa1580156109a5573d6000803e3d6000fd5b505050506040513d601f19601f820116820180604052508101906109c9919061327e565b6001600160a01b031614610a145760405162461bcd60e51b815260206004820152601260248201527134b73b30b634b21031b7b73a3937b63632b960711b604482015260640161058a565b60405163ad3f5f9b60e01b81526001600160a01b0382169063ad3f5f9b90610a4090899060040161329b565b600060405180830381600087803b158015610a5a57600080fd5b505af1158015610a6e573d6000803e3d6000fd5b50505050610a8a838688602001518960600151608001516119d9565b505050505050565b336000818152600660205260408082208281556001810183905560028101839055600301829055517f8154b6c5e1fc90d44b49808ef93f9739148d0821411890f8cd684385e24b9f1e9190a2565b610b0d60405180608001604052806000815260200160008152602001600081526020016000151581525090565b506001600160a01b031660009081526007602090815260409182902082516080810184528154815260018201549281019290925260028101549282019290925260039091015460ff161515606082015290565b3360009081526006602052604090206002015415610b9157604051633e43a9bf60e21b815260040160405180910390fd5b610ba060086007338585611bf1565b5050565b3360009081526006602052604090206002015415610bd557604051633e43a9bf60e21b815260040160405180910390fd5b3360008181526007602052604090206003015460ff16610c08576040516366ecbd6d60e01b815260040160405180910390fd5b602082015182511115610c2e57604051631956921d60e21b815260040160405180910390fd5b815160208301516202a30091610c4391613384565b1015610c62576040516304be81c560e21b815260040160405180910390fd5b6001600160a01b03811660008181526005602090815260409182902085518082558683015160019092018290558351908152918201527f1846bde2c0888937a0a3af4e9b851b2e78758487d44a7ec04ae4bb3dc356b495910160405180910390a25050565b6040516330e6a5ab60e01b81526000906001600160a01b037f000000000000000000000000000000000000000000000000000000000000000016906330e6a5ab90610d189086908690600401613397565b602060405180830381865afa158015610d35573d6000803e3d6000fd5b505050506040513d601f19601f82011682018060405250810190610d59919061327e565b90505b92915050565b60408051600160208201526060918101829052600a608082015269414343455054414e434560b01b60a082015290810182905260009060c0015b60408051601f19818403018152919052805160209091012092915050565b6000466101441480610dcd57504661012c145b15610ee957610ee230837f01000083f30da117496892e53895c30802e6708d8cdbad6233c6d4ec63a96ebf610e0a6002546001600160a01b031690565b6040516001600160a01b03891660248201526044810188905230606482015260840160408051601f19818403018152918152602080830180516001600160e01b03166369359f3760e11b1790529051610e659392910161322b565b60408051601f1981840301815282825280516020918201207f2020dba91b30cc0006188af794c2fb30dd8520db7e2c088b7fc7c103c00ca494848301526001600160a01b0396909616838301526060830194909452608082019290925260a0808201949094528151808203909401845260c0019052815191012090565b9050610d5c565b610ee28260405180602001610efd90612ab6565b601f1982820381018352601f90910116604052610f226002546001600160a01b031690565b6040516001600160a01b03881660248201526044810187905230606482015260840160408051601f19818403018152918152602080830180516001600160e01b03166369359f3760e11b1790529051610f7d9392910161322b565b60408051601f1981840301815290829052610f9b92916020016133b9565b60405160208183030381529060405280519060200120611dce565b60607f00000000000000000000000000000000000000000000000000000000000000006001600160a01b0316633e91cdcd6040518163ffffffff1660e01b8152600401600060405180830381865afa158015611016573d6000803e3d6000fd5b505050506040513d6000823e601f3d908101601f1916820160405261103e91908101906133e8565b905090565b6110716040518060800160405280600081526020016000815260200160008152602001600080191681525090565b506001600160a01b0316600090815260066020908152604091829020825160808101845281548152600182015492810192909252600281015492820192909252600390910154606082015290565b60607f00000000000000000000000000000000000000000000000000000000000000006001600160a01b0316635bafadda6040518163ffffffff1660e01b8152600401600060405180830381865afa158015611016573d6000803e3d6000fd5b33600081815260076020526040902060020154156111505760405163b3af559360e01b815260040160405180910390fd5b600354604051637c39022f60e01b81526001600160a01b03838116600483015290911690637c39022f906024016020604051808303816000875af115801561119c573d6000803e3d6000fd5b505050506040513d601f19601f820116820180604052508101906111c0919061355c565b6111dd5760405163bfa7d2a960e01b815260040160405180910390fd5b85511580156111eb57508451155b80156111f5575083155b15611225576001600160a01b0381166000908152600760205260409020600301805460ff19166001179055611231565b61123181878787611ddb565b604080518082019091528381526020810183905261124e81610ba4565b816001600160a01b03167f82c25158c375970c4dff23edef514552a0af29e2600003f1053907583403a41a885160405161128a91815260200190565b60405180910390a250505050505050565b33600090815260066020526040902060020154156112cc57604051633e43a9bf60e21b815260040160405180910390fd5b6112d860073383611df1565b50565b6000600182604051602001610d9c929190613579565b336000908152600660205260409020600201541561132257604051633e43a9bf60e21b815260040160405180910390fd5b6112d8600860073384611edf565b6003546001600160a01b0316331461135b576040516317b779eb60e11b815260040160405180910390fd5b6001600160a01b0381166000908152600660205260409020600201541561139557604051633e43a9bf60e21b815260040160405180910390fd5b6001600160a01b038116600090815260056020908152604080832083815560019081018490556006909252822082815590810182905560028101829055600301556113e1600882612079565b6001600160a01b0381166000818152600760205260408082208281556001810183905560028101839055600301805460ff19169055517fe07cb859e0fb96f60563e9ac3596b37d0c617a96f9f6db589548caaa99fa9b669190a250565b600061144e836020015183610cc7565b90506001600160a01b0381166114a15760405162461bcd60e51b81526020600482015260186024820152771a5b9d985b1a59081858d8dbdd5b9d081a5b88195b585a5b60421b604482015260640161058a565b60006114b582856060015160a00151610dba565b90506000816001600160a01b03163b116115115760405162461bcd60e51b815260206004820152601860248201527f677561726469616e206973206e6f74206465706c6f7965640000000000000000604482015260640161058a565b6000600184604051602001611527929190613579565b60408051601f198184030181529190528051602090910120855190915081146115885760405162461bcd60e51b81526020600482015260136024820152721a5b9d985b1a59081d195b5c1b185d19481a59606a1b604482015260640161058a565b60405163ad3f5f9b60e01b815282906001600160a01b0382169063ad3f5f9b906115b690899060040161329b565b600060405180830381600087803b1580156115d057600080fd5b505af11580156115e4573d6000803e3d6000fd5b50505050610a8a838688602001518960600151608001516120bc565b6001600160a01b0382166116275760405163200db56f60e11b815260040160405180910390fd5b6001600160a01b03821660008181526006602090815260408083208151608081018352815481526001820154818501526002808301548285015260039092015460608201529484526007909252822001549081900361169957604051635337335b60e11b815260040160405180910390fd5b80826040015110156116be5760405163125e6df560e11b815260040160405180910390fd5b81514210156116e0576040516364037fb760e11b815260040160405180910390fd5b8160200151421061170457604051634c2babb160e01b815260040160405180910390fd5b825160208401206060830151811461172f5760405163782b04ef60e11b815260040160405180910390fd5b6001600160a01b03808616600090815260066020526040808220828155600181018390556002810183905560039081019290925590549051631bcfa73360e11b815291169063379f4e669061178a908890889060040161322b565b600060405180830381600087803b1580156117a457600080fd5b505af11580156117b8573d6000803e3d6000fd5b50506040516001600160a01b03881692507f46f5008939fa0b4beb46ae7f0e8368318bb72b56608910ca71c23e83382f609f9150600090a25050505050565b7ff0c57e16840df040f15088dc2f81fe391c3923bec73e23a9662efc9c229c6a008054600160401b810460ff1615906001600160401b031660008115801561183c5750825b90506000826001600160401b031660011480156118585750303b155b905081158015611866575080155b156118845760405163f92ee8a960e01b815260040160405180910390fd5b845467ffffffffffffffff1916600117855583156118ae57845460ff60401b1916600160401b1785555b6004546001600160a01b031633146118d957604051630ec507f160e21b815260040160405180910390fd5b6001600160a01b03861661190057604051637f26311160e01b815260040160405180910390fd5b600380546001600160a01b0319166001600160a01b0388161790558315610a8a57845460ff60401b19168555604051600181527fc7f505b2f371ae2175ee4913f4499e1f2633a7b5936321eed1cdaeb6115181d29060200160405180910390a1505050505050565b6040805180820190915260008082526020820152610d596008848461236a565b60405163740ee57960e11b81526000906001600160a01b037f0000000000000000000000000000000000000000000000000000000000000000169063e81dcaf290610d189086908690600401613397565b82156119f857604051635abe71c960e01b815260040160405180910390fd5b60405163db914c8560e01b81526000906001600160a01b037f0000000000000000000000000000000000000000000000000000000000000000169063db914c8590611a499087908790600401613265565b602060405180830381865afa158015611a66573d6000803e3d6000fd5b505050506040513d601f19601f82011682018060405250810190611a8a919061327e565b6001600160a01b03811660009081526006602052604090206002015490915015611ac757604051633e43a9bf60e21b815260040160405180910390fd5b600354604051637c39022f60e01b81526001600160a01b03838116600483015290911690637c39022f906024016020604051808303816000875af1158015611b13573d6000803e3d6000fd5b505050506040513d601f19601f82011682018060405250810190611b37919061355c565b611b545760405163bfa7d2a960e01b815260040160405180910390fd5b6000611b608287611968565b9050600181516002811115611b7757611b776131d2565b14611b9b578051604051632b44da8d60e11b815261058a91906001906004016135ac565b611ba96008838860026123aa565b856001600160a01b0316826001600160a01b03167f442abc7a4ecd5a019ce3f9fa872ad2d87c094248c412954aaf8ccf7a538e938c60405160405180910390a3505050505050565b6001600160a01b03831660009081526020859052604090206003015460ff16611c2d5760405163ae69115b60e01b815260040160405180910390fd5b6001600160a01b0382161580611c545750826001600160a01b0316826001600160a01b0316145b15611c72576040516306c2041560e21b815260040160405180910390fd5b6001600160a01b0383166000908152602086905260408120611c949084612460565b9050600081516002811115611cab57611cab6131d2565b14611cc957604051637270b0a760e11b815260040160405180910390fd5b81600003611ce95760405162a47bc760e51b815260040160405180910390fd5b611d3383604051806040016040528060016002811115611d0b57611d0b6131d2565b815260209081018690526001600160a01b0388166000908152908a90526040902091906124d9565b506001600160a01b0384166000908152602086905260408120805491611d58836135c7565b90915550506001600160a01b03841660009081526020869052604081206001018054849290611d889084906135e0565b90915550506040516001600160a01b0380851691908616907fbfa6a31eca367cc9e6b3a8fcdbb3531a35038eeae19539b6d037eecad22fb75d90600090a3505050505050565b6000610d5983833061256a565b611deb6007600886868686612594565b50505050565b6001600160a01b03821660009081526020849052604090206003015460ff16611e2d5760405163ae69115b60e01b815260040160405180910390fd5b6001600160a01b038216600090815260208490526040902060010154811115611e69576040516338be24c560e11b815260040160405180910390fd5b80600003611e8a57604051637a0920b360e11b815260040160405180910390fd5b6001600160a01b0382166000818152602085815260409182902060020184905590518381527fde3e32a86d32ca955594af26f515d3dc60003ab279776b14b4012fe99d96f8f6910160405180910390a2505050565b6001600160a01b03821660008181526020858152604080832081516080810183528154815260018201548185015260028201548184015260039091015460ff1615156060820152938352908790528120611f399084612460565b905060008082516002811115611f5157611f516131d2565b1415905080611f735760405163e4c3248f60e01b815260040160405180910390fd5b826040015182602001518460200151611f8c9190613384565b1015611fab576040516338be24c560e11b815260040160405180910390fd5b6001600160a01b0385166000908152602088905260409020611fcd90856127e2565b506001600160a01b0385166000908152602087905260408120805491611ff2836135f3565b91905055508160200151866000876001600160a01b03166001600160a01b0316815260200190815260200160002060010160008282546120329190613384565b90915550506040516001600160a01b0380861691908716907f981a91b410043292df0c420e4331b3741aa112608bbd4f7e704295e600684cea90600090a350505050505050565b6001600160a01b0381166000908152602083905260409020610ba09061209e90612814565b6001600160a01b03831660009081526020859052604090209061281f565b82156120db57604051635abe71c960e01b815260040160405180910390fd5b6000807f00000000000000000000000000000000000000000000000000000000000000006001600160a01b0316636e7b32cd8686306040518463ffffffff1660e01b815260040161212e9392919061360a565b6040805180830381865afa15801561214a573d6000803e3d6000fd5b505050506040513d601f19601f8201168201806040525081019061216e919061363b565b600354604051637c39022f60e01b81526001600160a01b0380851660048301529395509193509190911690637c39022f906024016020604051808303816000875af11580156121c1573d6000803e3d6000fd5b505050506040513d601f19601f820116820180604052508101906121e5919061355c565b6122025760405163bfa7d2a960e01b815260040160405180910390fd5b600061220e8388611968565b9050600281516002811115612225576122256131d2565b14612249578051604051632b44da8d60e11b815261058a91906002906004016135ac565b600060066000856001600160a01b03166001600160a01b031681526020019081526020016000209050816020015181600201600082825461228a91906135e0565b90915550506001600160a01b038416600090815260076020526040902060029081015490820154811161235f576001600160a01b0385166000908152600560205260408120546122da90426135e0565b6001600160a01b0387166000908152600560205260408120600101549192509061230490426135e0565b828555600185018190556003850187905560408051848152602081018390529192506001600160a01b038916917fdd23b733c956af035d7a9c923638da863325c9cfcbb53ed39e174aeb4dd26a85910160405180910390a250505b505050505050505050565b60408051808201909152600080825260208201526001600160a01b03831660009081526020859052604090206123a09083612460565b90505b9392505050565b6001600160a01b03831660009081526020859052604081206123cc9084612460565b805190915060028111156123e2576123e26131d2565b8260028111156123f4576123f46131d2565b036124125760405163115e823f60e01b815260040160405180910390fd5b610a8a836040518060400160405280856002811115612433576124336131d2565b8152602085810151918101919091526001600160a01b0388166000908152908990526040902091906124d9565b60408051808201909152600080825260208201526001600160a01b03821660009081526002808501602052604091829020825180840190935280549091839160ff16908111156124b2576124b26131d2565b60028111156124c3576124c36131d2565b8152602001600182015481525050905092915050565b6000806124e5856128d7565b9050602081106125085760405163bb6c1e9360e01b815260040160405180910390fd5b6001600160a01b038416600090815260028087016020526040909120845181548693839160ff1916906001908490811115612545576125456131d2565b02179055506020919091015160019091015561256185856128e1565b95945050505050565b6000604051836040820152846020820152828152600b8101905060ff815360559020949350505050565b8251825181146125b75760405163f4a950ef60e01b815260040160405180910390fd5b811580156125c55750600081115b156125e357604051637a0920b360e11b815260040160405180910390fd5b6000805b828110156127585760008682815181106126035761260361324f565b6020026020010151905060008683815181106126215761262161324f565b6020026020010151905060006001600160a01b0316826001600160a01b0316148061265d5750886001600160a01b0316826001600160a01b0316145b1561267b576040516306c2041560e21b815260040160405180910390fd5b8060000361269b5760405162a47bc760e51b815260040160405180910390fd5b6001600160a01b038916600090815260208b9052604081206126bd9084612460565b90506000815160028111156126d4576126d46131d2565b146126f257604051637270b0a760e11b815260040160405180910390fd5b61273c83604051806040016040528060016002811115612714576127146131d2565b815260209081018690526001600160a01b038e166000908152908f90526040902091906124d9565b5061274782866135e0565b945050600190920191506125e79050565b508083111561277a576040516338be24c560e11b815260040160405180910390fd5b6040805160808101825292835260208084019283528382019485526001606085018181526001600160a01b039990991660009081529a90915298209151825551968101969096555160028601555050516003909201805460ff19169215159290921790915550565b6001600160a01b03811660009081526002830160205260408120805460ff19168155600101819055610d5983836128f6565b6060610d5c8261290b565b6020815111156128425760405163e023c21160e01b815260040160405180910390fd5b60005b81518110156128d2578260020160008383815181106128665761286661324f565b6020908102919091018101516001600160a01b031682528101919091526040016000908120805460ff191681556001015581516128c9908390839081106128af576128af61324f565b6020026020010151846000016128f690919063ffffffff16565b50600101612845565b505050565b6000610d5c825490565b6000610d59836001600160a01b038416612918565b6000610d59836001600160a01b038416612967565b606060006123a383612a5a565b600081815260018301602052604081205461295f57508154600181810184556000848152602080822090930184905584548482528286019093526040902091909155610d5c565b506000610d5c565b60008181526001830160205260408120548015612a5057600061298b600183613384565b855490915060009061299f90600190613384565b9050808214612a045760008660000182815481106129bf576129bf61324f565b90600052602060002001549050808760000184815481106129e2576129e261324f565b6000918252602080832090910192909255918252600188019052604090208390555b8554869080612a1557612a15613669565b600190038181906000526020600020016000905590558560010160008681526020019081526020016000206000905560019350505050610d5c565b6000915050610d5c565b606081600001805480602002602001604051908101604052809291908181526020018280548015612aaa57602002820191906000526020600020905b815481526020019060010190808311612a96575b50505050509050919050565b61040a8061368083390190565b634e487b7160e01b600052604160045260246000fd5b604051608081016001600160401b0381118282101715612afb57612afb612ac3565b60405290565b60405161010081016001600160401b0381118282101715612afb57612afb612ac3565b604051601f8201601f191681016001600160401b0381118282101715612b4c57612b4c612ac3565b604052919050565b60006001600160401b03821115612b6d57612b6d612ac3565b5060051b60200190565b60006001600160401b03821115612b9057612b90612ac3565b50601f01601f191660200190565b600082601f830112612baf57600080fd5b8135612bc2612bbd82612b77565b612b24565b818152846020838601011115612bd757600080fd5b816020850160208301376000918101602001919091529392505050565b600082601f830112612c0557600080fd5b81356020612c15612bbd83612b54565b82815260059290921b84018101918181019086841115612c3457600080fd5b8286015b84811015612c735780356001600160401b03811115612c575760008081fd5b612c658986838b0101612b9e565b845250918301918301612c38565b509695505050505050565b80151581146112d857600080fd5b8035612c9781612c7e565b919050565b60008060408385031215612caf57600080fd5b82356001600160401b0380821115612cc657600080fd5b9084019060808287031215612cda57600080fd5b612ce2612ad9565b82358152602083013582811115612cf857600080fd5b612d0488828601612bf4565b60208301525060408301356040820152606083013582811115612d2657600080fd5b92909201916101008388031215612d3c57600080fd5b612d44612b01565b833583811115612d5357600080fd5b612d5f89828701612b9e565b8252506020840135602082015260408401356040820152606084013583811115612d8857600080fd5b612d9489828701612b9e565b6060830152506080840135608082015260a084013560a0820152612dba60c08501612c8c565b60c082015260e084013583811115612dd157600080fd5b612ddd89828701612b9e565b60e08301525060608201529660209590950135955050505050565b6001600160a01b03811681146112d857600080fd5b600060208284031215612e1f57600080fd5b81356123a381612df8565b60008060408385031215612e3d57600080fd5b8235612e4881612df8565b946020939093013593505050565b600060408284031215612e6857600080fd5b604051604081018181106001600160401b0382111715612e8a57612e8a612ac3565b604052823581526020928301359281019290925250919050565b60008060408385031215612eb757600080fd5b82356001600160401b03811115612ecd57600080fd5b612ed985828601612bf4565b95602094909401359450505050565b600060208284031215612efa57600080fd5b5035919050565b60005b83811015612f1c578181015183820152602001612f04565b50506000910152565b60008151808452612f3d816020860160208601612f01565b601f01601f19169290920160200192915050565b60008282518085526020808601955060208260051b8401016020860160005b84811015612f9e57601f19868403018952612f8c838351612f25565b98840198925090830190600101612f70565b5090979650505050505050565b600060208083016020845280855180835260408601915060408160051b87010192506020870160005b8281101561300257603f19888603018452612ff0858351612f51565b94509285019290850190600101612fd4565b5092979650505050505050565b600082601f83011261302057600080fd5b81356020613030612bbd83612b54565b8083825260208201915060208460051b87010193508684111561305257600080fd5b602086015b84811015612c735780358352918301918301613057565b600080600080600060a0868803121561308657600080fd5b85356001600160401b038082111561309d57600080fd5b818801915088601f8301126130b157600080fd5b813560206130c1612bbd83612b54565b82815260059290921b8401810191818101908c8411156130e057600080fd5b948201945b838610156131075785356130f881612df8565b825294820194908201906130e5565b9950508901359250508082111561311d57600080fd5b5061312a8882890161300f565b959895975050505060408401359360608101359360809091013592509050565b6000806040838503121561315d57600080fd5b823561316881612df8565b915060208301356001600160401b0381111561318357600080fd5b61318f85828601612b9e565b9150509250929050565b600080604083850312156131ac57600080fd5b82356131b781612df8565b915060208301356131c781612df8565b809150509250929050565b634e487b7160e01b600052602160045260246000fd5b6003811061320657634e487b7160e01b600052602160045260246000fd5b9052565b600060408201905061321d8284516131e8565b602092830151919092015290565b6001600160a01b03831681526040602082018190526000906123a090830184612f25565b634e487b7160e01b600052603260045260246000fd5b8281526040602082015260006123a06040830184612f51565b60006020828403121561329057600080fd5b81516123a381612df8565b602081528151602082015260006020830151608060408401526132c160a0840182612f51565b9050604084015160608401526060840151601f1984830301608085015261010081518184526132f282850182612f25565b9150506020820151602084015260408201516040840152606082015183820360608501526133208282612f25565b9150506080820151608084015260a082015160a084015260c082015161334a60c085018215159052565b5060e0820151915082810360e08401526133648183612f25565b9695505050505050565b634e487b7160e01b600052601160045260246000fd5b81810381811115610d5c57610d5c61336e565b6040815260006133aa6040830185612f51565b90508260208301529392505050565b600083516133cb818460208801612f01565b8351908301906133df818360208801612f01565b01949350505050565b6000602082840312156133fa57600080fd5b81516001600160401b0381111561341057600080fd5b83601f828501011261342157600080fd5b80830151613431612bbd82612b54565b8082825260208201915060208360051b858801010192508683111561345557600080fd5b6020848701015b83811015612c735780516001600160401b0381111561347a57600080fd5b87860101603f8101891361348d57600080fd5b602081015161349e612bbd82612b54565b808282526020820191508b60408460051b86010111156134bd57600080fd5b604084015b60408460051b8601018110156135465780516001600160401b038111156134e857600080fd5b8d605f82880101126134f957600080fd5b6040818701015161350c612bbd82612b77565b8181528f606083858b010101111561352357600080fd5b61353682602083016060868c0101612f01565b85525050602092830192016134c2565b508652505060209384019391909101905061345c565b60006020828403121561356e57600080fd5b81516123a381612c7e565b60ff929092168252606060208301819052600890830152675245434f5645525960c01b6080830152604082015260a00190565b604081016135ba82856131e8565b6123a360208301846131e8565b6000600182016135d9576135d961336e565b5060010190565b80820180821115610d5c57610d5c61336e565b6000816136025761360261336e565b506000190190565b8381526060602082015260006136236060830185612f51565b905060018060a01b0383166040830152949350505050565b6000806040838503121561364e57600080fd5b825161365981612df8565b6020939093015192949293505050565b634e487b7160e01b600052603160045260246000fdfe608060405260405161040a38038061040a83398101604081905261002291610268565b61002c8282610033565b5050610352565b61003c82610092565b6040516001600160a01b038316907fbc7cd75a20ee27fd9adebab32041f755214dbc6bffa90cc0225b39da2e5c2d3b90600090a280511561008657610081828261010e565b505050565b61008e610185565b5050565b806001600160a01b03163b6000036100cd57604051634c9c8ce360e01b81526001600160a01b03821660048201526024015b60405180910390fd5b7f360894a13ba1a3210667c828492db98dca3e2076cc3735a920a3ca505d382bbc80546001600160a01b0319166001600160a01b0392909216919091179055565b6060600080846001600160a01b03168460405161012b9190610336565b600060405180830381855af49150503d8060008114610166576040519150601f19603f3d011682016040523d82523d6000602084013e61016b565b606091505b50909250905061017c8583836101a6565b95945050505050565b34156101a45760405163b398979f60e01b815260040160405180910390fd5b565b6060826101bb576101b682610205565b6101fe565b81511580156101d257506001600160a01b0384163b155b156101fb57604051639996b31560e01b81526001600160a01b03851660048201526024016100c4565b50805b9392505050565b8051156102155780518082602001fd5b604051630a12f52160e11b815260040160405180910390fd5b634e487b7160e01b600052604160045260246000fd5b60005b8381101561025f578181015183820152602001610247565b50506000910152565b6000806040838503121561027b57600080fd5b82516001600160a01b038116811461029257600080fd5b60208401519092506001600160401b03808211156102af57600080fd5b818501915085601f8301126102c357600080fd5b8151818111156102d5576102d561022e565b604051601f8201601f19908116603f011681019083821181831017156102fd576102fd61022e565b8160405282815288602084870101111561031657600080fd5b610327836020830160208801610244565b80955050505050509250929050565b60008251610348818460208701610244565b9190910192915050565b60aa806103606000396000f3fe6080604052600a600c565b005b60186014601a565b6051565b565b6000604c7f360894a13ba1a3210667c828492db98dca3e2076cc3735a920a3ca505d382bbc546001600160a01b031690565b905090565b3660008037600080366000845af43d6000803e808015606f573d6000f35b3d6000fdfea264697066735822122001ec8d1d2f49995025ea139c79d73497a9e29293563b0f59f3688ace4681d24564736f6c63430008190033a264697066735822122016e7b886da56f3dee2b4c9d3342ed3090539d56341a9af7a5e0ae7e1b307bb5164736f6c63430008190033","linkReferences":{}},"methodIdentifiers":{"MINIMUM_RECOVERY_WINDOW()":"99150680","acceptanceSubjectTemplates()":"5bafadda","addGuardian(address,uint256)":"111e5313","cancelRecovery()":"0ba234d6","changeThreshold(uint256)":"694e80c3","completeRecovery(address,bytes)":"c18d09cf","computeAcceptanceTemplateId(uint256)":"32ccc2f2","computeEmailAuthAddress(address,bytes32)":"3a8eab14","computeRecoveryTemplateId(uint256)":"6da99515","configureRecovery(address[],uint256[],uint256,uint256,uint256)":"60bb9d5c","deInitRecoveryFromModule(address)":"7dbcfcb9","dkim()":"400ad5ce","dkimAddr()":"73357f85","emailAuthImplementation()":"b6201692","emailAuthImplementationAddr()":"1098e02e","emailRecoveryModule()":"0ead99f0","extractRecoveredAccountFromAcceptanceSubject(bytes[],uint256)":"e81dcaf2","extractRecoveredAccountFromRecoverySubject(bytes[],uint256)":"30e6a5ab","getGuardian(address,address)":"da34a850","getGuardianConfig(address)":"0bb6094a","getRecoveryConfig(address)":"2788bbda","getRecoveryRequest(address)":"4f9a28b9","handleAcceptance((uint256,bytes[],uint256,(string,bytes32,uint256,string,bytes32,bytes32,bool,bytes)),uint256)":"0481af67","handleRecovery((uint256,bytes[],uint256,(string,bytes32,uint256,string,bytes32,bytes32,bool,bytes)),uint256)":"b68126fa","initialize(address)":"c4d66de8","recoverySubjectTemplates()":"3e91cdcd","removeGuardian(address)":"71404156","subjectHandler()":"701e3eec","updateRecoveryConfig((uint256,uint256))":"1788178f","verifier()":"2b7ac3f3","verifierAddr()":"663ea2e2"},"id":165}