{"abi":[{"type":"function","name":"changeOwner","inputs":[{"name":"newOwner","type":"address","internalType":"address"}],"outputs":[],"stateMutability":"nonpayable"},{"type":"function","name":"isInitialized","inputs":[{"name":"smartAccount","type":"address","internalType":"address"}],"outputs":[{"name":"","type":"bool","internalType":"bool"}],"stateMutability":"view"},{"type":"function","name":"isModuleType","inputs":[{"name":"typeID","type":"uint256","internalType":"uint256"}],"outputs":[{"name":"","type":"bool","internalType":"bool"}],"stateMutability":"pure"},{"type":"function","name":"isValidSignatureWithSender","inputs":[{"name":"","type":"address","internalType":"address"},{"name":"hash","type":"bytes32","internalType":"bytes32"},{"name":"data","type":"bytes","internalType":"bytes"}],"outputs":[{"name":"","type":"bytes4","internalType":"bytes4"}],"stateMutability":"view"},{"type":"function","name":"name","inputs":[],"outputs":[{"name":"","type":"string","internalType":"string"}],"stateMutability":"pure"},{"type":"function","name":"onInstall","inputs":[{"name":"data","type":"bytes","internalType":"bytes"}],"outputs":[],"stateMutability":"nonpayable"},{"type":"function","name":"onUninstall","inputs":[{"name":"","type":"bytes","internalType":"bytes"}],"outputs":[],"stateMutability":"nonpayable"},{"type":"function","name":"owners","inputs":[{"name":"subAccout","type":"address","internalType":"address"}],"outputs":[{"name":"owner","type":"address","internalType":"address"}],"stateMutability":"view"},{"type":"function","name":"validateUserOp","inputs":[{"name":"userOp","type":"tuple","internalType":"struct PackedUserOperation","components":[{"name":"sender","type":"address","internalType":"address"},{"name":"nonce","type":"uint256","internalType":"uint256"},{"name":"initCode","type":"bytes","internalType":"bytes"},{"name":"callData","type":"bytes","internalType":"bytes"},{"name":"accountGasLimits","type":"bytes32","internalType":"bytes32"},{"name":"preVerificationGas","type":"uint256","internalType":"uint256"},{"name":"gasFees","type":"bytes32","internalType":"bytes32"},{"name":"paymasterAndData","type":"bytes","internalType":"bytes"},{"name":"signature","type":"bytes","internalType":"bytes"}]},{"name":"userOpHash","type":"bytes32","internalType":"bytes32"}],"outputs":[{"name":"","type":"uint256","internalType":"ERC7579ValidatorBase.ValidationData"}],"stateMutability":"view"},{"type":"function","name":"version","inputs":[],"outputs":[{"name":"","type":"string","internalType":"string"}],"stateMutability":"pure"},{"type":"error","name":"AlreadyInitialized","inputs":[{"name":"smartAccount","type":"address","internalType":"address"}]},{"type":"error","name":"NotInitialized","inputs":[{"name":"smartAccount","type":"address","internalType":"address"}]}],"bytecode":{"object":"0x6080604052348015600f57600080fd5b5061084d8061001f6000396000f3fe608060405234801561001057600080fd5b506004361061009e5760003560e01c806397003203116100665780639700320314610183578063a6f9dae1146101a4578063d60b347f146101e1578063ecd059611461021f578063f551e2ee1461023357600080fd5b8063022914a7146100a357806306fdde03146100e957806354fd4d501461011e5780636d61fe701461013f5780638a91b0e314610154575b600080fd5b6100cc6100b136600461061a565b6000602081905290815260409020546001600160a01b031681565b6040516001600160a01b0390911681526020015b60405180910390f35b60408051808201909152601081526f27bbb730b13632ab30b634b230ba37b960811b60208201525b6040516100e09190610637565b604080518082019091526005815264302e302e3160d81b6020820152610111565b61015261014d3660046106ce565b61025f565b005b6101526101623660046106ce565b505033600090815260208190526040902080546001600160a01b0319169055565b610196610191366004610710565b6102ac565b6040519081526020016100e0565b6101526101b236600461061a565b33600090815260208190526040902080546001600160a01b0319166001600160a01b0392909216919091179055565b61020f6101ef36600461061a565b6001600160a01b0390811660009081526020819052604090205416151590565b60405190151581526020016100e0565b61020f61022d36600461075b565b60011490565b610246610241366004610774565b610374565b6040516001600160e01b031990911681526020016100e0565b600081900361026c575050565b600061027a8284018461061a565b33600090815260208190526040902080546001600160a01b0319166001600160a01b0392909216919091179055505050565b6000806103576102e1846020527b19457468657265756d205369676e6564204d6573736167653a0a3332600052603c60042090565b6102ef6101008701876107d0565b8080601f01602080910402602001604051908101604052809392919081815260200183838082843760009201829052509250829150610333905060208a018a61061a565b6001600160a01b0390811682526020820192909252604001600020541691906103be565b905061036c811565ffffffffffff60006104c4565b949350505050565b336000908152602081905260408120546001600160a01b0316610399818686866104d1565b6103ab576001600160e01b03196103b4565b630b135d3f60e11b5b9695505050505050565b6001600160a01b0390921691600083156104bd57604051836000526020830151604052604083510361042e576040830151601b8160ff1c016020528060011b60011c60605250602060016080600060015afa805186183d151761042c575060006060526040525060016104bd565b505b604183510361047457606083015160001a6020526040830151606052602060016080600060015afa805186183d1517610472575060006060526040525060016104bd565b505b600060605280604052631626ba7e60e01b808252846004830152602482016040815284516020018060448501828860045afa505060208160443d01858a5afa9051909114169150505b9392505050565b600061036c8484846105ca565b6001600160a01b03909316926000841561036c57604051846000526040830361053c5760208481013560ff81901c601b01825285356040526001600160ff1b0316606052600160806000825afa805187183d151761053a5750600060605260405250600161036c565b505b6041830361057f57604084013560001a602052604084604037602060016080600060015afa805187183d151761057d5750600060605260405250600161036c565b505b600060605280604052631626ba7e60e01b80825285600483015260248201604081528460448401528486606485013760208160648701858b5afa905190911416915050949350505050565b600060d08265ffffffffffff16901b60a08465ffffffffffff16901b856105f25760006105f5565b60015b60ff161717949350505050565b6001600160a01b038116811461061757600080fd5b50565b60006020828403121561062c57600080fd5b81356104bd81610602565b602081526000825180602084015260005b818110156106655760208186018101516040868401015201610648565b506000604082850101526040601f19601f83011684010191505092915050565b60008083601f84011261069757600080fd5b50813567ffffffffffffffff8111156106af57600080fd5b6020830191508360208285010111156106c757600080fd5b9250929050565b600080602083850312156106e157600080fd5b823567ffffffffffffffff8111156106f857600080fd5b61070485828601610685565b90969095509350505050565b6000806040838503121561072357600080fd5b823567ffffffffffffffff81111561073a57600080fd5b8301610120818603121561074d57600080fd5b946020939093013593505050565b60006020828403121561076d57600080fd5b5035919050565b6000806000806060858703121561078a57600080fd5b843561079581610602565b935060208501359250604085013567ffffffffffffffff8111156107b857600080fd5b6107c487828801610685565b95989497509550505050565b6000808335601e198436030181126107e757600080fd5b83018035915067ffffffffffffffff82111561080257600080fd5b6020019150368190038213156106c757600080fdfea26469706673582212208ee9c44b186942f6007e41a33f4c08f47cbd041bbae97aee8dbcd7b176375f6564736f6c634300081a0033","linkReferences":{}},"methodIdentifiers":{"changeOwner(address)":"a6f9dae1","isInitialized(address)":"d60b347f","isModuleType(uint256)":"ecd05961","isValidSignatureWithSender(address,bytes32,bytes)":"f551e2ee","name()":"06fdde03","onInstall(bytes)":"6d61fe70","onUninstall(bytes)":"8a91b0e3","owners(address)":"022914a7","validateUserOp((address,uint256,bytes,bytes,bytes32,uint256,bytes32,bytes,bytes),bytes32)":"97003203","version()":"54fd4d50"},"id":319}