{
  "abi": [
    {
      "type": "function",
      "name": "acceptanceSubjectTemplates",
      "inputs": [],
      "outputs": [
        {
          "name": "",
          "type": "string[][]",
          "internalType": "string[][]"
        }
      ],
      "stateMutability": "pure"
    },
    {
      "type": "function",
      "name": "extractRecoveredAccountFromAcceptanceSubject",
      "inputs": [
        {
          "name": "subjectParams",
          "type": "bytes[]",
          "internalType": "bytes[]"
        },
        {
          "name": "",
          "type": "uint256",
          "internalType": "uint256"
        }
      ],
      "outputs": [
        {
          "name": "",
          "type": "address",
          "internalType": "address"
        }
      ],
      "stateMutability": "pure"
    },
    {
      "type": "function",
      "name": "extractRecoveredAccountFromRecoverySubject",
      "inputs": [
        {
          "name": "subjectParams",
          "type": "bytes[]",
          "internalType": "bytes[]"
        },
        {
          "name": "",
          "type": "uint256",
          "internalType": "uint256"
        }
      ],
      "outputs": [
        {
          "name": "",
          "type": "address",
          "internalType": "address"
        }
      ],
      "stateMutability": "pure"
    },
    {
      "type": "function",
      "name": "parseRecoveryDataHash",
      "inputs": [
        {
          "name": "templateIdx",
          "type": "uint256",
          "internalType": "uint256"
        },
        {
          "name": "subjectParams",
          "type": "bytes[]",
          "internalType": "bytes[]"
        }
      ],
      "outputs": [
        {
          "name": "",
          "type": "bytes32",
          "internalType": "bytes32"
        }
      ],
      "stateMutability": "view"
    },
    {
      "type": "function",
      "name": "recoverySubjectTemplates",
      "inputs": [],
      "outputs": [
        {
          "name": "",
          "type": "string[][]",
          "internalType": "string[][]"
        }
      ],
      "stateMutability": "pure"
    },
    {
      "type": "function",
      "name": "selector",
      "inputs": [],
      "outputs": [
        {
          "name": "",
          "type": "bytes4",
          "internalType": "bytes4"
        }
      ],
      "stateMutability": "view"
    },
    {
      "type": "function",
      "name": "validateAcceptanceSubject",
      "inputs": [
        {
          "name": "templateIdx",
          "type": "uint256",
          "internalType": "uint256"
        },
        {
          "name": "subjectParams",
          "type": "bytes[]",
          "internalType": "bytes[]"
        }
      ],
      "outputs": [
        {
          "name": "",
          "type": "address",
          "internalType": "address"
        }
      ],
      "stateMutability": "pure"
    },
    {
      "type": "function",
      "name": "validateRecoverySubject",
      "inputs": [
        {
          "name": "templateIdx",
          "type": "uint256",
          "internalType": "uint256"
        },
        {
          "name": "subjectParams",
          "type": "bytes[]",
          "internalType": "bytes[]"
        }
      ],
      "outputs": [
        {
          "name": "",
          "type": "address",
          "internalType": "address"
        }
      ],
      "stateMutability": "view"
    },
    {
      "type": "error",
      "name": "InvalidNewOwner",
      "inputs": [
        {
          "name": "newOwner",
          "type": "address",
          "internalType": "address"
        }
      ]
    },
    {
      "type": "error",
      "name": "InvalidOldOwner",
      "inputs": [
        {
          "name": "oldOwner",
          "type": "address",
          "internalType": "address"
        }
      ]
    },
    {
      "type": "error",
      "name": "InvalidSubjectParams",
      "inputs": [
        {
          "name": "paramsLength",
          "type": "uint256",
          "internalType": "uint256"
        },
        {
          "name": "expectedParamsLength",
          "type": "uint256",
          "internalType": "uint256"
        }
      ]
    },
    {
      "type": "error",
      "name": "InvalidTemplateIndex",
      "inputs": [
        {
          "name": "templateIdx",
          "type": "uint256",
          "internalType": "uint256"
        },
        {
          "name": "expectedTemplateIdx",
          "type": "uint256",
          "internalType": "uint256"
        }
      ]
    }
  ],
  "bytecode": {
    "object": "0x6080604052348015600f57600080fd5b5061118f8061001f6000396000f3fe608060405234801561001057600080fd5b50600436106100885760003560e01c8063db914c851161005b578063db914c85146100fb578063e81b28ca1461010e578063e81dcaf21461008d578063ea3d508a1461012157600080fd5b806330e6a5ab1461008d5780633e91cdcd146100bd5780635bafadda146100d2578063da066739146100da575b600080fd5b6100a061009b366004610db7565b610142565b6040516001600160a01b0390911681526020015b60405180910390f35b6100c561017e565b6040516100b49190610e49565b6100c56105b8565b6100ed6100e8366004610ef5565b6107dd565b6040519081526020016100b4565b6100a0610109366004610ef5565b61096e565b6100a061011c366004610ef5565b610a01565b610129610c4b565b6040516001600160e01b031990911681526020016100b4565b60008383600081811061015757610157610f41565b90506020028101906101699190610f57565b8101906101769190610fb6565b949350505050565b60408051600180825281830190925260609160009190816020015b606081526020019060019003908161019957505060408051600b8082526101808201909252919250602082015b60608152602001906001900390816101c657905050816000815181106101ee576101ee610f41565b6020026020010181905250604051806040016040528060078152602001662932b1b7bb32b960c91b8152508160008151811061022c5761022c610f41565b602002602001015160008151811061024657610246610f41565b6020026020010181905250604051806040016040528060078152602001661858d8dbdd5b9d60ca1b8152508160008151811061028457610284610f41565b602002602001015160018151811061029e5761029e610f41565b6020026020010181905250604051806040016040528060098152602001687b657468416464727d60b81b815250816000815181106102de576102de610f41565b60200260200101516002815181106102f8576102f8610f41565b60200260200101819052506040518060400160405280600481526020016366726f6d60e01b8152508160008151811061033357610333610f41565b602002602001015160038151811061034d5761034d610f41565b6020026020010181905250604051806040016040528060038152602001621bdb1960ea1b8152508160008151811061038757610387610f41565b60200260200101516004815181106103a1576103a1610f41565b60200260200101819052506040518060400160405280600581526020016437bbb732b960d91b815250816000815181106103dd576103dd610f41565b60200260200101516005815181106103f7576103f7610f41565b6020026020010181905250604051806040016040528060098152602001687b657468416464727d60b81b8152508160008151811061043757610437610f41565b602002602001015160068151811061045157610451610f41565b602002602001018190525060405180604001604052806002815260200161746f60f01b8152508160008151811061048a5761048a610f41565b60200260200101516007815181106104a4576104a4610f41565b6020026020010181905250604051806040016040528060038152602001626e657760e81b815250816000815181106104de576104de610f41565b60200260200101516008815181106104f8576104f8610f41565b60200260200101819052506040518060400160405280600581526020016437bbb732b960d91b8152508160008151811061053457610534610f41565b602002602001015160098151811061054e5761054e610f41565b6020026020010181905250604051806040016040528060098152602001687b657468416464727d60b81b8152508160008151811061058e5761058e610f41565b6020026020010151600a815181106105a8576105a8610f41565b6020908102919091010152919050565b60408051600180825281830190925260609160009190816020015b60608152602001906001900390816105d357505060408051600580825260c08201909252919250602082015b60608152602001906001900390816105ff579050508160008151811061062757610627610f41565b6020026020010181905250604051806040016040528060068152602001651058d8d95c1d60d21b8152508160008151811061066457610664610f41565b602002602001015160008151811061067e5761067e610f41565b60200260200101819052506040518060400160405280600881526020016733bab0b93234b0b760c11b815250816000815181106106bd576106bd610f41565b60200260200101516001815181106106d7576106d7610f41565b6020026020010181905250604051806040016040528060078152602001661c995c5d595cdd60ca1b8152508160008151811061071557610715610f41565b602002602001015160028151811061072f5761072f610f41565b6020026020010181905250604051806040016040528060038152602001623337b960e91b8152508160008151811061076957610769610f41565b602002602001015160038151811061078357610783610f41565b6020026020010181905250604051806040016040528060098152602001687b657468416464727d60b81b815250816000815181106107c3576107c3610f41565b60200260200101516004815181106105a8576105a8610f41565b6000831561080d57604051635be7785560e01b815260048101859052600060248201526044015b60405180910390fd5b60008383600081811061082257610822610f41565b90506020028101906108349190610f57565b8101906108419190610fb6565b905060008484600181811061085857610858610f41565b905060200281019061086a9190610f57565b8101906108779190610fb6565b905060008585600281811061088e5761088e610f41565b90506020028101906108a09190610f57565b8101906108ad9190610fb6565b905060006108bb8484610c6e565b905060006040518060600160405280602281526020016111386022913980516020909101206040516001600160a01b03808516602483015280871660448301528516606482015260840160408051601f19818403018152918152602080830180516001600160e01b03166001600160e01b0319909516949094179093525190925061094a918791849101610ff0565b60405160208183030381529060405280519060200120955050505050509392505050565b6000831561099957604051635be7785560e01b81526004810185905260006024820152604401610804565b600182146109c457604051639c6fa02560e01b81526004810183905260016024820152604401610804565b6000838360008181106109d9576109d9610f41565b90506020028101906109eb9190610f57565b8101906109f89190610fb6565b95945050505050565b60008315610a2c57604051635be7785560e01b81526004810185905260006024820152604401610804565b60038214610a5757604051639c6fa02560e01b81526004810183905260036024820152604401610804565b600083836000818110610a6c57610a6c610f41565b9050602002810190610a7e9190610f57565b810190610a8b9190610fb6565b9050600084846001818110610aa257610aa2610f41565b9050602002810190610ab49190610f57565b810190610ac19190610fb6565b9050600085856002818110610ad857610ad8610f41565b9050602002810190610aea9190610f57565b810190610af79190610fb6565b6040516317aa5fb760e11b81526001600160a01b038481166004830152919250600091851690632f54bf6e90602401602060405180830381865afa158015610b43573d6000803e3d6000fd5b505050506040513d601f19601f82011682018060405250810190610b679190611014565b905080610b925760405163377abe5160e01b81526001600160a01b0384166004820152602401610804565b6040516317aa5fb760e11b81526001600160a01b03838116600483015260009190861690632f54bf6e90602401602060405180830381865afa158015610bdc573d6000803e3d6000fd5b505050506040513d601f19601f82011682018060405250810190610c009190611014565b90506001600160a01b0383161580610c155750805b15610c3e57604051630896d9ad60e41b81526001600160a01b0384166004820152602401610804565b5092979650505050505050565b604051806060016040528060228152602001611138602291398051906020012081565b600080836001600160a01b031663a0e67e2b6040518163ffffffff1660e01b8152600401600060405180830381865afa158015610caf573d6000803e3d6000fd5b505050506040513d6000823e601f3d908101601f19168201604052610cd79190810190611046565b80519091506000805b82811015610d2a57856001600160a01b0316848281518110610d0457610d04610f41565b60200260200101516001600160a01b031603610d2257809150610d2a565b600101610ce0565b5060018115610d5c5783610d3f600184611116565b81518110610d4f57610d4f610f41565b6020026020010151610d5e565b805b9450505050505b92915050565b60008083601f840112610d7d57600080fd5b50813567ffffffffffffffff811115610d9557600080fd5b6020830191508360208260051b8501011115610db057600080fd5b9250929050565b600080600060408486031215610dcc57600080fd5b833567ffffffffffffffff811115610de357600080fd5b610def86828701610d6b565b909790965060209590950135949350505050565b6000815180845260005b81811015610e2957602081850181015186830182015201610e0d565b506000602082860101526020601f19601f83011685010191505092915050565b6000602082016020835280845180835260408501915060408160051b86010192506020860160005b82811015610ee957868503603f19018452815180518087526020918201918088019190600582901b89010160005b82811015610ed057601f198a8303018452610ebb828651610e03565b60209586019594909401939150600101610e9f565b5097505050602094850194929092019150600101610e71565b50929695505050505050565b600080600060408486031215610f0a57600080fd5b83359250602084013567ffffffffffffffff811115610f2857600080fd5b610f3486828701610d6b565b9497909650939450505050565b634e487b7160e01b600052603260045260246000fd5b6000808335601e19843603018112610f6e57600080fd5b83018035915067ffffffffffffffff821115610f8957600080fd5b602001915036819003821315610db057600080fd5b6001600160a01b0381168114610fb357600080fd5b50565b600060208284031215610fc857600080fd5b8135610fd381610f9e565b9392505050565b634e487b7160e01b600052604160045260246000fd5b6001600160a01b038316815260406020820181905260009061017690830184610e03565b60006020828403121561102657600080fd5b81518015158114610fd357600080fd5b805161104181610f9e565b919050565b60006020828403121561105857600080fd5b815167ffffffffffffffff81111561106f57600080fd5b8201601f8101841361108057600080fd5b805167ffffffffffffffff81111561109a5761109a610fda565b8060051b604051601f19603f830116810181811067ffffffffffffffff821117156110c7576110c7610fda565b6040529182526020818401810192908101878411156110e557600080fd5b6020850194505b8385101561110b576110fd85611036565b8152602094850194016110ec565b509695505050505050565b81810381811115610d6557634e487b7160e01b600052601160045260246000fdfe737761704f776e657228616464726573732c616464726573732c6164647265737329a26469706673582212208bc148af3b7181a2256c4eb5ee9a6492827c7e9d5fd704dfee7a4c718631c75664736f6c634300081a0033",
    "linkReferences": {}
  },
  "methodIdentifiers": {
    "acceptanceSubjectTemplates()": "5bafadda",
    "extractRecoveredAccountFromAcceptanceSubject(bytes[],uint256)": "e81dcaf2",
    "extractRecoveredAccountFromRecoverySubject(bytes[],uint256)": "30e6a5ab",
    "parseRecoveryDataHash(uint256,bytes[])": "da066739",
    "recoverySubjectTemplates()": "3e91cdcd",
    "selector()": "ea3d508a",
    "validateAcceptanceSubject(uint256,bytes[])": "db914c85",
    "validateRecoverySubject(uint256,bytes[])": "e81b28ca"
  },
  "id": 304
}