{"abi":[{"type":"constructor","inputs":[{"name":"_verifier","type":"address","internalType":"address"},{"name":"_dkimRegistry","type":"address","internalType":"address"},{"name":"_emailAuthImpl","type":"address","internalType":"address"}],"stateMutability":"nonpayable"},{"type":"function","name":"MINIMUM_RECOVERY_WINDOW","inputs":[],"outputs":[{"name":"","type":"uint256","internalType":"uint256"}],"stateMutability":"view"},{"type":"function","name":"acceptanceSubjectTemplates","inputs":[],"outputs":[{"name":"","type":"string[][]","internalType":"string[][]"}],"stateMutability":"view"},{"type":"function","name":"addGuardian","inputs":[{"name":"guardian","type":"address","internalType":"address"},{"name":"weight","type":"uint256","internalType":"uint256"}],"outputs":[],"stateMutability":"nonpayable"},{"type":"function","name":"cancelRecovery","inputs":[],"outputs":[],"stateMutability":"nonpayable"},{"type":"function","name":"changeThreshold","inputs":[{"name":"threshold","type":"uint256","internalType":"uint256"}],"outputs":[],"stateMutability":"nonpayable"},{"type":"function","name":"completeRecovery","inputs":[{"name":"account","type":"address","internalType":"address"},{"name":"recoveryCalldata","type":"bytes","internalType":"bytes"}],"outputs":[],"stateMutability":"nonpayable"},{"type":"function","name":"computeAcceptanceTemplateId","inputs":[{"name":"templateIdx","type":"uint256","internalType":"uint256"}],"outputs":[{"name":"","type":"uint256","internalType":"uint256"}],"stateMutability":"pure"},{"type":"function","name":"computeEmailAuthAddress","inputs":[{"name":"recoveredAccount","type":"address","internalType":"address"},{"name":"accountSalt","type":"bytes32","internalType":"bytes32"}],"outputs":[{"name":"","type":"address","internalType":"address"}],"stateMutability":"view"},{"type":"function","name":"computeRecoveryTemplateId","inputs":[{"name":"templateIdx","type":"uint256","internalType":"uint256"}],"outputs":[{"name":"","type":"uint256","internalType":"uint256"}],"stateMutability":"pure"},{"type":"function","name":"configureRecovery","inputs":[{"name":"guardians","type":"address[]","internalType":"address[]"},{"name":"weights","type":"uint256[]","internalType":"uint256[]"},{"name":"threshold","type":"uint256","internalType":"uint256"},{"name":"delay","type":"uint256","internalType":"uint256"},{"name":"expiry","type":"uint256","internalType":"uint256"}],"outputs":[],"stateMutability":"nonpayable"},{"type":"function","name":"deInitRecoveryFromModule","inputs":[{"name":"account","type":"address","internalType":"address"}],"outputs":[],"stateMutability":"nonpayable"},{"type":"function","name":"dkim","inputs":[],"outputs":[{"name":"","type":"address","internalType":"address"}],"stateMutability":"view"},{"type":"function","name":"dkimAddr","inputs":[],"outputs":[{"name":"","type":"address","internalType":"address"}],"stateMutability":"view"},{"type":"function","name":"emailAuthImplementation","inputs":[],"outputs":[{"name":"","type":"address","internalType":"address"}],"stateMutability":"view"},{"type":"function","name":"emailAuthImplementationAddr","inputs":[],"outputs":[{"name":"","type":"address","internalType":"address"}],"stateMutability":"view"},{"type":"function","name":"extractRecoveredAccountFromAcceptanceSubject","inputs":[{"name":"subjectParams","type":"bytes[]","internalType":"bytes[]"},{"name":"templateIdx","type":"uint256","internalType":"uint256"}],"outputs":[{"name":"","type":"address","internalType":"address"}],"stateMutability":"view"},{"type":"function","name":"extractRecoveredAccountFromRecoverySubject","inputs":[{"name":"subjectParams","type":"bytes[]","internalType":"bytes[]"},{"name":"templateIdx","type":"uint256","internalType":"uint256"}],"outputs":[{"name":"","type":"address","internalType":"address"}],"stateMutability":"view"},{"type":"function","name":"getGuardian","inputs":[{"name":"account","type":"address","internalType":"address"},{"name":"guardian","type":"address","internalType":"address"}],"outputs":[{"name":"","type":"tuple","internalType":"struct GuardianStorage","components":[{"name":"status","type":"uint8","internalType":"enum GuardianStatus"},{"name":"weight","type":"uint256","internalType":"uint256"}]}],"stateMutability":"view"},{"type":"function","name":"getGuardianConfig","inputs":[{"name":"account","type":"address","internalType":"address"}],"outputs":[{"name":"","type":"tuple","internalType":"struct IEmailRecoveryManager.GuardianConfig","components":[{"name":"guardianCount","type":"uint256","internalType":"uint256"},{"name":"totalWeight","type":"uint256","internalType":"uint256"},{"name":"threshold","type":"uint256","internalType":"uint256"},{"name":"initialized","type":"bool","internalType":"bool"}]}],"stateMutability":"view"},{"type":"function","name":"getRecoveryConfig","inputs":[{"name":"account","type":"address","internalType":"address"}],"outputs":[{"name":"","type":"tuple","internalType":"struct IEmailRecoveryManager.RecoveryConfig","components":[{"name":"delay","type":"uint256","internalType":"uint256"},{"name":"expiry","type":"uint256","internalType":"uint256"}]}],"stateMutability":"view"},{"type":"function","name":"getRecoveryRequest","inputs":[{"name":"account","type":"address","internalType":"address"}],"outputs":[{"name":"","type":"tuple","internalType":"struct IEmailRecoveryManager.RecoveryRequest","components":[{"name":"executeAfter","type":"uint256","internalType":"uint256"},{"name":"executeBefore","type":"uint256","internalType":"uint256"},{"name":"currentWeight","type":"uint256","internalType":"uint256"},{"name":"calldataHash","type":"bytes32","internalType":"bytes32"}]}],"stateMutability":"view"},{"type":"function","name":"handleAcceptance","inputs":[{"name":"emailAuthMsg","type":"tuple","internalType":"struct EmailAuthMsg","components":[{"name":"templateId","type":"uint256","internalType":"uint256"},{"name":"subjectParams","type":"bytes[]","internalType":"bytes[]"},{"name":"skipedSubjectPrefix","type":"uint256","internalType":"uint256"},{"name":"proof","type":"tuple","internalType":"struct EmailProof","components":[{"name":"domainName","type":"string","internalType":"string"},{"name":"publicKeyHash","type":"bytes32","internalType":"bytes32"},{"name":"timestamp","type":"uint256","internalType":"uint256"},{"name":"maskedSubject","type":"string","internalType":"string"},{"name":"emailNullifier","type":"bytes32","internalType":"bytes32"},{"name":"accountSalt","type":"bytes32","internalType":"bytes32"},{"name":"isCodeExist","type":"bool","internalType":"bool"},{"name":"proof","type":"bytes","internalType":"bytes"}]}]},{"name":"templateIdx","type":"uint256","internalType":"uint256"}],"outputs":[],"stateMutability":"nonpayable"},{"type":"function","name":"handleRecovery","inputs":[{"name":"emailAuthMsg","type":"tuple","internalType":"struct EmailAuthMsg","components":[{"name":"templateId","type":"uint256","internalType":"uint256"},{"name":"subjectParams","type":"bytes[]","internalType":"bytes[]"},{"name":"skipedSubjectPrefix","type":"uint256","internalType":"uint256"},{"name":"proof","type":"tuple","internalType":"struct EmailProof","components":[{"name":"domainName","type":"string","internalType":"string"},{"name":"publicKeyHash","type":"bytes32","internalType":"bytes32"},{"name":"timestamp","type":"uint256","internalType":"uint256"},{"name":"maskedSubject","type":"string","internalType":"string"},{"name":"emailNullifier","type":"bytes32","internalType":"bytes32"},{"name":"accountSalt","type":"bytes32","internalType":"bytes32"},{"name":"isCodeExist","type":"bool","internalType":"bool"},{"name":"proof","type":"bytes","internalType":"bytes"}]}]},{"name":"templateIdx","type":"uint256","internalType":"uint256"}],"outputs":[],"stateMutability":"nonpayable"},{"type":"function","name":"recoverySubjectTemplates","inputs":[],"outputs":[{"name":"","type":"string[][]","internalType":"string[][]"}],"stateMutability":"view"},{"type":"function","name":"removeGuardian","inputs":[{"name":"guardian","type":"address","internalType":"address"}],"outputs":[],"stateMutability":"nonpayable"},{"type":"function","name":"updateRecoveryConfig","inputs":[{"name":"recoveryConfig","type":"tuple","internalType":"struct IEmailRecoveryManager.RecoveryConfig","components":[{"name":"delay","type":"uint256","internalType":"uint256"},{"name":"expiry","type":"uint256","internalType":"uint256"}]}],"outputs":[],"stateMutability":"nonpayable"},{"type":"function","name":"verifier","inputs":[],"outputs":[{"name":"","type":"address","internalType":"address"}],"stateMutability":"view"},{"type":"function","name":"verifierAddr","inputs":[],"outputs":[{"name":"","type":"address","internalType":"address"}],"stateMutability":"view"},{"type":"event","name":"AddedGuardian","inputs":[{"name":"account","type":"address","indexed":true,"internalType":"address"},{"name":"guardian","type":"address","indexed":true,"internalType":"address"}],"anonymous":false},{"type":"event","name":"ChangedThreshold","inputs":[{"name":"account","type":"address","indexed":true,"internalType":"address"},{"name":"threshold","type":"uint256","indexed":false,"internalType":"uint256"}],"anonymous":false},{"type":"event","name":"GuardianAccepted","inputs":[{"name":"account","type":"address","indexed":true,"internalType":"address"},{"name":"guardian","type":"address","indexed":true,"internalType":"address"}],"anonymous":false},{"type":"event","name":"RecoveryCancelled","inputs":[{"name":"account","type":"address","indexed":true,"internalType":"address"}],"anonymous":false},{"type":"event","name":"RecoveryCompleted","inputs":[{"name":"account","type":"address","indexed":true,"internalType":"address"}],"anonymous":false},{"type":"event","name":"RecoveryConfigUpdated","inputs":[{"name":"account","type":"address","indexed":true,"internalType":"address"},{"name":"delay","type":"uint256","indexed":false,"internalType":"uint256"},{"name":"expiry","type":"uint256","indexed":false,"internalType":"uint256"}],"anonymous":false},{"type":"event","name":"RecoveryConfigured","inputs":[{"name":"account","type":"address","indexed":true,"internalType":"address"},{"name":"guardianCount","type":"uint256","indexed":false,"internalType":"uint256"}],"anonymous":false},{"type":"event","name":"RecoveryDeInitialized","inputs":[{"name":"account","type":"address","indexed":true,"internalType":"address"}],"anonymous":false},{"type":"event","name":"RecoveryProcessed","inputs":[{"name":"account","type":"address","indexed":true,"internalType":"address"},{"name":"executeAfter","type":"uint256","indexed":false,"internalType":"uint256"},{"name":"executeBefore","type":"uint256","indexed":false,"internalType":"uint256"}],"anonymous":false},{"type":"event","name":"RemovedGuardian","inputs":[{"name":"account","type":"address","indexed":true,"internalType":"address"},{"name":"guardian","type":"address","indexed":true,"internalType":"address"}],"anonymous":false},{"type":"error","name":"AccountNotConfigured","inputs":[]},{"type":"error","name":"AddressAlreadyGuardian","inputs":[]},{"type":"error","name":"DelayMoreThanExpiry","inputs":[]},{"type":"error","name":"DelayNotPassed","inputs":[]},{"type":"error","name":"IncorrectNumberOfWeights","inputs":[]},{"type":"error","name":"InitializerNotDeployer","inputs":[]},{"type":"error","name":"InvalidAccountAddress","inputs":[]},{"type":"error","name":"InvalidCalldataHash","inputs":[]},{"type":"error","name":"InvalidGuardianAddress","inputs":[]},{"type":"error","name":"InvalidGuardianStatus","inputs":[{"name":"guardianStatus","type":"uint8","internalType":"enum GuardianStatus"},{"name":"expectedGuardianStatus","type":"uint8","internalType":"enum GuardianStatus"}]},{"type":"error","name":"InvalidGuardianWeight","inputs":[]},{"type":"error","name":"InvalidNewOwner","inputs":[]},{"type":"error","name":"InvalidOldOwner","inputs":[]},{"type":"error","name":"InvalidRecoveryModule","inputs":[]},{"type":"error","name":"InvalidSubjectHandler","inputs":[]},{"type":"error","name":"InvalidSubjectParams","inputs":[]},{"type":"error","name":"InvalidTemplateIndex","inputs":[]},{"type":"error","name":"MaxNumberOfGuardiansReached","inputs":[]},{"type":"error","name":"NoRecoveryConfigured","inputs":[]},{"type":"error","name":"NotEnoughApprovals","inputs":[]},{"type":"error","name":"NotRecoveryModule","inputs":[]},{"type":"error","name":"RecoveryInProcess","inputs":[]},{"type":"error","name":"RecoveryModuleNotAuthorized","inputs":[]},{"type":"error","name":"RecoveryRequestExpired","inputs":[]},{"type":"error","name":"RecoveryWindowTooShort","inputs":[]},{"type":"error","name":"SetupAlreadyCalled","inputs":[]},{"type":"error","name":"SetupNotCalled","inputs":[]},{"type":"error","name":"StatusCannotBeTheSame","inputs":[]},{"type":"error","name":"ThresholdCannotBeZero","inputs":[]},{"type":"error","name":"ThresholdCannotExceedTotalWeight","inputs":[]},{"type":"error","name":"UnauthorizedAccountForGuardian","inputs":[]}],"bytecode":{"object":"0x6080604052348015600f57600080fd5b50604051613e3c380380613e3c833981016040819052602c916088565b600080546001600160a01b039485166001600160a01b03199182161790915560018054938516938216939093179092556002805491909316911617905560c4565b80516001600160a01b0381168114608357600080fd5b919050565b600080600060608486031215609c57600080fd5b60a384606d565b925060af60208501606d565b915060bb60408501606d565b90509250925092565b613d69806100d36000396000f3fe608060405234801561001057600080fd5b50600436106101c45760003560e01c80635bafadda116100f95780637dbcfcb911610097578063b68126fa11610071578063b68126fa14610462578063c18d09cf14610475578063da34a85014610488578063e81dcaf21461030957600080fd5b80637dbcfcb9146104365780639915068014610447578063b62016921461045157600080fd5b8063694e80c3116100d3578063694e80c3146103ea5780636da99515146103fd578063714041561461041057806373357f851461042357600080fd5b80635bafadda146103bc57806360bb9d5c146103c4578063663ea2e2146103d757600080fd5b80632b7ac3f3116101665780633a8eab14116101405780633a8eab141461033d5780633e91cdcd14610350578063400ad5ce146103655780634f9a28b91461037657600080fd5b80632b7ac3f3146102f857806330e6a5ab1461030957806332ccc2f21461031c57600080fd5b80631098e02e116101a25780631098e02e14610237578063111e5313146102625780631788178f146102755780632788bbda1461028857600080fd5b80630481af67146101c95780630ba234d6146101de5780630bb6094a146101e6575b600080fd5b6101dc6101d736600461302d565b6104a8565b005b6101dc610a0f565b6101f96101f436600461319f565b610a5d565b60405161022e919081518152602080830151908201526040808301519082015260609182015115159181019190915260800190565b60405180910390f35b60025461024a906001600160a01b031681565b6040516001600160a01b03909116815260200161022e565b6101dc6102703660046131bc565b610add565b6101dc6102833660046131e8565b610b21565b6102dd61029636600461319f565b6040805180820190915260008082526020820152506001600160a01b0316600090815260036020908152604091829020825180840190935280548352600101549082015290565b6040805182518152602092830151928101929092520161022e565b6000546001600160a01b031661024a565b61024a610317366004613237565b610c44565b61032f61032a36600461327c565b610c7d565b60405190815260200161022e565b61024a61034b3660046131bc565b610cd5565b610358610ed1565b60405161022e919061333f565b6001546001600160a01b031661024a565b61038961038436600461319f565b61146b565b60405161022e91908151815260208083015190820152604080830151908201526060918201519181019190915260800190565b6103586114e7565b6101dc6103d2366004613402565b61170c565b60005461024a906001600160a01b031681565b6101dc6103f836600461327c565b611887565b61032f61040b36600461327c565b6118c4565b6101dc61041e36600461319f565b6118da565b60015461024a906001600160a01b031681565b6101dc61044436600461319f565b50565b61032f6202a30081565b6002546001600160a01b031661024a565b6101dc61047036600461302d565b611919565b6101dc6104833660046134df565b611adb565b61049b61049636600461352f565b611cdc565b60405161022e91906135a0565b60006104b8836020015183610c44565b90506001600160a01b0381166105105760405162461bcd60e51b81526020600482015260186024820152771a5b9d985b1a59081858d8dbdd5b9d081a5b88195b585a5b60421b60448201526064015b60405180910390fd5b600061052482856060015160a00151610cd5565b9050600061053184610c7d565b8551909150811461057a5760405162461bcd60e51b81526020600482015260136024820152721a5b9d985b1a59081d195b5c1b185d19481a59606a1b6044820152606401610507565b606085015160c0015115156001146105cb5760405162461bcd60e51b81526020600482015260146024820152736973436f646545786973742069732066616c736560601b6044820152606401610507565b6000826001600160a01b03163b6000036108d7576000866060015160a001516105fc6002546001600160a01b031690565b606089015160a001516040516001600160a01b0389166024820152604481019190915230606482015260840160408051601f198184030181529181526020820180516001600160e01b03166369359f3760e11b1790525161065c90612e4a565b6106679291906135c1565b8190604051809103906000f5905080158015610687573d6000803e3d6000fd5b509050809150816001600160a01b031663557cf5ef6106ae6001546001600160a01b031690565b6040516001600160e01b031960e084901b1681526001600160a01b039091166004820152602401600060405180830381600087803b1580156106ef57600080fd5b505af1158015610703573d6000803e3d6000fd5b50505050816001600160a01b0316634141407c6107286000546001600160a01b031690565b6040516001600160e01b031960e084901b1681526001600160a01b039091166004820152602401600060405180830381600087803b15801561076957600080fd5b505af115801561077d573d6000803e3d6000fd5b5050505060005b61078c6114e7565b5181101561082857826001600160a01b031663c4b84df46107ac83610c7d565b6107b46114e7565b84815181106107c5576107c56135e5565b60200260200101516040518363ffffffff1660e01b81526004016107ea9291906135fb565b600060405180830381600087803b15801561080457600080fd5b505af1158015610818573d6000803e3d6000fd5b5050600190920191506107849050565b5060005b610834610ed1565b518110156108d057826001600160a01b031663c4b84df4610854836118c4565b61085c610ed1565b848151811061086d5761086d6135e5565b60200260200101516040518363ffffffff1660e01b81526004016108929291906135fb565b600060405180830381600087803b1580156108ac57600080fd5b505af11580156108c0573d6000803e3d6000fd5b50506001909201915061082c9050565b5050610991565b829050306001600160a01b0316816001600160a01b031663f77c47916040518163ffffffff1660e01b8152600401602060405180830381865afa158015610922573d6000803e3d6000fd5b505050506040513d601f19601f820116820180604052508101906109469190613614565b6001600160a01b0316146109915760405162461bcd60e51b815260206004820152601260248201527134b73b30b634b21031b7b73a3937b63632b960711b6044820152606401610507565b60405163ad3f5f9b60e01b81526001600160a01b0382169063ad3f5f9b906109bd9089906004016136af565b600060405180830381600087803b1580156109d757600080fd5b505af11580156109eb573d6000803e3d6000fd5b50505050610a0783868860200151896060015160800151611cfc565b505050505050565b336000818152600460205260408082208281556001810183905560028101839055600301829055517f8154b6c5e1fc90d44b49808ef93f9739148d0821411890f8cd684385e24b9f1e9190a2565b610a8a60405180608001604052806000815260200160008152602001600081526020016000151581525090565b506001600160a01b031660009081526005602090815260409182902082516080810184528154815260018201549281019290925260028101549282019290925260039091015460ff161515606082015290565b3360009081526004602052604090206002015415610b0e57604051633e43a9bf60e21b815260040160405180910390fd5b610b1d60066005338585611ed3565b5050565b3360009081526004602052604090206002015415610b5257604051633e43a9bf60e21b815260040160405180910390fd5b3360008181526005602052604090206003015460ff16610b85576040516366ecbd6d60e01b815260040160405180910390fd5b602082015182511115610bab57604051631956921d60e21b815260040160405180910390fd5b815160208301516202a30091610bc091613759565b1015610bdf576040516304be81c560e21b815260040160405180910390fd5b6001600160a01b03811660008181526003602090815260409182902085518082558683015160019092018290558351908152918201527f1846bde2c0888937a0a3af4e9b851b2e78758487d44a7ec04ae4bb3dc356b495910160405180910390a25050565b600082600081518110610c5957610c596135e5565b6020026020010151806020019051810190610c749190613614565b90505b92915050565b60408051600160208201526060918101829052600a608082015269414343455054414e434560b01b60a082015290810182905260009060c0015b60408051601f19818403018152919052805160209091012092915050565b6000466101441480610ce857504661012c145b15610e0457610dfd30837f01000083f30da117496892e53895c30802e6708d8cdbad6233c6d4ec63a96ebf610d256002546001600160a01b031690565b6040516001600160a01b03891660248201526044810188905230606482015260840160408051601f19818403018152918152602080830180516001600160e01b03166369359f3760e11b1790529051610d80939291016135c1565b60408051601f1981840301815282825280516020918201207f2020dba91b30cc0006188af794c2fb30dd8520db7e2c088b7fc7c103c00ca494848301526001600160a01b0396909616838301526060830194909452608082019290925260a0808201949094528151808203909401845260c0019052815191012090565b9050610c77565b610dfd8260405180602001610e1890612e4a565b601f1982820381018352601f90910116604052610e3d6002546001600160a01b031690565b6040516001600160a01b03881660248201526044810187905230606482015260840160408051601f19818403018152918152602080830180516001600160e01b03166369359f3760e11b1790529051610e98939291016135c1565b60408051601f1981840301815290829052610eb6929160200161376c565b604051602081830303815290604052805190602001206120b0565b60408051600180825281830190925260609160009190816020015b6060815260200190600190039081610eec57505060408051600f8082526102008201909252919250602082015b6060815260200190600190039081610f195790505081600081518110610f4157610f416135e5565b6020026020010181905250604051806040016040528060078152602001662932b1b7bb32b960c91b81525081600081518110610f7f57610f7f6135e5565b6020026020010151600081518110610f9957610f996135e5565b6020026020010181905250604051806040016040528060078152602001661858d8dbdd5b9d60ca1b81525081600081518110610fd757610fd76135e5565b6020026020010151600181518110610ff157610ff16135e5565b6020026020010181905250604051806040016040528060098152602001687b657468416464727d60b81b81525081600081518110611031576110316135e5565b602002602001015160028151811061104b5761104b6135e5565b60200260200101819052506040518060400160405280600481526020016366726f6d60e01b81525081600081518110611086576110866135e5565b60200260200101516003815181106110a0576110a06135e5565b6020026020010181905250604051806040016040528060038152602001621bdb1960ea1b815250816000815181106110da576110da6135e5565b60200260200101516004815181106110f4576110f46135e5565b60200260200101819052506040518060400160405280600581526020016437bbb732b960d91b81525081600081518110611130576111306135e5565b602002602001015160058151811061114a5761114a6135e5565b6020026020010181905250604051806040016040528060098152602001687b657468416464727d60b81b8152508160008151811061118a5761118a6135e5565b60200260200101516006815181106111a4576111a46135e5565b602002602001018190525060405180604001604052806002815260200161746f60f01b815250816000815181106111dd576111dd6135e5565b60200260200101516007815181106111f7576111f76135e5565b6020026020010181905250604051806040016040528060038152602001626e657760e81b81525081600081518110611231576112316135e5565b602002602001015160088151811061124b5761124b6135e5565b60200260200101819052506040518060400160405280600581526020016437bbb732b960d91b81525081600081518110611287576112876135e5565b60200260200101516009815181106112a1576112a16135e5565b6020026020010181905250604051806040016040528060098152602001687b657468416464727d60b81b815250816000815181106112e1576112e16135e5565b6020026020010151600a815181106112fb576112fb6135e5565b6020026020010181905250604051806040016040528060058152602001647573696e6760d81b81525081600081518110611337576113376135e5565b6020026020010151600b81518110611351576113516135e5565b6020026020010181905250604051806040016040528060088152602001677265636f7665727960c01b81525081600081518110611390576113906135e5565b6020026020010151600c815181106113aa576113aa6135e5565b6020026020010181905250604051806040016040528060068152602001656d6f64756c6560d01b815250816000815181106113e7576113e76135e5565b6020026020010151600d81518110611401576114016135e5565b6020026020010181905250604051806040016040528060098152602001687b657468416464727d60b81b81525081600081518110611441576114416135e5565b6020026020010151600e8151811061145b5761145b6135e5565b6020908102919091010152919050565b6114996040518060800160405280600081526020016000815260200160008152602001600080191681525090565b506001600160a01b0316600090815260046020908152604091829020825160808101845281548152600182015492810192909252600281015492820192909252600390910154606082015290565b60408051600180825281830190925260609160009190816020015b606081526020019060019003908161150257505060408051600580825260c08201909252919250602082015b606081526020019060019003908161152e5790505081600081518110611556576115566135e5565b6020026020010181905250604051806040016040528060068152602001651058d8d95c1d60d21b81525081600081518110611593576115936135e5565b60200260200101516000815181106115ad576115ad6135e5565b60200260200101819052506040518060400160405280600881526020016733bab0b93234b0b760c11b815250816000815181106115ec576115ec6135e5565b6020026020010151600181518110611606576116066135e5565b6020026020010181905250604051806040016040528060078152602001661c995c5d595cdd60ca1b81525081600081518110611644576116446135e5565b602002602001015160028151811061165e5761165e6135e5565b6020026020010181905250604051806040016040528060038152602001623337b960e91b81525081600081518110611698576116986135e5565b60200260200101516003815181106116b2576116b26135e5565b6020026020010181905250604051806040016040528060098152602001687b657468416464727d60b81b815250816000815181106116f2576116f26135e5565b602002602001015160048151811061145b5761145b6135e5565b336000818152600560205260409020600201541561173d5760405163b3af559360e01b815260040160405180910390fd5b604051632d9ad53d60e01b81523060048201526000906001600160a01b03831690632d9ad53d90602401602060405180830381865afa158015611784573d6000803e3d6000fd5b505050506040513d601f19601f820116820180604052508101906117a8919061379b565b9050806117c85760405163bfa7d2a960e01b815260040160405180910390fd5b86511580156117d657508551155b80156117e0575084155b15611810576001600160a01b0382166000908152600560205260409020600301805460ff1916600117905561181c565b61181c828888886120bd565b604080518082019091528481526020810184905261183981610b21565b826001600160a01b03167f82c25158c375970c4dff23edef514552a0af29e2600003f1053907583403a41a895160405161187591815260200190565b60405180910390a25050505050505050565b33600090815260046020526040902060020154156118b857604051633e43a9bf60e21b815260040160405180910390fd5b610444600533836120d3565b6000600182604051602001610cb79291906137b8565b336000908152600460205260409020600201541561190b57604051633e43a9bf60e21b815260040160405180910390fd5b6104446006600533846121c1565b6000611929836020015183610c44565b90506001600160a01b03811661197c5760405162461bcd60e51b81526020600482015260186024820152771a5b9d985b1a59081858d8dbdd5b9d081a5b88195b585a5b60421b6044820152606401610507565b600061199082856060015160a00151610cd5565b90506000816001600160a01b03163b116119ec5760405162461bcd60e51b815260206004820152601860248201527f677561726469616e206973206e6f74206465706c6f79656400000000000000006044820152606401610507565b6000600184604051602001611a029291906137b8565b60408051601f19818403018152919052805160209091012085519091508114611a635760405162461bcd60e51b81526020600482015260136024820152721a5b9d985b1a59081d195b5c1b185d19481a59606a1b6044820152606401610507565b60405163ad3f5f9b60e01b815282906001600160a01b0382169063ad3f5f9b90611a919089906004016136af565b600060405180830381600087803b158015611aab57600080fd5b505af1158015611abf573d6000803e3d6000fd5b50505050610a078386886020015189606001516080015161235b565b6001600160a01b038216611b025760405163200db56f60e11b815260040160405180910390fd5b6001600160a01b038216600081815260046020908152604080832081516080810183528154815260018201548185015260028083015482850152600390920154606082015294845260059092528220015490819003611b7457604051635337335b60e11b815260040160405180910390fd5b8082604001511015611b995760405163125e6df560e11b815260040160405180910390fd5b8151421015611bbb576040516364037fb760e11b815260040160405180910390fd5b81602001514210611bdf57604051634c2babb160e01b815260040160405180910390fd5b8251602084012060608301518114611c0a5760405163782b04ef60e11b815260040160405180910390fd5b6001600160a01b038516600081815260046020819052604080832083815560018101849055600281018490556003018390555163468721a760e01b815263468721a792611c5d928a928a918391016137eb565b6020604051808303816000875af1158015611c7c573d6000803e3d6000fd5b505050506040513d601f19601f82011682018060405250810190611ca0919061379b565b506040516001600160a01b038616907f46f5008939fa0b4beb46ae7f0e8368318bb72b56608910ca71c23e83382f609f90600090a25050505050565b6040805180820190915260008082526020820152610c746006848461273a565b8215611d1b57604051635abe71c960e01b815260040160405180910390fd5b8151600114611d3d576040516335d0eb9b60e21b815260040160405180910390fd5b600082600081518110611d5257611d526135e5565b6020026020010151806020019051810190611d6d9190613614565b6001600160a01b03811660009081526004602052604090206002015490915015611daa57604051633e43a9bf60e21b815260040160405180910390fd5b604051632d9ad53d60e01b81523060048201526000906001600160a01b03831690632d9ad53d90602401602060405180830381865afa158015611df1573d6000803e3d6000fd5b505050506040513d601f19601f82011682018060405250810190611e15919061379b565b905080611e355760405163bfa7d2a960e01b815260040160405180910390fd5b6000611e418388611cdc565b9050600181516002811115611e5857611e58613568565b14611e7c578051604051632b44da8d60e11b81526105079190600190600401613826565b611e8a60068489600261277a565b866001600160a01b0316836001600160a01b03167f442abc7a4ecd5a019ce3f9fa872ad2d87c094248c412954aaf8ccf7a538e938c60405160405180910390a350505050505050565b6001600160a01b03831660009081526020859052604090206003015460ff16611f0f5760405163ae69115b60e01b815260040160405180910390fd5b6001600160a01b0382161580611f365750826001600160a01b0316826001600160a01b0316145b15611f54576040516306c2041560e21b815260040160405180910390fd5b6001600160a01b0383166000908152602086905260408120611f769084612830565b9050600081516002811115611f8d57611f8d613568565b14611fab57604051637270b0a760e11b815260040160405180910390fd5b81600003611fcb5760405162a47bc760e51b815260040160405180910390fd5b61201583604051806040016040528060016002811115611fed57611fed613568565b815260209081018690526001600160a01b0388166000908152908a90526040902091906128a9565b506001600160a01b038416600090815260208690526040812080549161203a83613841565b90915550506001600160a01b0384166000908152602086905260408120600101805484929061206a90849061385a565b90915550506040516001600160a01b0380851691908616907fbfa6a31eca367cc9e6b3a8fcdbb3531a35038eeae19539b6d037eecad22fb75d90600090a3505050505050565b6000610c7483833061293a565b6120cd6005600686868686612964565b50505050565b6001600160a01b03821660009081526020849052604090206003015460ff1661210f5760405163ae69115b60e01b815260040160405180910390fd5b6001600160a01b03821660009081526020849052604090206001015481111561214b576040516338be24c560e11b815260040160405180910390fd5b8060000361216c57604051637a0920b360e11b815260040160405180910390fd5b6001600160a01b0382166000818152602085815260409182902060020184905590518381527fde3e32a86d32ca955594af26f515d3dc60003ab279776b14b4012fe99d96f8f6910160405180910390a2505050565b6001600160a01b03821660008181526020858152604080832081516080810183528154815260018201548185015260028201548184015260039091015460ff161515606082015293835290879052812061221b9084612830565b90506000808251600281111561223357612233613568565b14159050806122555760405163e4c3248f60e01b815260040160405180910390fd5b82604001518260200151846020015161226e9190613759565b101561228d576040516338be24c560e11b815260040160405180910390fd5b6001600160a01b03851660009081526020889052604090206122af9085612ba7565b506001600160a01b03851660009081526020879052604081208054916122d48361386d565b91905055508160200151866000876001600160a01b03166001600160a01b0316815260200190815260200160002060010160008282546123149190613759565b90915550506040516001600160a01b0380861691908716907f981a91b410043292df0c420e4331b3741aa112608bbd4f7e704295e600684cea90600090a350505050505050565b821561237a57604051635abe71c960e01b815260040160405180910390fd5b815160041461239c576040516335d0eb9b60e21b815260040160405180910390fd5b6000826000815181106123b1576123b16135e5565b60200260200101518060200190518101906123cc9190613614565b90506000836001815181106123e3576123e36135e5565b60200260200101518060200190518101906123fe9190613614565b9050600084600281518110612415576124156135e5565b60200260200101518060200190518101906124309190613614565b604051632d9ad53d60e01b81523060048201529091506000906001600160a01b03851690632d9ad53d90602401602060405180830381865afa15801561247a573d6000803e3d6000fd5b505050506040513d601f19601f8201168201806040525081019061249e919061379b565b9050806124be5760405163bfa7d2a960e01b815260040160405180910390fd5b60006124ca858a611cdc565b90506002815160028111156124e1576124e1613568565b14612505578051604051632b44da8d60e11b81526105079190600290600401613826565b6040516317aa5fb760e11b81526001600160a01b03858116600483015260009190871690632f54bf6e90602401602060405180830381865afa15801561254f573d6000803e3d6000fd5b505050506040513d601f19601f82011682018060405250810190612573919061379b565b905080612593576040516354d5934960e11b815260040160405180910390fd5b6001600160a01b0384166125ba57604051632a52b3c360e11b815260040160405180910390fd5b60006125c68787612bd9565b6040516001600160a01b03808316602483015280891660448301528716606482015290915060009060840160408051601f19818403018152918152602080830180516001600160e01b031663e318b52b60e01b178152835190206001600160a01b038c166000908152600483529283209188015160028301805495965091949293909261265490849061385a565b90915550506001600160a01b038a166000908152600560205260409020600290810154908201548111612729576001600160a01b038b166000908152600360205260408120546126a4904261385a565b6001600160a01b038d16600090815260036020526040812060010154919250906126ce904261385a565b828555600185018190556003850186905560408051848152602081018390529192506001600160a01b038f16917fdd23b733c956af035d7a9c923638da863325c9cfcbb53ed39e174aeb4dd26a85910160405180910390a250505b505050505050505050505050505050565b60408051808201909152600080825260208201526001600160a01b03831660009081526020859052604090206127709083612830565b90505b9392505050565b6001600160a01b038316600090815260208590526040812061279c9084612830565b805190915060028111156127b2576127b2613568565b8260028111156127c4576127c4613568565b036127e25760405163115e823f60e01b815260040160405180910390fd5b610a0783604051806040016040528085600281111561280357612803613568565b8152602085810151918101919091526001600160a01b0388166000908152908990526040902091906128a9565b60408051808201909152600080825260208201526001600160a01b03821660009081526002808501602052604091829020825180840190935280549091839160ff169081111561288257612882613568565b600281111561289357612893613568565b8152602001600182015481525050905092915050565b6000806128b585612cd4565b9050602081106128d85760405163bb6c1e9360e01b815260040160405180910390fd5b6001600160a01b038416600090815260028087016020526040909120845181548693839160ff191690600190849081111561291557612915613568565b0217905550602091909101516001909101556129318585612cde565b95945050505050565b6000604051836040820152846020820152828152600b8101905060ff815360559020949350505050565b8251825181146129875760405163f4a950ef60e01b815260040160405180910390fd5b816000036129a857604051637a0920b360e11b815260040160405180910390fd5b6000805b82811015612b1d5760008682815181106129c8576129c86135e5565b6020026020010151905060008683815181106129e6576129e66135e5565b6020026020010151905060006001600160a01b0316826001600160a01b03161480612a225750886001600160a01b0316826001600160a01b0316145b15612a40576040516306c2041560e21b815260040160405180910390fd5b80600003612a605760405162a47bc760e51b815260040160405180910390fd5b6001600160a01b038916600090815260208b905260408120612a829084612830565b9050600081516002811115612a9957612a99613568565b14612ab757604051637270b0a760e11b815260040160405180910390fd5b612b0183604051806040016040528060016002811115612ad957612ad9613568565b815260209081018690526001600160a01b038e166000908152908f90526040902091906128a9565b50612b0c828661385a565b945050600190920191506129ac9050565b5080831115612b3f576040516338be24c560e11b815260040160405180910390fd5b6040805160808101825292835260208084019283528382019485526001606085018181526001600160a01b039990991660009081529a90915298209151825551968101969096555160028601555050516003909201805460ff19169215159290921790915550565b6001600160a01b03811660009081526002830160205260408120805460ff19168155600101819055610c748383612cf3565b600080836001600160a01b031663a0e67e2b6040518163ffffffff1660e01b8152600401600060405180830381865afa158015612c1a573d6000803e3d6000fd5b505050506040513d6000823e601f3d908101601f19168201604052612c429190810190613884565b80519091506000805b82811015612c9557856001600160a01b0316848281518110612c6f57612c6f6135e5565b60200260200101516001600160a01b031603612c8d57809150612c95565b600101612c4b565b5060018115612cc75783612caa600184613759565b81518110612cba57612cba6135e5565b6020026020010151612cc9565b805b979650505050505050565b6000610c77825490565b6000610c74836001600160a01b038416612d08565b6000610c74836001600160a01b038416612d57565b6000818152600183016020526040812054612d4f57508154600181810184556000848152602080822090930184905584548482528286019093526040902091909155610c77565b506000610c77565b60008181526001830160205260408120548015612e40576000612d7b600183613759565b8554909150600090612d8f90600190613759565b9050808214612df4576000866000018281548110612daf57612daf6135e5565b9060005260206000200154905080876000018481548110612dd257612dd26135e5565b6000918252602080832090910192909255918252600188019052604090208390555b8554869080612e0557612e05613913565b600190038181906000526020600020016000905590558560010160008681526020019081526020016000206000905560019350505050610c77565b6000915050610c77565b61040a8061392a83390190565b634e487b7160e01b600052604160045260246000fd5b6040516080810167ffffffffffffffff81118282101715612e9057612e90612e57565b60405290565b604051610100810167ffffffffffffffff81118282101715612e9057612e90612e57565b604051601f8201601f1916810167ffffffffffffffff81118282101715612ee357612ee3612e57565b604052919050565b600067ffffffffffffffff821115612f0557612f05612e57565b5060051b60200190565b600082601f830112612f2057600080fd5b813567ffffffffffffffff811115612f3a57612f3a612e57565b612f4d601f8201601f1916602001612eba565b818152846020838601011115612f6257600080fd5b816020850160208301376000918101602001919091529392505050565b600082601f830112612f9057600080fd5b81356020612fa5612fa083612eeb565b612eba565b82815260059290921b84018101918181019086841115612fc457600080fd5b8286015b8481101561300457803567ffffffffffffffff811115612fe85760008081fd5b612ff68986838b0101612f0f565b845250918301918301612fc8565b509695505050505050565b801515811461044457600080fd5b80356130288161300f565b919050565b6000806040838503121561304057600080fd5b823567ffffffffffffffff8082111561305857600080fd5b908401906080828703121561306c57600080fd5b613074612e6d565b8235815260208301358281111561308a57600080fd5b61309688828601612f7f565b602083015250604083013560408201526060830135828111156130b857600080fd5b929092019161010083880312156130ce57600080fd5b6130d6612e96565b8335838111156130e557600080fd5b6130f189828701612f0f565b825250602084013560208201526040840135604082015260608401358381111561311a57600080fd5b61312689828701612f0f565b6060830152506080840135608082015260a084013560a082015261314c60c0850161301d565b60c082015260e08401358381111561316357600080fd5b61316f89828701612f0f565b60e08301525060608201529660209590950135955050505050565b6001600160a01b038116811461044457600080fd5b6000602082840312156131b157600080fd5b81356127738161318a565b600080604083850312156131cf57600080fd5b82356131da8161318a565b946020939093013593505050565b6000604082840312156131fa57600080fd5b6040516040810181811067ffffffffffffffff8211171561321d5761321d612e57565b604052823581526020928301359281019290925250919050565b6000806040838503121561324a57600080fd5b823567ffffffffffffffff81111561326157600080fd5b61326d85828601612f7f565b95602094909401359450505050565b60006020828403121561328e57600080fd5b5035919050565b60005b838110156132b0578181015183820152602001613298565b50506000910152565b600081518084526132d1816020860160208601613295565b601f01601f19169290920160200192915050565b60008282518085526020808601955060208260051b8401016020860160005b8481101561333257601f198684030189526133208383516132b9565b98840198925090830190600101613304565b5090979650505050505050565b600060208083016020845280855180835260408601915060408160051b87010192506020870160005b8281101561339657603f198886030184526133848583516132e5565b94509285019290850190600101613368565b5092979650505050505050565b600082601f8301126133b457600080fd5b813560206133c4612fa083612eeb565b8083825260208201915060208460051b8701019350868411156133e657600080fd5b602086015b8481101561300457803583529183019183016133eb565b600080600080600060a0868803121561341a57600080fd5b853567ffffffffffffffff8082111561343257600080fd5b818801915088601f83011261344657600080fd5b81356020613456612fa083612eeb565b82815260059290921b8401810191818101908c84111561347557600080fd5b948201945b8386101561349c57853561348d8161318a565b8252948201949082019061347a565b995050890135925050808211156134b257600080fd5b506134bf888289016133a3565b959895975050505060408401359360608101359360809091013592509050565b600080604083850312156134f257600080fd5b82356134fd8161318a565b9150602083013567ffffffffffffffff81111561351957600080fd5b61352585828601612f0f565b9150509250929050565b6000806040838503121561354257600080fd5b823561354d8161318a565b9150602083013561355d8161318a565b809150509250929050565b634e487b7160e01b600052602160045260246000fd5b6003811061359c57634e487b7160e01b600052602160045260246000fd5b9052565b60006040820190506135b382845161357e565b602092830151919092015290565b6001600160a01b0383168152604060208201819052600090612770908301846132b9565b634e487b7160e01b600052603260045260246000fd5b82815260406020820152600061277060408301846132e5565b60006020828403121561362657600080fd5b81516127738161318a565b60006101008251818552613647828601826132b9565b91505060208301516020850152604083015160408501526060830151848203606086015261367582826132b9565b9150506080830151608085015260a083015160a085015260c0830151151560c085015260e083015184820360e086015261293182826132b9565b6000602080835260a08301845182850152818501516080604086015281815180845260c08701915060c08160051b8801019350848301925060005b818110156137185760bf198886030183526137068585516132b9565b945092850192918501916001016136ea565b505050506040850151606085015260608501519150601f198482030160808501526129318183613631565b634e487b7160e01b600052601160045260246000fd5b81810381811115610c7757610c77613743565b6000835161377e818460208801613295565b835190830190613792818360208801613295565b01949350505050565b6000602082840312156137ad57600080fd5b81516127738161300f565b60ff929092168252606060208301819052600890830152675245434f5645525960c01b6080830152604082015260a00190565b60018060a01b038516815283602082015260806040820152600061381260808301856132b9565b905060ff8316606083015295945050505050565b60408101613834828561357e565b612773602083018461357e565b60006001820161385357613853613743565b5060010190565b80820180821115610c7757610c77613743565b60008161387c5761387c613743565b506000190190565b6000602080838503121561389757600080fd5b825167ffffffffffffffff8111156138ae57600080fd5b8301601f810185136138bf57600080fd5b80516138cd612fa082612eeb565b81815260059190911b820183019083810190878311156138ec57600080fd5b928401925b82841015612cc95783516139048161318a565b825292840192908401906138f1565b634e487b7160e01b600052603160045260246000fdfe608060405260405161040a38038061040a83398101604081905261002291610268565b61002c8282610033565b5050610352565b61003c82610092565b6040516001600160a01b038316907fbc7cd75a20ee27fd9adebab32041f755214dbc6bffa90cc0225b39da2e5c2d3b90600090a280511561008657610081828261010e565b505050565b61008e610185565b5050565b806001600160a01b03163b6000036100cd57604051634c9c8ce360e01b81526001600160a01b03821660048201526024015b60405180910390fd5b7f360894a13ba1a3210667c828492db98dca3e2076cc3735a920a3ca505d382bbc80546001600160a01b0319166001600160a01b0392909216919091179055565b6060600080846001600160a01b03168460405161012b9190610336565b600060405180830381855af49150503d8060008114610166576040519150601f19603f3d011682016040523d82523d6000602084013e61016b565b606091505b50909250905061017c8583836101a6565b95945050505050565b34156101a45760405163b398979f60e01b815260040160405180910390fd5b565b6060826101bb576101b682610205565b6101fe565b81511580156101d257506001600160a01b0384163b155b156101fb57604051639996b31560e01b81526001600160a01b03851660048201526024016100c4565b50805b9392505050565b8051156102155780518082602001fd5b604051630a12f52160e11b815260040160405180910390fd5b634e487b7160e01b600052604160045260246000fd5b60005b8381101561025f578181015183820152602001610247565b50506000910152565b6000806040838503121561027b57600080fd5b82516001600160a01b038116811461029257600080fd5b60208401519092506001600160401b03808211156102af57600080fd5b818501915085601f8301126102c357600080fd5b8151818111156102d5576102d561022e565b604051601f8201601f19908116603f011681019083821181831017156102fd576102fd61022e565b8160405282815288602084870101111561031657600080fd5b610327836020830160208801610244565b80955050505050509250929050565b60008251610348818460208701610244565b9190910192915050565b60aa806103606000396000f3fe6080604052600a600c565b005b60186014601a565b6051565b565b6000604c7f360894a13ba1a3210667c828492db98dca3e2076cc3735a920a3ca505d382bbc546001600160a01b031690565b905090565b3660008037600080366000845af43d6000803e808015606f573d6000f35b3d6000fdfea2646970667358221220ad6f0b7de89168597415484af490bd6f072c08995292ebdcdd2b1aa8f93c503664736f6c63430008190033a2646970667358221220c3d5fc0cf9b41df98db0a27dd45b9f6815dfe7d33788215200fafceb976d677664736f6c63430008190033","linkReferences":{}},"methodIdentifiers":{"MINIMUM_RECOVERY_WINDOW()":"99150680","acceptanceSubjectTemplates()":"5bafadda","addGuardian(address,uint256)":"111e5313","cancelRecovery()":"0ba234d6","changeThreshold(uint256)":"694e80c3","completeRecovery(address,bytes)":"c18d09cf","computeAcceptanceTemplateId(uint256)":"32ccc2f2","computeEmailAuthAddress(address,bytes32)":"3a8eab14","computeRecoveryTemplateId(uint256)":"6da99515","configureRecovery(address[],uint256[],uint256,uint256,uint256)":"60bb9d5c","deInitRecoveryFromModule(address)":"7dbcfcb9","dkim()":"400ad5ce","dkimAddr()":"73357f85","emailAuthImplementation()":"b6201692","emailAuthImplementationAddr()":"1098e02e","extractRecoveredAccountFromAcceptanceSubject(bytes[],uint256)":"e81dcaf2","extractRecoveredAccountFromRecoverySubject(bytes[],uint256)":"30e6a5ab","getGuardian(address,address)":"da34a850","getGuardianConfig(address)":"0bb6094a","getRecoveryConfig(address)":"2788bbda","getRecoveryRequest(address)":"4f9a28b9","handleAcceptance((uint256,bytes[],uint256,(string,bytes32,uint256,string,bytes32,bytes32,bool,bytes)),uint256)":"0481af67","handleRecovery((uint256,bytes[],uint256,(string,bytes32,uint256,string,bytes32,bytes32,bool,bytes)),uint256)":"b68126fa","recoverySubjectTemplates()":"3e91cdcd","removeGuardian(address)":"71404156","updateRecoveryConfig((uint256,uint256))":"1788178f","verifier()":"2b7ac3f3","verifierAddr()":"663ea2e2"},"id":276}