{
  "abi": [
    {
      "type": "constructor",
      "inputs": [
        {
          "name": "verifier",
          "type": "address",
          "internalType": "address"
        },
        {
          "name": "dkimRegistry",
          "type": "address",
          "internalType": "address"
        },
        {
          "name": "emailAuthImpl",
          "type": "address",
          "internalType": "address"
        },
        {
          "name": "commandHandler",
          "type": "address",
          "internalType": "address"
        }
      ],
      "stateMutability": "nonpayable"
    },
    {
      "type": "function",
      "name": "MAX_VALIDATORS",
      "inputs": [],
      "outputs": [
        {
          "name": "",
          "type": "uint256",
          "internalType": "uint256"
        }
      ],
      "stateMutability": "view"
    },
    {
      "type": "function",
      "name": "MINIMUM_RECOVERY_WINDOW",
      "inputs": [],
      "outputs": [
        {
          "name": "",
          "type": "uint256",
          "internalType": "uint256"
        }
      ],
      "stateMutability": "view"
    },
    {
      "type": "function",
      "name": "acceptanceCommandTemplates",
      "inputs": [],
      "outputs": [
        {
          "name": "",
          "type": "string[][]",
          "internalType": "string[][]"
        }
      ],
      "stateMutability": "view"
    },
    {
      "type": "function",
      "name": "addGuardian",
      "inputs": [
        {
          "name": "guardian",
          "type": "address",
          "internalType": "address"
        },
        {
          "name": "weight",
          "type": "uint256",
          "internalType": "uint256"
        }
      ],
      "outputs": [],
      "stateMutability": "nonpayable"
    },
    {
      "type": "function",
      "name": "allowValidatorRecovery",
      "inputs": [
        {
          "name": "validator",
          "type": "address",
          "internalType": "address"
        },
        {
          "name": "isInstalledContext",
          "type": "bytes",
          "internalType": "bytes"
        },
        {
          "name": "recoverySelector",
          "type": "bytes4",
          "internalType": "bytes4"
        }
      ],
      "outputs": [],
      "stateMutability": "nonpayable"
    },
    {
      "type": "function",
      "name": "canStartRecoveryRequest",
      "inputs": [
        {
          "name": "account",
          "type": "address",
          "internalType": "address"
        },
        {
          "name": "validator",
          "type": "address",
          "internalType": "address"
        }
      ],
      "outputs": [
        {
          "name": "",
          "type": "bool",
          "internalType": "bool"
        }
      ],
      "stateMutability": "view"
    },
    {
      "type": "function",
      "name": "cancelExpiredRecovery",
      "inputs": [
        {
          "name": "account",
          "type": "address",
          "internalType": "address"
        }
      ],
      "outputs": [],
      "stateMutability": "nonpayable"
    },
    {
      "type": "function",
      "name": "cancelRecovery",
      "inputs": [],
      "outputs": [],
      "stateMutability": "nonpayable"
    },
    {
      "type": "function",
      "name": "changeThreshold",
      "inputs": [
        {
          "name": "threshold",
          "type": "uint256",
          "internalType": "uint256"
        }
      ],
      "outputs": [],
      "stateMutability": "nonpayable"
    },
    {
      "type": "function",
      "name": "commandHandler",
      "inputs": [],
      "outputs": [
        {
          "name": "",
          "type": "address",
          "internalType": "address"
        }
      ],
      "stateMutability": "view"
    },
    {
      "type": "function",
      "name": "completeRecovery",
      "inputs": [
        {
          "name": "account",
          "type": "address",
          "internalType": "address"
        },
        {
          "name": "recoveryData",
          "type": "bytes",
          "internalType": "bytes"
        }
      ],
      "outputs": [],
      "stateMutability": "nonpayable"
    },
    {
      "type": "function",
      "name": "computeAcceptanceTemplateId",
      "inputs": [
        {
          "name": "templateIdx",
          "type": "uint256",
          "internalType": "uint256"
        }
      ],
      "outputs": [
        {
          "name": "",
          "type": "uint256",
          "internalType": "uint256"
        }
      ],
      "stateMutability": "pure"
    },
    {
      "type": "function",
      "name": "computeEmailAuthAddress",
      "inputs": [
        {
          "name": "recoveredAccount",
          "type": "address",
          "internalType": "address"
        },
        {
          "name": "accountSalt",
          "type": "bytes32",
          "internalType": "bytes32"
        }
      ],
      "outputs": [
        {
          "name": "",
          "type": "address",
          "internalType": "address"
        }
      ],
      "stateMutability": "view"
    },
    {
      "type": "function",
      "name": "computeRecoveryTemplateId",
      "inputs": [
        {
          "name": "templateIdx",
          "type": "uint256",
          "internalType": "uint256"
        }
      ],
      "outputs": [
        {
          "name": "",
          "type": "uint256",
          "internalType": "uint256"
        }
      ],
      "stateMutability": "pure"
    },
    {
      "type": "function",
      "name": "disallowValidatorRecovery",
      "inputs": [
        {
          "name": "validator",
          "type": "address",
          "internalType": "address"
        },
        {
          "name": "prevValidator",
          "type": "address",
          "internalType": "address"
        },
        {
          "name": "recoverySelector",
          "type": "bytes4",
          "internalType": "bytes4"
        }
      ],
      "outputs": [],
      "stateMutability": "nonpayable"
    },
    {
      "type": "function",
      "name": "dkim",
      "inputs": [],
      "outputs": [
        {
          "name": "",
          "type": "address",
          "internalType": "address"
        }
      ],
      "stateMutability": "view"
    },
    {
      "type": "function",
      "name": "dkimAddr",
      "inputs": [],
      "outputs": [
        {
          "name": "",
          "type": "address",
          "internalType": "address"
        }
      ],
      "stateMutability": "view"
    },
    {
      "type": "function",
      "name": "emailAuthImplementation",
      "inputs": [],
      "outputs": [
        {
          "name": "",
          "type": "address",
          "internalType": "address"
        }
      ],
      "stateMutability": "view"
    },
    {
      "type": "function",
      "name": "emailAuthImplementationAddr",
      "inputs": [],
      "outputs": [
        {
          "name": "",
          "type": "address",
          "internalType": "address"
        }
      ],
      "stateMutability": "view"
    },
    {
      "type": "function",
      "name": "extractRecoveredAccountFromAcceptanceCommand",
      "inputs": [
        {
          "name": "commandParams",
          "type": "bytes[]",
          "internalType": "bytes[]"
        },
        {
          "name": "templateIdx",
          "type": "uint256",
          "internalType": "uint256"
        }
      ],
      "outputs": [
        {
          "name": "",
          "type": "address",
          "internalType": "address"
        }
      ],
      "stateMutability": "view"
    },
    {
      "type": "function",
      "name": "extractRecoveredAccountFromRecoveryCommand",
      "inputs": [
        {
          "name": "commandParams",
          "type": "bytes[]",
          "internalType": "bytes[]"
        },
        {
          "name": "templateIdx",
          "type": "uint256",
          "internalType": "uint256"
        }
      ],
      "outputs": [
        {
          "name": "",
          "type": "address",
          "internalType": "address"
        }
      ],
      "stateMutability": "view"
    },
    {
      "type": "function",
      "name": "getAllowedSelectors",
      "inputs": [
        {
          "name": "account",
          "type": "address",
          "internalType": "address"
        }
      ],
      "outputs": [
        {
          "name": "",
          "type": "bytes4[]",
          "internalType": "bytes4[]"
        }
      ],
      "stateMutability": "view"
    },
    {
      "type": "function",
      "name": "getAllowedValidators",
      "inputs": [
        {
          "name": "account",
          "type": "address",
          "internalType": "address"
        }
      ],
      "outputs": [
        {
          "name": "",
          "type": "address[]",
          "internalType": "address[]"
        }
      ],
      "stateMutability": "view"
    },
    {
      "type": "function",
      "name": "getGuardian",
      "inputs": [
        {
          "name": "account",
          "type": "address",
          "internalType": "address"
        },
        {
          "name": "guardian",
          "type": "address",
          "internalType": "address"
        }
      ],
      "outputs": [
        {
          "name": "",
          "type": "tuple",
          "internalType": "struct GuardianStorage",
          "components": [
            {
              "name": "status",
              "type": "uint8",
              "internalType": "enum GuardianStatus"
            },
            {
              "name": "weight",
              "type": "uint256",
              "internalType": "uint256"
            }
          ]
        }
      ],
      "stateMutability": "view"
    },
    {
      "type": "function",
      "name": "getGuardianConfig",
      "inputs": [
        {
          "name": "account",
          "type": "address",
          "internalType": "address"
        }
      ],
      "outputs": [
        {
          "name": "",
          "type": "tuple",
          "internalType": "struct IGuardianManager.GuardianConfig",
          "components": [
            {
              "name": "guardianCount",
              "type": "uint256",
              "internalType": "uint256"
            },
            {
              "name": "totalWeight",
              "type": "uint256",
              "internalType": "uint256"
            },
            {
              "name": "acceptedWeight",
              "type": "uint256",
              "internalType": "uint256"
            },
            {
              "name": "threshold",
              "type": "uint256",
              "internalType": "uint256"
            }
          ]
        }
      ],
      "stateMutability": "view"
    },
    {
      "type": "function",
      "name": "getRecoveryConfig",
      "inputs": [
        {
          "name": "account",
          "type": "address",
          "internalType": "address"
        }
      ],
      "outputs": [
        {
          "name": "",
          "type": "tuple",
          "internalType": "struct IEmailRecoveryManager.RecoveryConfig",
          "components": [
            {
              "name": "delay",
              "type": "uint256",
              "internalType": "uint256"
            },
            {
              "name": "expiry",
              "type": "uint256",
              "internalType": "uint256"
            }
          ]
        }
      ],
      "stateMutability": "view"
    },
    {
      "type": "function",
      "name": "getRecoveryRequest",
      "inputs": [
        {
          "name": "account",
          "type": "address",
          "internalType": "address"
        }
      ],
      "outputs": [
        {
          "name": "",
          "type": "tuple",
          "internalType": "struct IEmailRecoveryManager.RecoveryRequest",
          "components": [
            {
              "name": "executeAfter",
              "type": "uint256",
              "internalType": "uint256"
            },
            {
              "name": "executeBefore",
              "type": "uint256",
              "internalType": "uint256"
            },
            {
              "name": "currentWeight",
              "type": "uint256",
              "internalType": "uint256"
            },
            {
              "name": "recoveryDataHash",
              "type": "bytes32",
              "internalType": "bytes32"
            }
          ]
        }
      ],
      "stateMutability": "view"
    },
    {
      "type": "function",
      "name": "handleAcceptance",
      "inputs": [
        {
          "name": "emailAuthMsg",
          "type": "tuple",
          "internalType": "struct EmailAuthMsg",
          "components": [
            {
              "name": "templateId",
              "type": "uint256",
              "internalType": "uint256"
            },
            {
              "name": "commandParams",
              "type": "bytes[]",
              "internalType": "bytes[]"
            },
            {
              "name": "skippedCommandPrefix",
              "type": "uint256",
              "internalType": "uint256"
            },
            {
              "name": "proof",
              "type": "tuple",
              "internalType": "struct EmailProof",
              "components": [
                {
                  "name": "domainName",
                  "type": "string",
                  "internalType": "string"
                },
                {
                  "name": "publicKeyHash",
                  "type": "bytes32",
                  "internalType": "bytes32"
                },
                {
                  "name": "timestamp",
                  "type": "uint256",
                  "internalType": "uint256"
                },
                {
                  "name": "maskedCommand",
                  "type": "string",
                  "internalType": "string"
                },
                {
                  "name": "emailNullifier",
                  "type": "bytes32",
                  "internalType": "bytes32"
                },
                {
                  "name": "accountSalt",
                  "type": "bytes32",
                  "internalType": "bytes32"
                },
                {
                  "name": "isCodeExist",
                  "type": "bool",
                  "internalType": "bool"
                },
                {
                  "name": "proof",
                  "type": "bytes",
                  "internalType": "bytes"
                }
              ]
            }
          ]
        },
        {
          "name": "templateIdx",
          "type": "uint256",
          "internalType": "uint256"
        }
      ],
      "outputs": [],
      "stateMutability": "nonpayable"
    },
    {
      "type": "function",
      "name": "handleRecovery",
      "inputs": [
        {
          "name": "emailAuthMsg",
          "type": "tuple",
          "internalType": "struct EmailAuthMsg",
          "components": [
            {
              "name": "templateId",
              "type": "uint256",
              "internalType": "uint256"
            },
            {
              "name": "commandParams",
              "type": "bytes[]",
              "internalType": "bytes[]"
            },
            {
              "name": "skippedCommandPrefix",
              "type": "uint256",
              "internalType": "uint256"
            },
            {
              "name": "proof",
              "type": "tuple",
              "internalType": "struct EmailProof",
              "components": [
                {
                  "name": "domainName",
                  "type": "string",
                  "internalType": "string"
                },
                {
                  "name": "publicKeyHash",
                  "type": "bytes32",
                  "internalType": "bytes32"
                },
                {
                  "name": "timestamp",
                  "type": "uint256",
                  "internalType": "uint256"
                },
                {
                  "name": "maskedCommand",
                  "type": "string",
                  "internalType": "string"
                },
                {
                  "name": "emailNullifier",
                  "type": "bytes32",
                  "internalType": "bytes32"
                },
                {
                  "name": "accountSalt",
                  "type": "bytes32",
                  "internalType": "bytes32"
                },
                {
                  "name": "isCodeExist",
                  "type": "bool",
                  "internalType": "bool"
                },
                {
                  "name": "proof",
                  "type": "bytes",
                  "internalType": "bytes"
                }
              ]
            }
          ]
        },
        {
          "name": "templateIdx",
          "type": "uint256",
          "internalType": "uint256"
        }
      ],
      "outputs": [],
      "stateMutability": "nonpayable"
    },
    {
      "type": "function",
      "name": "isActivated",
      "inputs": [
        {
          "name": "account",
          "type": "address",
          "internalType": "address"
        }
      ],
      "outputs": [
        {
          "name": "",
          "type": "bool",
          "internalType": "bool"
        }
      ],
      "stateMutability": "view"
    },
    {
      "type": "function",
      "name": "isInitialized",
      "inputs": [
        {
          "name": "account",
          "type": "address",
          "internalType": "address"
        }
      ],
      "outputs": [
        {
          "name": "",
          "type": "bool",
          "internalType": "bool"
        }
      ],
      "stateMutability": "view"
    },
    {
      "type": "function",
      "name": "isModuleType",
      "inputs": [
        {
          "name": "typeID",
          "type": "uint256",
          "internalType": "uint256"
        }
      ],
      "outputs": [
        {
          "name": "",
          "type": "bool",
          "internalType": "bool"
        }
      ],
      "stateMutability": "pure"
    },
    {
      "type": "function",
      "name": "name",
      "inputs": [],
      "outputs": [
        {
          "name": "",
          "type": "string",
          "internalType": "string"
        }
      ],
      "stateMutability": "pure"
    },
    {
      "type": "function",
      "name": "onInstall",
      "inputs": [
        {
          "name": "data",
          "type": "bytes",
          "internalType": "bytes"
        }
      ],
      "outputs": [],
      "stateMutability": "nonpayable"
    },
    {
      "type": "function",
      "name": "onUninstall",
      "inputs": [
        {
          "name": "",
          "type": "bytes",
          "internalType": "bytes"
        }
      ],
      "outputs": [],
      "stateMutability": "nonpayable"
    },
    {
      "type": "function",
      "name": "recoveryCommandTemplates",
      "inputs": [],
      "outputs": [
        {
          "name": "",
          "type": "string[][]",
          "internalType": "string[][]"
        }
      ],
      "stateMutability": "view"
    },
    {
      "type": "function",
      "name": "removeGuardian",
      "inputs": [
        {
          "name": "guardian",
          "type": "address",
          "internalType": "address"
        }
      ],
      "outputs": [],
      "stateMutability": "nonpayable"
    },
    {
      "type": "function",
      "name": "updateRecoveryConfig",
      "inputs": [
        {
          "name": "recoveryConfig",
          "type": "tuple",
          "internalType": "struct IEmailRecoveryManager.RecoveryConfig",
          "components": [
            {
              "name": "delay",
              "type": "uint256",
              "internalType": "uint256"
            },
            {
              "name": "expiry",
              "type": "uint256",
              "internalType": "uint256"
            }
          ]
        }
      ],
      "outputs": [],
      "stateMutability": "nonpayable"
    },
    {
      "type": "function",
      "name": "validatorCount",
      "inputs": [
        {
          "name": "account",
          "type": "address",
          "internalType": "address"
        }
      ],
      "outputs": [
        {
          "name": "count",
          "type": "uint256",
          "internalType": "uint256"
        }
      ],
      "stateMutability": "view"
    },
    {
      "type": "function",
      "name": "verifier",
      "inputs": [],
      "outputs": [
        {
          "name": "",
          "type": "address",
          "internalType": "address"
        }
      ],
      "stateMutability": "view"
    },
    {
      "type": "function",
      "name": "verifierAddr",
      "inputs": [],
      "outputs": [
        {
          "name": "",
          "type": "address",
          "internalType": "address"
        }
      ],
      "stateMutability": "view"
    },
    {
      "type": "function",
      "name": "version",
      "inputs": [],
      "outputs": [
        {
          "name": "",
          "type": "string",
          "internalType": "string"
        }
      ],
      "stateMutability": "pure"
    },
    {
      "type": "event",
      "name": "AddedGuardian",
      "inputs": [
        {
          "name": "account",
          "type": "address",
          "indexed": true,
          "internalType": "address"
        },
        {
          "name": "guardian",
          "type": "address",
          "indexed": true,
          "internalType": "address"
        },
        {
          "name": "weight",
          "type": "uint256",
          "indexed": false,
          "internalType": "uint256"
        }
      ],
      "anonymous": false
    },
    {
      "type": "event",
      "name": "ChangedThreshold",
      "inputs": [
        {
          "name": "account",
          "type": "address",
          "indexed": true,
          "internalType": "address"
        },
        {
          "name": "threshold",
          "type": "uint256",
          "indexed": false,
          "internalType": "uint256"
        }
      ],
      "anonymous": false
    },
    {
      "type": "event",
      "name": "GuardianAccepted",
      "inputs": [
        {
          "name": "account",
          "type": "address",
          "indexed": true,
          "internalType": "address"
        },
        {
          "name": "guardian",
          "type": "address",
          "indexed": true,
          "internalType": "address"
        }
      ],
      "anonymous": false
    },
    {
      "type": "event",
      "name": "GuardianStatusUpdated",
      "inputs": [
        {
          "name": "account",
          "type": "address",
          "indexed": true,
          "internalType": "address"
        },
        {
          "name": "guardian",
          "type": "address",
          "indexed": true,
          "internalType": "address"
        },
        {
          "name": "newStatus",
          "type": "uint8",
          "indexed": false,
          "internalType": "enum GuardianStatus"
        }
      ],
      "anonymous": false
    },
    {
      "type": "event",
      "name": "NewValidatorRecovery",
      "inputs": [
        {
          "name": "account",
          "type": "address",
          "indexed": true,
          "internalType": "address"
        },
        {
          "name": "validator",
          "type": "address",
          "indexed": true,
          "internalType": "address"
        },
        {
          "name": "recoverySelector",
          "type": "bytes4",
          "indexed": false,
          "internalType": "bytes4"
        }
      ],
      "anonymous": false
    },
    {
      "type": "event",
      "name": "RecoveryCancelled",
      "inputs": [
        {
          "name": "account",
          "type": "address",
          "indexed": true,
          "internalType": "address"
        }
      ],
      "anonymous": false
    },
    {
      "type": "event",
      "name": "RecoveryCompleted",
      "inputs": [
        {
          "name": "account",
          "type": "address",
          "indexed": true,
          "internalType": "address"
        }
      ],
      "anonymous": false
    },
    {
      "type": "event",
      "name": "RecoveryConfigUpdated",
      "inputs": [
        {
          "name": "account",
          "type": "address",
          "indexed": true,
          "internalType": "address"
        },
        {
          "name": "delay",
          "type": "uint256",
          "indexed": false,
          "internalType": "uint256"
        },
        {
          "name": "expiry",
          "type": "uint256",
          "indexed": false,
          "internalType": "uint256"
        }
      ],
      "anonymous": false
    },
    {
      "type": "event",
      "name": "RecoveryConfigured",
      "inputs": [
        {
          "name": "account",
          "type": "address",
          "indexed": true,
          "internalType": "address"
        },
        {
          "name": "guardianCount",
          "type": "uint256",
          "indexed": false,
          "internalType": "uint256"
        },
        {
          "name": "totalWeight",
          "type": "uint256",
          "indexed": false,
          "internalType": "uint256"
        },
        {
          "name": "threshold",
          "type": "uint256",
          "indexed": false,
          "internalType": "uint256"
        }
      ],
      "anonymous": false
    },
    {
      "type": "event",
      "name": "RecoveryDeInitialized",
      "inputs": [
        {
          "name": "account",
          "type": "address",
          "indexed": true,
          "internalType": "address"
        }
      ],
      "anonymous": false
    },
    {
      "type": "event",
      "name": "RecoveryExecuted",
      "inputs": [
        {
          "name": "account",
          "type": "address",
          "indexed": true,
          "internalType": "address"
        },
        {
          "name": "validator",
          "type": "address",
          "indexed": true,
          "internalType": "address"
        }
      ],
      "anonymous": false
    },
    {
      "type": "event",
      "name": "RecoveryProcessed",
      "inputs": [
        {
          "name": "account",
          "type": "address",
          "indexed": true,
          "internalType": "address"
        },
        {
          "name": "guardian",
          "type": "address",
          "indexed": true,
          "internalType": "address"
        },
        {
          "name": "executeAfter",
          "type": "uint256",
          "indexed": false,
          "internalType": "uint256"
        },
        {
          "name": "executeBefore",
          "type": "uint256",
          "indexed": false,
          "internalType": "uint256"
        },
        {
          "name": "recoveryDataHash",
          "type": "bytes32",
          "indexed": false,
          "internalType": "bytes32"
        }
      ],
      "anonymous": false
    },
    {
      "type": "event",
      "name": "RemovedGuardian",
      "inputs": [
        {
          "name": "account",
          "type": "address",
          "indexed": true,
          "internalType": "address"
        },
        {
          "name": "guardian",
          "type": "address",
          "indexed": true,
          "internalType": "address"
        },
        {
          "name": "weight",
          "type": "uint256",
          "indexed": false,
          "internalType": "uint256"
        }
      ],
      "anonymous": false
    },
    {
      "type": "event",
      "name": "RemovedValidatorRecovery",
      "inputs": [
        {
          "name": "account",
          "type": "address",
          "indexed": true,
          "internalType": "address"
        },
        {
          "name": "validator",
          "type": "address",
          "indexed": true,
          "internalType": "address"
        },
        {
          "name": "recoverySelector",
          "type": "bytes4",
          "indexed": false,
          "internalType": "bytes4"
        }
      ],
      "anonymous": false
    },
    {
      "type": "error",
      "name": "AccountNotConfigured",
      "inputs": []
    },
    {
      "type": "error",
      "name": "AddressAlreadyGuardian",
      "inputs": []
    },
    {
      "type": "error",
      "name": "AddressNotGuardianForAccount",
      "inputs": []
    },
    {
      "type": "error",
      "name": "AlreadyInitialized",
      "inputs": [
        {
          "name": "smartAccount",
          "type": "address",
          "internalType": "address"
        }
      ]
    },
    {
      "type": "error",
      "name": "DelayMoreThanExpiry",
      "inputs": [
        {
          "name": "delay",
          "type": "uint256",
          "internalType": "uint256"
        },
        {
          "name": "expiry",
          "type": "uint256",
          "internalType": "uint256"
        }
      ]
    },
    {
      "type": "error",
      "name": "DelayNotPassed",
      "inputs": [
        {
          "name": "blockTimestamp",
          "type": "uint256",
          "internalType": "uint256"
        },
        {
          "name": "executeAfter",
          "type": "uint256",
          "internalType": "uint256"
        }
      ]
    },
    {
      "type": "error",
      "name": "IncorrectNumberOfWeights",
      "inputs": [
        {
          "name": "guardianCount",
          "type": "uint256",
          "internalType": "uint256"
        },
        {
          "name": "weightCount",
          "type": "uint256",
          "internalType": "uint256"
        }
      ]
    },
    {
      "type": "error",
      "name": "InvalidAccountAddress",
      "inputs": []
    },
    {
      "type": "error",
      "name": "InvalidCommandHandler",
      "inputs": []
    },
    {
      "type": "error",
      "name": "InvalidDkimRegistry",
      "inputs": []
    },
    {
      "type": "error",
      "name": "InvalidEmailAuthImpl",
      "inputs": []
    },
    {
      "type": "error",
      "name": "InvalidGuardianAddress",
      "inputs": [
        {
          "name": "guardian",
          "type": "address",
          "internalType": "address"
        }
      ]
    },
    {
      "type": "error",
      "name": "InvalidGuardianStatus",
      "inputs": [
        {
          "name": "guardianStatus",
          "type": "uint8",
          "internalType": "enum GuardianStatus"
        },
        {
          "name": "expectedGuardianStatus",
          "type": "uint8",
          "internalType": "enum GuardianStatus"
        }
      ]
    },
    {
      "type": "error",
      "name": "InvalidGuardianWeight",
      "inputs": []
    },
    {
      "type": "error",
      "name": "InvalidOnInstallData",
      "inputs": []
    },
    {
      "type": "error",
      "name": "InvalidRecoveryDataHash",
      "inputs": [
        {
          "name": "recoveryDataHash",
          "type": "bytes32",
          "internalType": "bytes32"
        },
        {
          "name": "expectedRecoveryDataHash",
          "type": "bytes32",
          "internalType": "bytes32"
        }
      ]
    },
    {
      "type": "error",
      "name": "InvalidSelector",
      "inputs": [
        {
          "name": "selector",
          "type": "bytes4",
          "internalType": "bytes4"
        }
      ]
    },
    {
      "type": "error",
      "name": "InvalidValidator",
      "inputs": [
        {
          "name": "validator",
          "type": "address",
          "internalType": "address"
        }
      ]
    },
    {
      "type": "error",
      "name": "InvalidVerifier",
      "inputs": []
    },
    {
      "type": "error",
      "name": "LinkedList_AlreadyInitialized",
      "inputs": []
    },
    {
      "type": "error",
      "name": "LinkedList_EntryAlreadyInList",
      "inputs": [
        {
          "name": "entry",
          "type": "address",
          "internalType": "address"
        }
      ]
    },
    {
      "type": "error",
      "name": "LinkedList_InvalidEntry",
      "inputs": [
        {
          "name": "entry",
          "type": "address",
          "internalType": "address"
        }
      ]
    },
    {
      "type": "error",
      "name": "LinkedList_InvalidPage",
      "inputs": []
    },
    {
      "type": "error",
      "name": "MaxNumberOfGuardiansReached",
      "inputs": []
    },
    {
      "type": "error",
      "name": "MaxValidatorsReached",
      "inputs": []
    },
    {
      "type": "error",
      "name": "NoRecoveryConfigured",
      "inputs": []
    },
    {
      "type": "error",
      "name": "NoRecoveryInProcess",
      "inputs": []
    },
    {
      "type": "error",
      "name": "NotEnoughApprovals",
      "inputs": [
        {
          "name": "currentWeight",
          "type": "uint256",
          "internalType": "uint256"
        },
        {
          "name": "threshold",
          "type": "uint256",
          "internalType": "uint256"
        }
      ]
    },
    {
      "type": "error",
      "name": "NotInitialized",
      "inputs": [
        {
          "name": "smartAccount",
          "type": "address",
          "internalType": "address"
        }
      ]
    },
    {
      "type": "error",
      "name": "RecoveryHasNotExpired",
      "inputs": [
        {
          "name": "account",
          "type": "address",
          "internalType": "address"
        },
        {
          "name": "blockTimestamp",
          "type": "uint256",
          "internalType": "uint256"
        },
        {
          "name": "executeBefore",
          "type": "uint256",
          "internalType": "uint256"
        }
      ]
    },
    {
      "type": "error",
      "name": "RecoveryInProcess",
      "inputs": []
    },
    {
      "type": "error",
      "name": "RecoveryIsNotActivated",
      "inputs": []
    },
    {
      "type": "error",
      "name": "RecoveryModuleNotInitialized",
      "inputs": []
    },
    {
      "type": "error",
      "name": "RecoveryRequestExpired",
      "inputs": [
        {
          "name": "blockTimestamp",
          "type": "uint256",
          "internalType": "uint256"
        },
        {
          "name": "executeBefore",
          "type": "uint256",
          "internalType": "uint256"
        }
      ]
    },
    {
      "type": "error",
      "name": "RecoveryWindowTooShort",
      "inputs": [
        {
          "name": "recoveryWindow",
          "type": "uint256",
          "internalType": "uint256"
        }
      ]
    },
    {
      "type": "error",
      "name": "SetupAlreadyCalled",
      "inputs": []
    },
    {
      "type": "error",
      "name": "SetupNotCalled",
      "inputs": []
    },
    {
      "type": "error",
      "name": "StatusCannotBeTheSame",
      "inputs": [
        {
          "name": "newStatus",
          "type": "uint8",
          "internalType": "enum GuardianStatus"
        }
      ]
    },
    {
      "type": "error",
      "name": "ThresholdCannotBeZero",
      "inputs": []
    },
    {
      "type": "error",
      "name": "ThresholdExceedsAcceptedWeight",
      "inputs": [
        {
          "name": "threshold",
          "type": "uint256",
          "internalType": "uint256"
        },
        {
          "name": "acceptedWeight",
          "type": "uint256",
          "internalType": "uint256"
        }
      ]
    },
    {
      "type": "error",
      "name": "ThresholdExceedsTotalWeight",
      "inputs": [
        {
          "name": "threshold",
          "type": "uint256",
          "internalType": "uint256"
        },
        {
          "name": "totalWeight",
          "type": "uint256",
          "internalType": "uint256"
        }
      ]
    },
    {
      "type": "error",
      "name": "TooManyValuesToRemove",
      "inputs": []
    }
  ],
  "bytecode": {
    "object": "0x60a060405234801561001057600080fd5b50604051614f21380380614f2183398101604081905261002f91610139565b838383836001600160a01b03841661005a5760405163baa3de5f60e01b815260040160405180910390fd5b6001600160a01b0383166100815760405163260ce05b60e01b815260040160405180910390fd5b6001600160a01b0382166100a85760405163e98100fb60e01b815260040160405180910390fd5b6001600160a01b0381166100cf5760405163fce1ed6f60e01b815260040160405180910390fd5b600080546001600160a01b03199081166001600160a01b0396871617909155600180548216948616949094179093556002805490931691841691909117909155166080525061018d92505050565b80516001600160a01b038116811461013457600080fd5b919050565b6000806000806080858703121561014f57600080fd5b6101588561011d565b93506101666020860161011d565b92506101746040860161011d565b91506101826060860161011d565b905092959194509250565b608051614d486101d96000396000818161061d0152818161112a015281816111cd01528181611379015281816119c201528181612354015281816129b10152612b5c0152614d486000f3fe608060405234801561001057600080fd5b506004361061025e5760003560e01c8063694e80c311610146578063b264314f116100c3578063c9faa7c511610087578063c9faa7c5146105e9578063d15558bf14610618578063d60b347f1461063f578063d779a85014610652578063da34a85014610665578063ecd059611461068557600080fd5b8063b264314f14610572578063b620169214610592578063b68126fa146105a3578063c18d09cf146105b6578063c7f53022146105c957600080fd5b806373357f851161010a57806373357f851461051c5780638a91b0e31461052f5780639915068014610542578063a5e3ee701461054c578063ab1b5fde1461055f57600080fd5b8063694e80c3146104c85780636d61fe70146104db5780636da99515146104ee5780637140415614610501578063714897df1461051457600080fd5b80632788bbda116101df5780633ef01b8f116101a35780633ef01b8f14610445578063400ad5ce1461044d5780634f9a28b91461045e57806354fd4d5014610471578063647e285314610492578063663ea2e2146104b557600080fd5b80632788bbda1461037d5780632b7ac3f3146103ed5780632c4ce129146103fe57806332ccc2f2146104115780633a8eab141461043257600080fd5b80631098e02e116102265780631098e02e146102f7578063111e5313146103225780631788178f1461033557806318baa84b14610348578063222f6cb51461036857600080fd5b806301eedf2c146102635780630481af671461027857806306fdde031461028b5780630ba234d6146102a95780630bb6094a146102b1575b600080fd5b6102766102713660046138ee565b610699565b005b610276610286366004613b0e565b6107e0565b610293610cad565b6040516102a09190613cd9565b60405180910390f35b610276610ccd565b6102c46102bf366004613cec565b610d4d565b6040516102a091908151815260208083015190820152604080830151908201526060918201519181019190915260800190565b60025461030a906001600160a01b031681565b6040516001600160a01b0390911681526020016102a0565b610276610330366004613d09565b610dc3565b610276610343366004613d35565b610e89565b61035b610356366004613cec565b611018565b6040516102a09190613d85565b610370611126565b6040516102a09190613e2e565b6103d261038b366004613cec565b6040805180820190915260008082526020820152506001600160a01b0316600090815260056020908152604091829020825180840190935280548352600101549082015290565b604080518251815260209283015192810192909252016102a0565b6000546001600160a01b031661030a565b61030a61040c366004613e93565b6111b3565b61042461041f366004613ed7565b61124e565b6040519081526020016102a0565b61030a610440366004613d09565b6112a6565b610370611375565b6001546001600160a01b031661030a565b6102c461046c366004613cec565b6113d5565b6040805180820190915260058152640312e302e360dc1b6020820152610293565b6104a56104a0366004613ef0565b611451565b60405190151581526020016102a0565b60005461030a906001600160a01b031681565b6102766104d6366004613ed7565b61149c565b6102766104e9366004613f71565b611618565b6104246104fc366004613ed7565b61169f565b61027661050f366004613cec565b6116b5565b610424602081565b60015461030a906001600160a01b031681565b61027661053d366004613f71565b611900565b6104246202a30081565b61030a61055a366004613e93565b6119a8565b61027661056d366004613cec565b6119f9565b610424610580366004613cec565b60086020526000908152604090205481565b6002546001600160a01b031661030a565b6102766105b1366004613b0e565b611af4565b6102766105c4366004613fb2565b611cb6565b6105dc6105d7366004613cec565b611ea8565b6040516102a09190614006565b6104a56105f7366004613cec565b6001600160a01b031660009081526003602081905260409091200154151590565b61030a7f000000000000000000000000000000000000000000000000000000000000000081565b6104a561064d366004613cec565b611edb565b610276610660366004614047565b611ef2565b610678610673366004613ef0565b612198565b6040516102a091906140d5565b6104a5610693366004613ed7565b60021490565b336000908152600760209081526040808320600184529091529020546001600160a01b03166106db57604051630b088c2360e01b815260040160405180910390fd5b3360009081526007602052604090206106f59083856121ce565b3360009081526008602052604081208054916107108361410c565b90915550506001600160a01b038316600090815260096020908152604080832033845290915290205460e01b6001600160e01b03199081169082161461077457806040516312ba286f60e01b815260040161076b9190614123565b60405180910390fd5b6001600160a01b038316600081815260096020908152604080832033808552925291829020805463ffffffff1916905590517ff0197ce362f35457b805abe6aecdbf4435a7d26f4e4a8721f3ccf16e40a9fa89906107d3908590614123565b60405180910390a3505050565b60006107f08360200151836111b3565b90506001600160a01b0381166108435760405162461bcd60e51b81526020600482015260186024820152771a5b9d985b1a59081858d8dbdd5b9d081a5b88195b585a5b60421b604482015260640161076b565b600061085782856060015160a001516112a6565b905060006108648461124e565b855190915081146108ad5760405162461bcd60e51b81526020600482015260136024820152721a5b9d985b1a59081d195b5c1b185d19481a59606a1b604482015260640161076b565b606085015160c0015115156001146108fe5760405162461bcd60e51b81526020600482015260146024820152736973436f646545786973742069732066616c736560601b604482015260640161076b565b6000826001600160a01b03163b600003610b7557600061092685886060015160a001516122a3565b9050809150816001600160a01b031663557cf5ef61094c6001546001600160a01b031690565b6040516001600160e01b031960e084901b1681526001600160a01b039091166004820152602401600060405180830381600087803b15801561098d57600080fd5b505af11580156109a1573d6000803e3d6000fd5b50505050816001600160a01b0316634141407c6109c66000546001600160a01b031690565b6040516001600160e01b031960e084901b1681526001600160a01b039091166004820152602401600060405180830381600087803b158015610a0757600080fd5b505af1158015610a1b573d6000803e3d6000fd5b5050505060005b610a2a611126565b51811015610ac657826001600160a01b0316638ff3730f610a4a8361124e565b610a52611126565b8481518110610a6357610a63614138565b60200260200101516040518363ffffffff1660e01b8152600401610a8892919061414e565b600060405180830381600087803b158015610aa257600080fd5b505af1158015610ab6573d6000803e3d6000fd5b505060019092019150610a229050565b5060005b610ad2611375565b51811015610b6e57826001600160a01b0316638ff3730f610af28361169f565b610afa611375565b8481518110610b0b57610b0b614138565b60200260200101516040518363ffffffff1660e01b8152600401610b3092919061414e565b600060405180830381600087803b158015610b4a57600080fd5b505af1158015610b5e573d6000803e3d6000fd5b505060019092019150610aca9050565b5050610c2f565b829050306001600160a01b0316816001600160a01b031663f77c47916040518163ffffffff1660e01b8152600401602060405180830381865afa158015610bc0573d6000803e3d6000fd5b505050506040513d601f19601f82011682018060405250810190610be49190614167565b6001600160a01b031614610c2f5760405162461bcd60e51b815260206004820152601260248201527134b73b30b634b21031b7b73a3937b63632b960711b604482015260640161076b565b60405163ad3f5f9b60e01b81526001600160a01b0382169063ad3f5f9b90610c5b908990600401614184565b600060405180830381600087803b158015610c7557600080fd5b505af1158015610c89573d6000803e3d6000fd5b50505050610ca58386886020015189606001516080015161233a565b505050505050565b6060604051806060016040528060248152602001614cef60249139905090565b336000908152600660205260408120600201549003610cff576040516387434f5160e01b815260040160405180910390fd5b336000818152600660205260408082208281556001810183905560028101839055600301829055517f8154b6c5e1fc90d44b49808ef93f9739148d0821411890f8cd684385e24b9f1e9190a2565b610d786040518060800160405280600081526020016000815260200160008152602001600081525090565b506001600160a01b0316600090815260036020818152604092839020835160808101855281548152600182015492810192909252600281015493820193909352910154606082015290565b604051634f9a28b960e01b81523360048201526000903090634f9a28b990602401608060405180830381865afa158015610e01573d6000803e3d6000fd5b505050506040513d601f19601f82011682018060405250810190610e259190614257565b604001511115610e4857604051633e43a9bf60e21b815260040160405180910390fd5b336000908152600360208190526040822001549003610e7a5760405163ae69115b60e01b815260040160405180910390fd5b610e85338383612518565b5050565b604051634f9a28b960e01b81523360048201526000903090634f9a28b990602401608060405180830381865afa158015610ec7573d6000803e3d6000fd5b505050506040513d601f19601f82011682018060405250810190610eeb9190614257565b604001511115610f0e57604051633e43a9bf60e21b815260040160405180910390fd5b336000818152600360208190526040822001549003610f40576040516366ecbd6d60e01b815260040160405180910390fd5b602082015182511115610f765781516020830151604051632dd0a90f60e21b81526004810192909252602482015260440161076b565b81516020830151600091610f89916142a2565b90506202a300811015610fb25760405163283cce6760e11b81526004810182905260240161076b565b6001600160a01b03821660008181526005602090815260409182902086518082558783015160019092018290558351908152918201527f1846bde2c0888937a0a3af4e9b851b2e78758487d44a7ec04ae4bb3dc356b495910160405180910390a2505050565b6060600061102583611ea8565b80519091506000816001600160401b0381111561104457611044613935565b60405190808252806020026020018201604052801561106d578160200160208202803683370190505b50905060005b8281101561111d576009600085838151811061109157611091614138565b60200260200101516001600160a01b03166001600160a01b031681526020019081526020016000206000876001600160a01b03166001600160a01b0316815260200190815260200160002060009054906101000a900460e01b8282815181106110fc576110fc614138565b6001600160e01b031990921660209283029190910190910152600101611073565b50949350505050565b60607f00000000000000000000000000000000000000000000000000000000000000006001600160a01b031663222f6cb56040518163ffffffff1660e01b8152600401600060405180830381865afa158015611186573d6000803e3d6000fd5b505050506040513d6000823e601f3d908101601f191682016040526111ae91908101906142e5565b905090565b604051632c4ce12960e01b81526000906001600160a01b037f00000000000000000000000000000000000000000000000000000000000000001690632c4ce129906112049086908690600401614431565b602060405180830381865afa158015611221573d6000803e3d6000fd5b505050506040513d601f19601f820116820180604052508101906112459190614167565b90505b92915050565b60408051600160208201526060918101829052600a608082015269414343455054414e434560b01b60a082015290810182905260009060c0015b60408051601f19818403018152919052805160209091012092915050565b600061124582604051806020016112bc906138af565b601f1982820381018352601f909101166040526112e16002546001600160a01b031690565b6040516001600160a01b03881660248201526044810187905230606482015260840160408051601f19818403018152918152602080830180516001600160e01b03166369359f3760e11b179052905161133c93929101614453565b60408051601f198184030181529082905261135a9291602001614477565b604051602081830303815290604052805190602001206126a3565b60607f00000000000000000000000000000000000000000000000000000000000000006001600160a01b0316633ef01b8f6040518163ffffffff1660e01b8152600401600060405180830381865afa158015611186573d6000803e3d6000fd5b6114036040518060800160405280600081526020016000815260200160008152602001600080191681525090565b506001600160a01b0316600090815260066020908152604091829020825160808101845281548152600182015492810192909252600281015492820192909252600390910154606082015290565b60008061145d84610d4d565b9050806060015181604001511015801561149457506001600160a01b038416600090815260076020526040902061149490846126b0565b949350505050565b604051634f9a28b960e01b81523360048201526000903090634f9a28b990602401608060405180830381865afa1580156114da573d6000803e3d6000fd5b505050506040513d601f19601f820116820180604052508101906114fe9190614257565b60400151111561152157604051633e43a9bf60e21b815260040160405180910390fd5b3360009081526003602081905260408220015490036115535760405163ae69115b60e01b815260040160405180910390fd5b336000908152600360205260409020600101548111156115a557336000908152600360205260409081902060010154905163eb912f7160e01b815261076b918391600401918252602082015260400190565b806000036115c657604051637a0920b360e11b815260040160405180910390fd5b3360008181526003602081905260409182902001839055517fde3e32a86d32ca955594af26f515d3dc60003ab279776b14b4012fe99d96f8f69061160d9084815260200190565b60405180910390a250565b600081900361163a57604051632e111c4160e11b815260040160405180910390fd5b60008080808080808061164f898b018b614576565b336000908152600760205260409020979f50959d50939b50919950975095509350915061167b906126ea565b611686888888611ef2565b6116938585858585612747565b50505050505050505050565b6000600182604051602001611288929190614644565b604051634f9a28b960e01b81523360048201526000903090634f9a28b990602401608060405180830381865afa1580156116f3573d6000803e3d6000fd5b505050506040513d601f19601f820116820180604052508101906117179190614257565b60400151111561173a57604051633e43a9bf60e21b815260040160405180910390fd5b3360008181526003602081815260408084208151608081018352815481526001820154818501526002820154818401529301546060840152938352600490529181206117869084612801565b336000908152600460205260408120919250906117a3908561287a565b9050806117c35760405163f3f7774960e01b815260040160405180910390fd5b6000826020015184602001516117d991906142a2565b9050836060015181101561181057606084015160405163eb912f7160e01b815261076b918391600401918252602082015260400190565b33600090815260036020526040812080549161182b8361410c565b90915550506020808401513360009081526003909252604082206001018054919290916118599084906142a2565b9091555060029050835160028111156118745761187461409d565b036118a8576020808401513360009081526003909252604082206002018054919290916118a29084906142a2565b90915550505b846001600160a01b0316336001600160a01b03167f99aeb23a57fa639a61aa8afa1b8b63e67a2e6d601c008c8a7cb4e0719992d19985602001516040516118f191815260200190565b60405180910390a35050505050565b600061190b33611ea8565b905060005b8151811015611972576009600083838151811061192f5761192f614138565b6020908102919091018101516001600160a01b0316825281810192909252604090810160009081203382529092529020805463ffffffff19169055600101611910565b5033600090815260076020526040902061198b906128ac565b336000908152600860205260408120556119a3612905565b505050565b604051630a5e3ee760e41b81526000906001600160a01b037f0000000000000000000000000000000000000000000000000000000000000000169063a5e3ee70906112049086908690600401614431565b6001600160a01b0381166000908152600660205260408120600201549003611a34576040516387434f5160e01b815260040160405180910390fd5b6001600160a01b038116600090815260066020526040902060010154421015611a9c576001600160a01b038116600081815260066020526040908190206001015490516349d70fe360e11b81526004810192909252426024830152604482015260640161076b565b6001600160a01b0381166000818152600660205260408082208281556001810183905560028101839055600301829055517f8154b6c5e1fc90d44b49808ef93f9739148d0821411890f8cd684385e24b9f1e9190a250565b6000611b048360200151836119a8565b90506001600160a01b038116611b575760405162461bcd60e51b81526020600482015260186024820152771a5b9d985b1a59081858d8dbdd5b9d081a5b88195b585a5b60421b604482015260640161076b565b6000611b6b82856060015160a001516112a6565b90506000816001600160a01b03163b11611bc75760405162461bcd60e51b815260206004820152601860248201527f677561726469616e206973206e6f74206465706c6f7965640000000000000000604482015260640161076b565b6000600184604051602001611bdd929190614644565b60408051601f19818403018152919052805160209091012085519091508114611c3e5760405162461bcd60e51b81526020600482015260136024820152721a5b9d985b1a59081d195b5c1b185d19481a59606a1b604482015260640161076b565b60405163ad3f5f9b60e01b815282906001600160a01b0382169063ad3f5f9b90611c6c908990600401614184565b600060405180830381600087803b158015611c8657600080fd5b505af1158015611c9a573d6000803e3d6000fd5b50505050610ca583868860200151896060015160800151612997565b6001600160a01b038316611cdd5760405163200db56f60e11b815260040160405180910390fd5b6001600160a01b03831660008181526006602090815260408083208151608081018352815481526001820154818501526002820154818401526003918201546060820152948452918290528220015490819003611d4d57604051635337335b60e11b815260040160405180910390fd5b8082604001511015611d835781604001518160405163443282f560e01b815260040161076b929190918252602082015260400190565b8151421015611db1578151604051632f37ae3960e01b8152426004820152602481019190915260440161076b565b81602001514210611de4576020820151604051632b356baf60e11b8152426004820152602481019190915260440161076b565b60008484604051611df6929190614677565b6040518091039020905082606001518114611e34576060830151604051639e1a616f60e01b815261076b918391600401918252602082015260400190565b6001600160a01b0386166000908152600660205260408120818155600181018290556002810182905560030155611e6c868686612d00565b6040516001600160a01b038716907f46f5008939fa0b4beb46ae7f0e8368318bb72b56608910ca71c23e83382f609f90600090a2505050505050565b6001600160a01b0381166000908152600760209081526040822060609291611ed39190600190612dfa565b509392505050565b6000611ee682610d4d565b60600151151592915050565b336000908152600760209081526040808320600184529091529020546001600160a01b0316611f3457604051630b088c2360e01b815260040160405180910390fd5b8281336001600160a01b03831603611fd7576001600160e01b03198116630d582f1360e01b14801590611f7857506001600160e01b0319811663f8dc5dd960e01b14155b8015611f9557506001600160e01b0319811663e318b52b60e01b14155b8015611fb257506001600160e01b0319811663694e80c360e01b14155b15611fd257806040516312ba286f60e01b815260040161076b9190614123565b612039565b6001600160e01b031981166306d61fe760e41b148061200657506001600160e01b03198116638a91b0e360e01b145b8061201957506001600160e01b03198116155b1561203957806040516312ba286f60e01b815260040161076b9190614123565b60405163112d3a7d60e01b8152339063112d3a7d906120619060019089908990600401614687565b602060405180830381865afa15801561207e573d6000803e3d6000fd5b505050506040513d601f19601f820116820180604052508101906120a291906146b1565b6120c957604051628eae2b60e51b81526001600160a01b038616600482015260240161076b565b33600090815260086020908152604090912054106120fa576040516376bca46b60e11b815260040160405180910390fd5b3360009081526007602052604090206121139086612fa6565b33600090815260086020526040812080549161212e836146ce565b90915550506001600160a01b038516600081815260096020908152604080832033808552925291829020805463ffffffff191660e088901c17905590517f83ccdcb4121fbd52f43483b0109351c571e564b33420da9b26a05346a739f66b906118f1908790614123565b60408051808201909152600080825260208201526001600160a01b03831660009081526004602052604090206112459083612801565b6001600160a01b03811615806121ed57506001600160a01b0381166001145b1561221657604051637c84ecfb60e01b81526001600160a01b038316600482015260240161076b565b6001600160a01b0382811660009081526020859052604090205481169082161461225e57604051637c84ecfb60e01b81526001600160a01b038216600482015260240161076b565b6001600160a01b0390811660008181526020949094526040808520805494841686529085208054949093166001600160a01b0319948516179092559092528154169055565b600080826122b96002546001600160a01b031690565b6040516001600160a01b03871660248201526044810186905230606482015260840160408051601f198184030181529181526020820180516001600160e01b03166369359f3760e11b1790525161230f906138af565b61231a929190614453565b8190604051809103906000f590508015801561111d573d6000803e3d6000fd5b60405163861f45b760e01b81526000906001600160a01b037f0000000000000000000000000000000000000000000000000000000000000000169063861f45b79061238b908790879060040161414e565b602060405180830381865afa1580156123a8573d6000803e3d6000fd5b505050506040513d601f19601f820116820180604052508101906123cc9190614167565b6001600160a01b0381166000908152600660205260409020600201549091501561240957604051633e43a9bf60e21b815260040160405180910390fd5b6001600160a01b038116600090815260036020819052604090912001546124435760405163c737140f60e01b815260040160405180910390fd5b600061244f8287612198565b90506001815160028111156124665761246661409d565b1461248a578051604051632b44da8d60e11b815261076b91906001906004016146e7565b6124968287600261307c565b806020015160036000846001600160a01b03166001600160a01b0316815260200190815260200160002060020160008282546124d29190614702565b90915550506040516001600160a01b0380881691908416907f442abc7a4ecd5a019ce3f9fa872ad2d87c094248c412954aaf8ccf7a538e938c90600090a3505050505050565b6001600160a01b038216158061253f5750826001600160a01b0316826001600160a01b0316145b1561256857604051631af7497560e01b81526001600160a01b038316600482015260240161076b565b806000036125885760405162a47bc760e51b815260040160405180910390fd5b60006125d5836040518060400160405280600160028111156125ac576125ac61409d565b815260209081018690526001600160a01b03881660009081526004909152604090209190613179565b9050806125f557604051637270b0a760e11b815260040160405180910390fd5b6001600160a01b0384166000908152600360205260408120805491612619836146ce565b90915550506001600160a01b03841660009081526003602052604081206001018054849290612649908490614702565b92505081905550826001600160a01b0316846001600160a01b03167f6e56b96fb8216ff6218412de4842e5d754f98ee57d19d9ed40af02fac2b30d9c8460405161269591815260200190565b60405180910390a350505050565b6000611245838330613218565b600060016001600160a01b038316148015906112455750506001600160a01b03908116600090815260209290925260409091205416151590565b60016000908152602082905260409020546001600160a01b031615612722576040516329e42f3360e11b815260040160405180910390fd5b60016000818152602092909252604090912080546001600160a01b0319169091179055565b3360008181526003602081905260409091200154156127795760405163b3af559360e01b815260040160405180910390fd5b60008061278883898989613242565b604080518082019091528781526020810187905291935091506127aa81610e89565b60408051848152602081018490529081018890526001600160a01b038516907fe8d4b5048e4b6ac385ae4b62872cffb372825354882a4823833c9720bacdfc6a9060600160405180910390a2505050505050505050565b60408051808201909152600080825260208201526001600160a01b03821660009081526002808501602052604091829020825180840190935280549091839160ff16908111156128535761285361409d565b60028111156128645761286461409d565b8152602001600182015481525050905092915050565b6001600160a01b03811660009081526002830160205260408120805460ff19168155600101819055611245838361335b565b60016000908152602082905260409020546001600160a01b03165b6001600160a01b03811615610e85576001600160a01b03908116600090815260208390526040902080546001600160a01b03198116909155166128c7565b604051634f9a28b960e01b81523360048201526000903090634f9a28b990602401608060405180830381865afa158015612943573d6000803e3d6000fd5b505050506040513d601f19601f820116820180604052508101906129679190614257565b60400151111561298a57604051633e43a9bf60e21b815260040160405180910390fd5b3361299481613370565b50565b60405163029b2a1760e11b81526000906001600160a01b037f00000000000000000000000000000000000000000000000000000000000000001690630536542e906129e8908790879060040161414e565b602060405180830381865afa158015612a05573d6000803e3d6000fd5b505050506040513d601f19601f82011682018060405250810190612a299190614167565b9050612a50816001600160a01b031660009081526003602081905260409091200154151590565b612a6d5760405163c737140f60e01b815260040160405180910390fd5b6001600160a01b0381166000908152600360208181526040928390208351608081018552815481526001820154928101929092526002810154938201849052909101546060820181905290911015612aeb5760608101516040808301519051631f0fa60f60e21b81526004810192909252602482015260440161076b565b6000612af78388612198565b9050600281516002811115612b0e57612b0e61409d565b14612b32578051604051632b44da8d60e11b815261076b91906002906004016146e7565b6001600160a01b03808416600090815260066020526040808220905163da06673960e01b815290927f0000000000000000000000000000000000000000000000000000000000000000169063da06673990612b93908b908b9060040161414e565b602060405180830381865afa158015612bb0573d6000803e3d6000fd5b505050506040513d601f19601f82011682018060405250810190612bd49190614715565b6003830154909150612c1457600382018190556001600160a01b038516600090815260056020526040812060010154612c0d9042614702565b6001840155505b80826003015414612c48576003820154604051639e1a616f60e01b815261076b918391600401918252602082015260400190565b8260200151826002016000828254612c609190614702565b90915550506060840151600283015410612cf5576001600160a01b038516600090815260056020526040812054612c979042614702565b808455600184015460408051838152602081019290925281018490529091506001600160a01b038b811691908816907f4ba32edb93f170b4f8da72336509b7d0604810e15c90427dddd7487e8d425fd19060600160405180910390a3505b505050505050505050565b600080612d0f8385018561472e565b90925090506001600160a01b038216612d4557604051628eae2b60e51b81526001600160a01b038316600482015260240161076b565b6020818101516001600160a01b038085166000908152600984526040808220928a168252919093529091205460e01b6001600160e01b031980821690831614612da357816040516312ba286f60e01b815260040161076b9190614123565b612db08785600086613499565b50836001600160a01b0316876001600160a01b03167f60f9f98be64687700419cfa6fdd7877bc88c6daeb10bc664a2be9fdd6b0c792160405160405180910390a350505050505050565b606060006001600160a01b038416600114801590612e1f5750612e1d85856126b0565b155b15612e4857604051637c84ecfb60e01b81526001600160a01b038516600482015260240161076b565b82600003612e695760405163f725081760e01b815260040160405180910390fd5b826001600160401b03811115612e8157612e81613935565b604051908082528060200260200182016040528015612eaa578160200160208202803683370190505b506001600160a01b03808616600090815260208890526040812054929450911691505b6001600160a01b03821615801590612eef57506001600160a01b038216600114155b8015612efa57508381105b15612f545781838281518110612f1257612f12614138565b6001600160a01b039283166020918202929092018101919091529281166000908152928790526040909220549091169080612f4c816146ce565b915050612ecd565b6001600160a01b038216600114801590612f6e5750600081115b15612f9a5782612f7f6001836142a2565b81518110612f8f57612f8f614138565b602002602001015191505b80835250935093915050565b6001600160a01b0381161580612fc557506001600160a01b0381166001145b15612fee57604051637c84ecfb60e01b81526001600160a01b038216600482015260240161076b565b6001600160a01b03818116600090815260208490526040902054161561303257604051631034f46960e21b81526001600160a01b038216600482015260240161076b565b60016000818152602093909352604080842080546001600160a01b039485168087529286208054959091166001600160a01b03199586161790559190935280549091169091179055565b6001600160a01b038316600090815260046020526040812061309e9084612801565b805190915060028111156130b4576130b461409d565b8260028111156130c6576130c661409d565b036130e65781604051637e12071160e01b815260040161076b919061477d565b6131358360405180604001604052808560028111156131075761310761409d565b8152602085810151918101919091526001600160a01b03881660009081526004909152604090209190613179565b50826001600160a01b0316846001600160a01b03167f6ae2e7cc465b15375a93daf2ea1e59f4c98d82465e7f2885f0b864db38b2797484604051612695919061477d565b6001600160a01b0382166000908152600280850160205260408220835181548593839160ff19169060019084908111156131b5576131b561409d565b02179055506020919091015160019091015560006131d3858561354f565b905060006131e086613564565b90508180156131ef5750602081115b1561320d5760405163bb6c1e9360e01b815260040160405180910390fd5b5090505b9392505050565b6000604051836040820152846020820152828152600b8101905060ff815360559020949350505050565b825182516000918291811461327757845160405163166e79bd60e01b815261076b918391600401918252602082015260400190565b8360000361329857604051637a0920b360e11b815260040160405180910390fd5b60005b818110156132e8576132e0888883815181106132b9576132b9614138565b60200260200101518884815181106132d3576132d3614138565b6020026020010151612518565b60010161329b565b506001600160a01b038716600090815260036020526040902060010154808511156133305760405163eb912f7160e01b8152600481018690526024810182905260440161076b565b6001600160a01b03979097166000908152600360208190526040909120019390935550909492505050565b6000611245836001600160a01b03841661356e565b604051634f9a28b960e01b81523360048201526000903090634f9a28b990602401608060405180830381865afa1580156133ae573d6000803e3d6000fd5b505050506040513d601f19601f820116820180604052508101906133d29190614257565b6040015111156133f557604051633e43a9bf60e21b815260040160405180910390fd5b6001600160a01b0381166000908152600560209081526040808320838155600190810184905560069092528220828155908101829055600281018290556003015561343f81613661565b6001600160a01b03811660008181526003602081905260408083208381556001810184905560028101849055909101829055517fe07cb859e0fb96f60563e9ac3596b37d0c617a96f9f6db589548caaa99fa9b669190a250565b606060006134a9818080806136a4565b9050856001600160a01b031663d691c964826134c688888861370f565b6040518363ffffffff1660e01b81526004016134e392919061478b565b6000604051808303816000875af1158015613502573d6000803e3d6000fd5b505050506040513d6000823e601f3d908101601f1916820160405261352a91908101906147a4565b60008151811061353c5761353c614138565b6020026020010151915050949350505050565b6000611245836001600160a01b03841661373e565b6000611248825490565b600081815260018301602052604081205480156136575760006135926001836142a2565b85549091506000906135a6906001906142a2565b905080821461360b5760008660000182815481106135c6576135c6614138565b90600052602060002001549050808760000184815481106135e9576135e9614138565b6000918252602080832090910192909255918252600188019052604090208390555b855486908061361c5761361c614862565b600190038181906000526020600020016000905590558560010160008681526020019081526020016000206000905560019350505050611248565b6000915050611248565b6001600160a01b0381166000908152600460205260409020612994906136869061378d565b6001600160a01b038316600090815260046020526040902090613798565b604080516001600160f81b03198087166020830152851660218201526000602282018190526001600160e01b03198516602683015269ffffffffffffffffffff198416602a830152910160405160208183030381529060405261370690614878565b95945050505050565b60608383836040516020016137269392919061489f565b60405160208183030381529060405290509392505050565b600081815260018301602052604081205461378557508154600181810184556000848152602080822090930184905584548482528286019093526040902091909155611248565b506000611248565b60606112488261384b565b6020815111156137bb5760405163e023c21160e01b815260040160405180910390fd5b60005b81518110156119a3578260020160008383815181106137df576137df614138565b6020908102919091018101516001600160a01b031682528101919091526040016000908120805460ff191681556001015581516138429083908390811061382857613828614138565b60200260200101518460000161335b90919063ffffffff16565b506001016137be565b60606000613211836060816000018054806020026020016040519081016040528092919081815260200182805480156138a357602002820191906000526020600020905b81548152602001906001019080831161388f575b50505050509050919050565b610410806148df83390190565b6001600160a01b038116811461299457600080fd5b80356001600160e01b0319811681146138e957600080fd5b919050565b60008060006060848603121561390357600080fd5b833561390e816138bc565b9250602084013561391e816138bc565b915061392c604085016138d1565b90509250925092565b634e487b7160e01b600052604160045260246000fd5b604051608081016001600160401b038111828210171561396d5761396d613935565b60405290565b60405161010081016001600160401b038111828210171561396d5761396d613935565b604051601f8201601f191681016001600160401b03811182821017156139be576139be613935565b604052919050565b60006001600160401b038211156139df576139df613935565b5060051b60200190565b60006001600160401b03821115613a0257613a02613935565b50601f01601f191660200190565b600082601f830112613a2157600080fd5b8135602083016000613a3a613a35846139e9565b613996565b9050828152858383011115613a4e57600080fd5b82826020830137600092810160200192909252509392505050565b600082601f830112613a7a57600080fd5b8135613a88613a35826139c6565b8082825260208201915060208360051b860101925085831115613aaa57600080fd5b602085015b83811015613aeb5780356001600160401b03811115613acd57600080fd5b613adc886020838a0101613a10565b84525060209283019201613aaf565b5095945050505050565b801515811461299457600080fd5b80356138e981613af5565b60008060408385031215613b2157600080fd5b82356001600160401b03811115613b3757600080fd5b830160808186031215613b4957600080fd5b613b5161394b565b8135815260208201356001600160401b03811115613b6e57600080fd5b613b7a87828501613a69565b6020830152506040828101359082015260608201356001600160401b03811115613ba357600080fd5b91909101906101008287031215613bb957600080fd5b613bc1613973565b82356001600160401b03811115613bd757600080fd5b613be388828601613a10565b825250602083810135908201526040808401359082015260608301356001600160401b03811115613c1357600080fd5b613c1f88828601613a10565b6060830152506080838101359082015260a08084013590820152613c4560c08401613b03565b60c082015260e08301356001600160401b03811115613c6357600080fd5b613c6f88828601613a10565b60e083015250606082015295602094909401359450505050565b60005b83811015613ca4578181015183820152602001613c8c565b50506000910152565b60008151808452613cc5816020860160208601613c89565b601f01601f19169290920160200192915050565b6020815260006112456020830184613cad565b600060208284031215613cfe57600080fd5b8135613211816138bc565b60008060408385031215613d1c57600080fd5b8235613d27816138bc565b946020939093013593505050565b60006040828403128015613d4857600080fd5b50604080519081016001600160401b0381118282101715613d6b57613d6b613935565b604052823581526020928301359281019290925250919050565b602080825282518282018190526000918401906040840190835b81811015613dc75783516001600160e01b031916835260209384019390920191600101613d9f565b509095945050505050565b600082825180855260208501945060208160051b8301016020850160005b83811015613e2257601f19858403018852613e0c838351613cad565b6020988901989093509190910190600101613df0565b50909695505050505050565b6000602082016020835280845180835260408501915060408160051b86010192506020860160005b82811015613e8757603f19878603018452613e72858351613dd2565b94506020938401939190910190600101613e56565b50929695505050505050565b60008060408385031215613ea657600080fd5b82356001600160401b03811115613ebc57600080fd5b613ec885828601613a69565b95602094909401359450505050565b600060208284031215613ee957600080fd5b5035919050565b60008060408385031215613f0357600080fd5b8235613f0e816138bc565b91506020830135613f1e816138bc565b809150509250929050565b60008083601f840112613f3b57600080fd5b5081356001600160401b03811115613f5257600080fd5b602083019150836020828501011115613f6a57600080fd5b9250929050565b60008060208385031215613f8457600080fd5b82356001600160401b03811115613f9a57600080fd5b613fa685828601613f29565b90969095509350505050565b600080600060408486031215613fc757600080fd5b8335613fd2816138bc565b925060208401356001600160401b03811115613fed57600080fd5b613ff986828701613f29565b9497909650939450505050565b602080825282518282018190526000918401906040840190835b81811015613dc75783516001600160a01b0316835260209384019390920191600101614020565b60008060006060848603121561405c57600080fd5b8335614067816138bc565b925060208401356001600160401b0381111561408257600080fd5b61408e86828701613a10565b92505061392c604085016138d1565b634e487b7160e01b600052602160045260246000fd5b600381106140d157634e487b7160e01b600052602160045260246000fd5b9052565b60006040820190506140e88284516140b3565b602092830151919092015290565b634e487b7160e01b600052601160045260246000fd5b60008161411b5761411b6140f6565b506000190190565b6001600160e01b031991909116815260200190565b634e487b7160e01b600052603260045260246000fd5b8281526040602082015260006114946040830184613dd2565b60006020828403121561417957600080fd5b8151613211816138bc565b602081528151602082015260006020830151608060408401526141aa60a0840182613dd2565b9050604084015160608401526060840151601f19848303016080850152805161010083526141dc610100840182613cad565b90506020820151602084015260408201516040840152606082015183820360608501526142098282613cad565b9150506080820151608084015260a082015160a084015260c082015161423360c085018215159052565b5060e0820151915082810360e084015261424d8183613cad565b9695505050505050565b6000608082840312801561426a57600080fd5b50600061427561394b565b83518152602080850151908201526040808501519082015260609384015193810193909352509092915050565b81810381811115611248576112486140f6565b60006142c3613a35846139e9565b90508281528383830111156142d757600080fd5b613211836020830184613c89565b6000602082840312156142f757600080fd5b81516001600160401b0381111561430d57600080fd5b8201601f8101841361431e57600080fd5b805161432c613a35826139c6565b8082825260208201915060208360051b85010192508683111561434e57600080fd5b602084015b838110156144265780516001600160401b0381111561437157600080fd5b8501603f8101891361438257600080fd5b6020810151614393613a35826139c6565b808282526020820191506020808460051b8601010192508b8311156143b757600080fd5b604084015b838110156144105780516001600160401b038111156143da57600080fd5b85016020810190605f018e136143ef57600080fd5b6144018e6020830151604084016142b5565b845250602092830192016143bc565b5086525050602093840193919091019050614353565b509695505050505050565b6040815260006144446040830185613dd2565b90508260208301529392505050565b6001600160a01b038316815260406020820181905260009061149490830184613cad565b60008351614489818460208801613c89565b83519083019061449d818360208801613c89565b01949350505050565b80356138e9816138bc565b600082601f8301126144c257600080fd5b81356144d0613a35826139c6565b8082825260208201915060208360051b8601019250858311156144f257600080fd5b602085015b83811015613aeb57803561450a816138bc565b8352602092830192016144f7565b600082601f83011261452957600080fd5b8135614537613a35826139c6565b8082825260208201915060208360051b86010192508583111561455957600080fd5b602085015b83811015613aeb57803583526020928301920161455e565b600080600080600080600080610100898b03121561459357600080fd5b61459c896144a6565b975060208901356001600160401b038111156145b757600080fd5b6145c38b828c01613a10565b9750506145d260408a016138d1565b955060608901356001600160401b038111156145ed57600080fd5b6145f98b828c016144b1565b95505060808901356001600160401b0381111561461557600080fd5b6146218b828c01614518565b989b979a50959894979660a0860135965060c08601359560e00135945092505050565b60ff929092168252606060208301819052600890830152675245434f5645525960c01b6080830152604082015260a00190565b8183823760009101908152919050565b8381526001600160a01b038316602082015260606040820181905260009061370690830184613cad565b6000602082840312156146c357600080fd5b815161321181613af5565b6000600182016146e0576146e06140f6565b5060010190565b604081016146f582856140b3565b61321160208301846140b3565b80820180821115611248576112486140f6565b60006020828403121561472757600080fd5b5051919050565b6000806040838503121561474157600080fd5b823561474c816138bc565b915060208301356001600160401b0381111561476757600080fd5b61477385828601613a10565b9150509250929050565b6020810161124882846140b3565b8281526040602082015260006114946040830184613cad565b6000602082840312156147b657600080fd5b81516001600160401b038111156147cc57600080fd5b8201601f810184136147dd57600080fd5b80516147eb613a35826139c6565b8082825260208201915060208360051b85010192508683111561480d57600080fd5b602084015b838110156144265780516001600160401b0381111561483057600080fd5b8501603f8101891361484157600080fd5b614853896020830151604084016142b5565b84525060209283019201614812565b634e487b7160e01b600052603160045260246000fd5b80516020808301519190811015614899576000198160200360031b1b821691505b50919050565b6bffffffffffffffffffffffff198460601b168152826014820152600082516148cf816034850160208701613c89565b9190910160340194935050505056fe608060405260405161041038038061041083398101604081905261002291610268565b61002c8282610033565b5050610358565b61003c82610092565b6040516001600160a01b038316907fbc7cd75a20ee27fd9adebab32041f755214dbc6bffa90cc0225b39da2e5c2d3b90600090a280511561008657610081828261010e565b505050565b61008e610185565b5050565b806001600160a01b03163b6000036100cd57604051634c9c8ce360e01b81526001600160a01b03821660048201526024015b60405180910390fd5b7f360894a13ba1a3210667c828492db98dca3e2076cc3735a920a3ca505d382bbc80546001600160a01b0319166001600160a01b0392909216919091179055565b6060600080846001600160a01b03168460405161012b919061033c565b600060405180830381855af49150503d8060008114610166576040519150601f19603f3d011682016040523d82523d6000602084013e61016b565b606091505b50909250905061017c8583836101a6565b95945050505050565b34156101a45760405163b398979f60e01b815260040160405180910390fd5b565b6060826101bb576101b682610205565b6101fe565b81511580156101d257506001600160a01b0384163b155b156101fb57604051639996b31560e01b81526001600160a01b03851660048201526024016100c4565b50805b9392505050565b8051156102155780518082602001fd5b604051630a12f52160e11b815260040160405180910390fd5b634e487b7160e01b600052604160045260246000fd5b60005b8381101561025f578181015183820152602001610247565b50506000910152565b6000806040838503121561027b57600080fd5b82516001600160a01b038116811461029257600080fd5b60208401519092506001600160401b038111156102ae57600080fd5b8301601f810185136102bf57600080fd5b80516001600160401b038111156102d8576102d861022e565b604051601f8201601f19908116603f011681016001600160401b03811182821017156103065761030661022e565b60405281815282820160200187101561031e57600080fd5b61032f826020830160208601610244565b8093505050509250929050565b6000825161034e818460208701610244565b9190910192915050565b60aa806103666000396000f3fe6080604052600a600c565b005b60186014601a565b6051565b565b6000604c7f360894a13ba1a3210667c828492db98dca3e2076cc3735a920a3ca505d382bbc546001600160a01b031690565b905090565b3660008037600080366000845af43d6000803e808015606f573d6000f35b3d6000fdfea2646970667358221220d80116cb6a85217b9f11f97b8e4fbd453b38b7ba9b2e71c01e0300b968b0fcf464736f6c634300081a00335a4b456d61696c2e556e6976657273616c456d61696c5265636f766572794d6f64756c65a2646970667358221220f7fed71e641ef0838fafa8ade4e937d82d357c32e5a4e6af6936bc6bd6ad59f064736f6c634300081a0033",
    "linkReferences": {}
  },
  "methodIdentifiers": {
    "MAX_VALIDATORS()": "714897df",
    "MINIMUM_RECOVERY_WINDOW()": "99150680",
    "acceptanceCommandTemplates()": "222f6cb5",
    "addGuardian(address,uint256)": "111e5313",
    "allowValidatorRecovery(address,bytes,bytes4)": "d779a850",
    "canStartRecoveryRequest(address,address)": "647e2853",
    "cancelExpiredRecovery(address)": "ab1b5fde",
    "cancelRecovery()": "0ba234d6",
    "changeThreshold(uint256)": "694e80c3",
    "commandHandler()": "d15558bf",
    "completeRecovery(address,bytes)": "c18d09cf",
    "computeAcceptanceTemplateId(uint256)": "32ccc2f2",
    "computeEmailAuthAddress(address,bytes32)": "3a8eab14",
    "computeRecoveryTemplateId(uint256)": "6da99515",
    "disallowValidatorRecovery(address,address,bytes4)": "01eedf2c",
    "dkim()": "400ad5ce",
    "dkimAddr()": "73357f85",
    "emailAuthImplementation()": "b6201692",
    "emailAuthImplementationAddr()": "1098e02e",
    "extractRecoveredAccountFromAcceptanceCommand(bytes[],uint256)": "2c4ce129",
    "extractRecoveredAccountFromRecoveryCommand(bytes[],uint256)": "a5e3ee70",
    "getAllowedSelectors(address)": "18baa84b",
    "getAllowedValidators(address)": "c7f53022",
    "getGuardian(address,address)": "da34a850",
    "getGuardianConfig(address)": "0bb6094a",
    "getRecoveryConfig(address)": "2788bbda",
    "getRecoveryRequest(address)": "4f9a28b9",
    "handleAcceptance((uint256,bytes[],uint256,(string,bytes32,uint256,string,bytes32,bytes32,bool,bytes)),uint256)": "0481af67",
    "handleRecovery((uint256,bytes[],uint256,(string,bytes32,uint256,string,bytes32,bytes32,bool,bytes)),uint256)": "b68126fa",
    "isActivated(address)": "c9faa7c5",
    "isInitialized(address)": "d60b347f",
    "isModuleType(uint256)": "ecd05961",
    "name()": "06fdde03",
    "onInstall(bytes)": "6d61fe70",
    "onUninstall(bytes)": "8a91b0e3",
    "recoveryCommandTemplates()": "3ef01b8f",
    "removeGuardian(address)": "71404156",
    "updateRecoveryConfig((uint256,uint256))": "1788178f",
    "validatorCount(address)": "b264314f",
    "verifier()": "2b7ac3f3",
    "verifierAddr()": "663ea2e2",
    "version()": "54fd4d50"
  },
  "id": 317
}