{
  "abi": [
    {
      "type": "constructor",
      "inputs": [
        {
          "name": "verifier",
          "type": "address",
          "internalType": "address"
        },
        {
          "name": "dkimRegistry",
          "type": "address",
          "internalType": "address"
        },
        {
          "name": "emailAuthImpl",
          "type": "address",
          "internalType": "address"
        },
        {
          "name": "subjectHandler",
          "type": "address",
          "internalType": "address"
        }
      ],
      "stateMutability": "nonpayable"
    },
    {
      "type": "function",
      "name": "MAX_VALIDATORS",
      "inputs": [],
      "outputs": [
        {
          "name": "",
          "type": "uint256",
          "internalType": "uint256"
        }
      ],
      "stateMutability": "view"
    },
    {
      "type": "function",
      "name": "MINIMUM_RECOVERY_WINDOW",
      "inputs": [],
      "outputs": [
        {
          "name": "",
          "type": "uint256",
          "internalType": "uint256"
        }
      ],
      "stateMutability": "view"
    },
    {
      "type": "function",
      "name": "acceptanceSubjectTemplates",
      "inputs": [],
      "outputs": [
        {
          "name": "",
          "type": "string[][]",
          "internalType": "string[][]"
        }
      ],
      "stateMutability": "view"
    },
    {
      "type": "function",
      "name": "addGuardian",
      "inputs": [
        {
          "name": "guardian",
          "type": "address",
          "internalType": "address"
        },
        {
          "name": "weight",
          "type": "uint256",
          "internalType": "uint256"
        }
      ],
      "outputs": [],
      "stateMutability": "nonpayable"
    },
    {
      "type": "function",
      "name": "allowValidatorRecovery",
      "inputs": [
        {
          "name": "validator",
          "type": "address",
          "internalType": "address"
        },
        {
          "name": "isInstalledContext",
          "type": "bytes",
          "internalType": "bytes"
        },
        {
          "name": "recoverySelector",
          "type": "bytes4",
          "internalType": "bytes4"
        }
      ],
      "outputs": [],
      "stateMutability": "nonpayable"
    },
    {
      "type": "function",
      "name": "canStartRecoveryRequest",
      "inputs": [
        {
          "name": "account",
          "type": "address",
          "internalType": "address"
        },
        {
          "name": "validator",
          "type": "address",
          "internalType": "address"
        }
      ],
      "outputs": [
        {
          "name": "",
          "type": "bool",
          "internalType": "bool"
        }
      ],
      "stateMutability": "view"
    },
    {
      "type": "function",
      "name": "cancelRecovery",
      "inputs": [],
      "outputs": [],
      "stateMutability": "nonpayable"
    },
    {
      "type": "function",
      "name": "changeThreshold",
      "inputs": [
        {
          "name": "threshold",
          "type": "uint256",
          "internalType": "uint256"
        }
      ],
      "outputs": [],
      "stateMutability": "nonpayable"
    },
    {
      "type": "function",
      "name": "completeRecovery",
      "inputs": [
        {
          "name": "account",
          "type": "address",
          "internalType": "address"
        },
        {
          "name": "recoveryData",
          "type": "bytes",
          "internalType": "bytes"
        }
      ],
      "outputs": [],
      "stateMutability": "nonpayable"
    },
    {
      "type": "function",
      "name": "computeAcceptanceTemplateId",
      "inputs": [
        {
          "name": "templateIdx",
          "type": "uint256",
          "internalType": "uint256"
        }
      ],
      "outputs": [
        {
          "name": "",
          "type": "uint256",
          "internalType": "uint256"
        }
      ],
      "stateMutability": "pure"
    },
    {
      "type": "function",
      "name": "computeEmailAuthAddress",
      "inputs": [
        {
          "name": "recoveredAccount",
          "type": "address",
          "internalType": "address"
        },
        {
          "name": "accountSalt",
          "type": "bytes32",
          "internalType": "bytes32"
        }
      ],
      "outputs": [
        {
          "name": "",
          "type": "address",
          "internalType": "address"
        }
      ],
      "stateMutability": "view"
    },
    {
      "type": "function",
      "name": "computeRecoveryTemplateId",
      "inputs": [
        {
          "name": "templateIdx",
          "type": "uint256",
          "internalType": "uint256"
        }
      ],
      "outputs": [
        {
          "name": "",
          "type": "uint256",
          "internalType": "uint256"
        }
      ],
      "stateMutability": "pure"
    },
    {
      "type": "function",
      "name": "configureRecovery",
      "inputs": [
        {
          "name": "guardians",
          "type": "address[]",
          "internalType": "address[]"
        },
        {
          "name": "weights",
          "type": "uint256[]",
          "internalType": "uint256[]"
        },
        {
          "name": "threshold",
          "type": "uint256",
          "internalType": "uint256"
        },
        {
          "name": "delay",
          "type": "uint256",
          "internalType": "uint256"
        },
        {
          "name": "expiry",
          "type": "uint256",
          "internalType": "uint256"
        }
      ],
      "outputs": [],
      "stateMutability": "nonpayable"
    },
    {
      "type": "function",
      "name": "disallowValidatorRecovery",
      "inputs": [
        {
          "name": "validator",
          "type": "address",
          "internalType": "address"
        },
        {
          "name": "prevValidator",
          "type": "address",
          "internalType": "address"
        },
        {
          "name": "recoverySelector",
          "type": "bytes4",
          "internalType": "bytes4"
        }
      ],
      "outputs": [],
      "stateMutability": "nonpayable"
    },
    {
      "type": "function",
      "name": "dkim",
      "inputs": [],
      "outputs": [
        {
          "name": "",
          "type": "address",
          "internalType": "address"
        }
      ],
      "stateMutability": "view"
    },
    {
      "type": "function",
      "name": "dkimAddr",
      "inputs": [],
      "outputs": [
        {
          "name": "",
          "type": "address",
          "internalType": "address"
        }
      ],
      "stateMutability": "view"
    },
    {
      "type": "function",
      "name": "emailAuthImplementation",
      "inputs": [],
      "outputs": [
        {
          "name": "",
          "type": "address",
          "internalType": "address"
        }
      ],
      "stateMutability": "view"
    },
    {
      "type": "function",
      "name": "emailAuthImplementationAddr",
      "inputs": [],
      "outputs": [
        {
          "name": "",
          "type": "address",
          "internalType": "address"
        }
      ],
      "stateMutability": "view"
    },
    {
      "type": "function",
      "name": "extractRecoveredAccountFromAcceptanceSubject",
      "inputs": [
        {
          "name": "subjectParams",
          "type": "bytes[]",
          "internalType": "bytes[]"
        },
        {
          "name": "templateIdx",
          "type": "uint256",
          "internalType": "uint256"
        }
      ],
      "outputs": [
        {
          "name": "",
          "type": "address",
          "internalType": "address"
        }
      ],
      "stateMutability": "view"
    },
    {
      "type": "function",
      "name": "extractRecoveredAccountFromRecoverySubject",
      "inputs": [
        {
          "name": "subjectParams",
          "type": "bytes[]",
          "internalType": "bytes[]"
        },
        {
          "name": "templateIdx",
          "type": "uint256",
          "internalType": "uint256"
        }
      ],
      "outputs": [
        {
          "name": "",
          "type": "address",
          "internalType": "address"
        }
      ],
      "stateMutability": "view"
    },
    {
      "type": "function",
      "name": "getAllowedSelectors",
      "inputs": [
        {
          "name": "account",
          "type": "address",
          "internalType": "address"
        }
      ],
      "outputs": [
        {
          "name": "",
          "type": "bytes4[]",
          "internalType": "bytes4[]"
        }
      ],
      "stateMutability": "view"
    },
    {
      "type": "function",
      "name": "getAllowedValidators",
      "inputs": [
        {
          "name": "account",
          "type": "address",
          "internalType": "address"
        }
      ],
      "outputs": [
        {
          "name": "",
          "type": "address[]",
          "internalType": "address[]"
        }
      ],
      "stateMutability": "view"
    },
    {
      "type": "function",
      "name": "getGuardian",
      "inputs": [
        {
          "name": "account",
          "type": "address",
          "internalType": "address"
        },
        {
          "name": "guardian",
          "type": "address",
          "internalType": "address"
        }
      ],
      "outputs": [
        {
          "name": "",
          "type": "tuple",
          "internalType": "struct GuardianStorage",
          "components": [
            {
              "name": "status",
              "type": "uint8",
              "internalType": "enum GuardianStatus"
            },
            {
              "name": "weight",
              "type": "uint256",
              "internalType": "uint256"
            }
          ]
        }
      ],
      "stateMutability": "view"
    },
    {
      "type": "function",
      "name": "getGuardianConfig",
      "inputs": [
        {
          "name": "account",
          "type": "address",
          "internalType": "address"
        }
      ],
      "outputs": [
        {
          "name": "",
          "type": "tuple",
          "internalType": "struct IGuardianManager.GuardianConfig",
          "components": [
            {
              "name": "guardianCount",
              "type": "uint256",
              "internalType": "uint256"
            },
            {
              "name": "totalWeight",
              "type": "uint256",
              "internalType": "uint256"
            },
            {
              "name": "acceptedWeight",
              "type": "uint256",
              "internalType": "uint256"
            },
            {
              "name": "threshold",
              "type": "uint256",
              "internalType": "uint256"
            }
          ]
        }
      ],
      "stateMutability": "view"
    },
    {
      "type": "function",
      "name": "getRecoveryConfig",
      "inputs": [
        {
          "name": "account",
          "type": "address",
          "internalType": "address"
        }
      ],
      "outputs": [
        {
          "name": "",
          "type": "tuple",
          "internalType": "struct IEmailRecoveryManager.RecoveryConfig",
          "components": [
            {
              "name": "delay",
              "type": "uint256",
              "internalType": "uint256"
            },
            {
              "name": "expiry",
              "type": "uint256",
              "internalType": "uint256"
            }
          ]
        }
      ],
      "stateMutability": "view"
    },
    {
      "type": "function",
      "name": "getRecoveryRequest",
      "inputs": [
        {
          "name": "account",
          "type": "address",
          "internalType": "address"
        }
      ],
      "outputs": [
        {
          "name": "",
          "type": "tuple",
          "internalType": "struct IEmailRecoveryManager.RecoveryRequest",
          "components": [
            {
              "name": "executeAfter",
              "type": "uint256",
              "internalType": "uint256"
            },
            {
              "name": "executeBefore",
              "type": "uint256",
              "internalType": "uint256"
            },
            {
              "name": "currentWeight",
              "type": "uint256",
              "internalType": "uint256"
            },
            {
              "name": "recoveryDataHash",
              "type": "bytes32",
              "internalType": "bytes32"
            }
          ]
        }
      ],
      "stateMutability": "view"
    },
    {
      "type": "function",
      "name": "handleAcceptance",
      "inputs": [
        {
          "name": "emailAuthMsg",
          "type": "tuple",
          "internalType": "struct EmailAuthMsg",
          "components": [
            {
              "name": "templateId",
              "type": "uint256",
              "internalType": "uint256"
            },
            {
              "name": "subjectParams",
              "type": "bytes[]",
              "internalType": "bytes[]"
            },
            {
              "name": "skipedSubjectPrefix",
              "type": "uint256",
              "internalType": "uint256"
            },
            {
              "name": "proof",
              "type": "tuple",
              "internalType": "struct EmailProof",
              "components": [
                {
                  "name": "domainName",
                  "type": "string",
                  "internalType": "string"
                },
                {
                  "name": "publicKeyHash",
                  "type": "bytes32",
                  "internalType": "bytes32"
                },
                {
                  "name": "timestamp",
                  "type": "uint256",
                  "internalType": "uint256"
                },
                {
                  "name": "maskedSubject",
                  "type": "string",
                  "internalType": "string"
                },
                {
                  "name": "emailNullifier",
                  "type": "bytes32",
                  "internalType": "bytes32"
                },
                {
                  "name": "accountSalt",
                  "type": "bytes32",
                  "internalType": "bytes32"
                },
                {
                  "name": "isCodeExist",
                  "type": "bool",
                  "internalType": "bool"
                },
                {
                  "name": "proof",
                  "type": "bytes",
                  "internalType": "bytes"
                }
              ]
            }
          ]
        },
        {
          "name": "templateIdx",
          "type": "uint256",
          "internalType": "uint256"
        }
      ],
      "outputs": [],
      "stateMutability": "nonpayable"
    },
    {
      "type": "function",
      "name": "handleRecovery",
      "inputs": [
        {
          "name": "emailAuthMsg",
          "type": "tuple",
          "internalType": "struct EmailAuthMsg",
          "components": [
            {
              "name": "templateId",
              "type": "uint256",
              "internalType": "uint256"
            },
            {
              "name": "subjectParams",
              "type": "bytes[]",
              "internalType": "bytes[]"
            },
            {
              "name": "skipedSubjectPrefix",
              "type": "uint256",
              "internalType": "uint256"
            },
            {
              "name": "proof",
              "type": "tuple",
              "internalType": "struct EmailProof",
              "components": [
                {
                  "name": "domainName",
                  "type": "string",
                  "internalType": "string"
                },
                {
                  "name": "publicKeyHash",
                  "type": "bytes32",
                  "internalType": "bytes32"
                },
                {
                  "name": "timestamp",
                  "type": "uint256",
                  "internalType": "uint256"
                },
                {
                  "name": "maskedSubject",
                  "type": "string",
                  "internalType": "string"
                },
                {
                  "name": "emailNullifier",
                  "type": "bytes32",
                  "internalType": "bytes32"
                },
                {
                  "name": "accountSalt",
                  "type": "bytes32",
                  "internalType": "bytes32"
                },
                {
                  "name": "isCodeExist",
                  "type": "bool",
                  "internalType": "bool"
                },
                {
                  "name": "proof",
                  "type": "bytes",
                  "internalType": "bytes"
                }
              ]
            }
          ]
        },
        {
          "name": "templateIdx",
          "type": "uint256",
          "internalType": "uint256"
        }
      ],
      "outputs": [],
      "stateMutability": "nonpayable"
    },
    {
      "type": "function",
      "name": "isActivated",
      "inputs": [
        {
          "name": "account",
          "type": "address",
          "internalType": "address"
        }
      ],
      "outputs": [
        {
          "name": "",
          "type": "bool",
          "internalType": "bool"
        }
      ],
      "stateMutability": "view"
    },
    {
      "type": "function",
      "name": "isInitialized",
      "inputs": [
        {
          "name": "account",
          "type": "address",
          "internalType": "address"
        }
      ],
      "outputs": [
        {
          "name": "",
          "type": "bool",
          "internalType": "bool"
        }
      ],
      "stateMutability": "view"
    },
    {
      "type": "function",
      "name": "isModuleType",
      "inputs": [
        {
          "name": "typeID",
          "type": "uint256",
          "internalType": "uint256"
        }
      ],
      "outputs": [
        {
          "name": "",
          "type": "bool",
          "internalType": "bool"
        }
      ],
      "stateMutability": "pure"
    },
    {
      "type": "function",
      "name": "name",
      "inputs": [],
      "outputs": [
        {
          "name": "",
          "type": "string",
          "internalType": "string"
        }
      ],
      "stateMutability": "pure"
    },
    {
      "type": "function",
      "name": "onInstall",
      "inputs": [
        {
          "name": "data",
          "type": "bytes",
          "internalType": "bytes"
        }
      ],
      "outputs": [],
      "stateMutability": "nonpayable"
    },
    {
      "type": "function",
      "name": "onUninstall",
      "inputs": [
        {
          "name": "",
          "type": "bytes",
          "internalType": "bytes"
        }
      ],
      "outputs": [],
      "stateMutability": "nonpayable"
    },
    {
      "type": "function",
      "name": "recoverySubjectTemplates",
      "inputs": [],
      "outputs": [
        {
          "name": "",
          "type": "string[][]",
          "internalType": "string[][]"
        }
      ],
      "stateMutability": "view"
    },
    {
      "type": "function",
      "name": "removeGuardian",
      "inputs": [
        {
          "name": "guardian",
          "type": "address",
          "internalType": "address"
        }
      ],
      "outputs": [],
      "stateMutability": "nonpayable"
    },
    {
      "type": "function",
      "name": "subjectHandler",
      "inputs": [],
      "outputs": [
        {
          "name": "",
          "type": "address",
          "internalType": "address"
        }
      ],
      "stateMutability": "view"
    },
    {
      "type": "function",
      "name": "updateRecoveryConfig",
      "inputs": [
        {
          "name": "recoveryConfig",
          "type": "tuple",
          "internalType": "struct IEmailRecoveryManager.RecoveryConfig",
          "components": [
            {
              "name": "delay",
              "type": "uint256",
              "internalType": "uint256"
            },
            {
              "name": "expiry",
              "type": "uint256",
              "internalType": "uint256"
            }
          ]
        }
      ],
      "outputs": [],
      "stateMutability": "nonpayable"
    },
    {
      "type": "function",
      "name": "validatorCount",
      "inputs": [
        {
          "name": "account",
          "type": "address",
          "internalType": "address"
        }
      ],
      "outputs": [
        {
          "name": "count",
          "type": "uint256",
          "internalType": "uint256"
        }
      ],
      "stateMutability": "view"
    },
    {
      "type": "function",
      "name": "verifier",
      "inputs": [],
      "outputs": [
        {
          "name": "",
          "type": "address",
          "internalType": "address"
        }
      ],
      "stateMutability": "view"
    },
    {
      "type": "function",
      "name": "verifierAddr",
      "inputs": [],
      "outputs": [
        {
          "name": "",
          "type": "address",
          "internalType": "address"
        }
      ],
      "stateMutability": "view"
    },
    {
      "type": "function",
      "name": "version",
      "inputs": [],
      "outputs": [
        {
          "name": "",
          "type": "string",
          "internalType": "string"
        }
      ],
      "stateMutability": "pure"
    },
    {
      "type": "event",
      "name": "AddedGuardian",
      "inputs": [
        {
          "name": "account",
          "type": "address",
          "indexed": true,
          "internalType": "address"
        },
        {
          "name": "guardian",
          "type": "address",
          "indexed": true,
          "internalType": "address"
        },
        {
          "name": "weight",
          "type": "uint256",
          "indexed": false,
          "internalType": "uint256"
        }
      ],
      "anonymous": false
    },
    {
      "type": "event",
      "name": "ChangedThreshold",
      "inputs": [
        {
          "name": "account",
          "type": "address",
          "indexed": true,
          "internalType": "address"
        },
        {
          "name": "threshold",
          "type": "uint256",
          "indexed": false,
          "internalType": "uint256"
        }
      ],
      "anonymous": false
    },
    {
      "type": "event",
      "name": "GuardianAccepted",
      "inputs": [
        {
          "name": "account",
          "type": "address",
          "indexed": true,
          "internalType": "address"
        },
        {
          "name": "guardian",
          "type": "address",
          "indexed": true,
          "internalType": "address"
        }
      ],
      "anonymous": false
    },
    {
      "type": "event",
      "name": "GuardianStatusUpdated",
      "inputs": [
        {
          "name": "account",
          "type": "address",
          "indexed": true,
          "internalType": "address"
        },
        {
          "name": "guardian",
          "type": "address",
          "indexed": true,
          "internalType": "address"
        },
        {
          "name": "newStatus",
          "type": "uint8",
          "indexed": false,
          "internalType": "enum GuardianStatus"
        }
      ],
      "anonymous": false
    },
    {
      "type": "event",
      "name": "NewValidatorRecovery",
      "inputs": [
        {
          "name": "account",
          "type": "address",
          "indexed": true,
          "internalType": "address"
        },
        {
          "name": "validator",
          "type": "address",
          "indexed": true,
          "internalType": "address"
        },
        {
          "name": "recoverySelector",
          "type": "bytes4",
          "indexed": false,
          "internalType": "bytes4"
        }
      ],
      "anonymous": false
    },
    {
      "type": "event",
      "name": "RecoveryCancelled",
      "inputs": [
        {
          "name": "account",
          "type": "address",
          "indexed": true,
          "internalType": "address"
        }
      ],
      "anonymous": false
    },
    {
      "type": "event",
      "name": "RecoveryCompleted",
      "inputs": [
        {
          "name": "account",
          "type": "address",
          "indexed": true,
          "internalType": "address"
        }
      ],
      "anonymous": false
    },
    {
      "type": "event",
      "name": "RecoveryConfigUpdated",
      "inputs": [
        {
          "name": "account",
          "type": "address",
          "indexed": true,
          "internalType": "address"
        },
        {
          "name": "delay",
          "type": "uint256",
          "indexed": false,
          "internalType": "uint256"
        },
        {
          "name": "expiry",
          "type": "uint256",
          "indexed": false,
          "internalType": "uint256"
        }
      ],
      "anonymous": false
    },
    {
      "type": "event",
      "name": "RecoveryConfigured",
      "inputs": [
        {
          "name": "account",
          "type": "address",
          "indexed": true,
          "internalType": "address"
        },
        {
          "name": "guardianCount",
          "type": "uint256",
          "indexed": false,
          "internalType": "uint256"
        },
        {
          "name": "totalWeight",
          "type": "uint256",
          "indexed": false,
          "internalType": "uint256"
        },
        {
          "name": "threshold",
          "type": "uint256",
          "indexed": false,
          "internalType": "uint256"
        }
      ],
      "anonymous": false
    },
    {
      "type": "event",
      "name": "RecoveryDeInitialized",
      "inputs": [
        {
          "name": "account",
          "type": "address",
          "indexed": true,
          "internalType": "address"
        }
      ],
      "anonymous": false
    },
    {
      "type": "event",
      "name": "RecoveryExecuted",
      "inputs": [
        {
          "name": "account",
          "type": "address",
          "indexed": true,
          "internalType": "address"
        },
        {
          "name": "validator",
          "type": "address",
          "indexed": true,
          "internalType": "address"
        }
      ],
      "anonymous": false
    },
    {
      "type": "event",
      "name": "RecoveryProcessed",
      "inputs": [
        {
          "name": "account",
          "type": "address",
          "indexed": true,
          "internalType": "address"
        },
        {
          "name": "guardian",
          "type": "address",
          "indexed": true,
          "internalType": "address"
        },
        {
          "name": "executeAfter",
          "type": "uint256",
          "indexed": false,
          "internalType": "uint256"
        },
        {
          "name": "executeBefore",
          "type": "uint256",
          "indexed": false,
          "internalType": "uint256"
        },
        {
          "name": "recoveryDataHash",
          "type": "bytes32",
          "indexed": false,
          "internalType": "bytes32"
        }
      ],
      "anonymous": false
    },
    {
      "type": "event",
      "name": "RemovedGuardian",
      "inputs": [
        {
          "name": "account",
          "type": "address",
          "indexed": true,
          "internalType": "address"
        },
        {
          "name": "guardian",
          "type": "address",
          "indexed": true,
          "internalType": "address"
        },
        {
          "name": "weight",
          "type": "uint256",
          "indexed": false,
          "internalType": "uint256"
        }
      ],
      "anonymous": false
    },
    {
      "type": "event",
      "name": "RemovedValidatorRecovery",
      "inputs": [
        {
          "name": "account",
          "type": "address",
          "indexed": true,
          "internalType": "address"
        },
        {
          "name": "validator",
          "type": "address",
          "indexed": true,
          "internalType": "address"
        },
        {
          "name": "recoverySelector",
          "type": "bytes4",
          "indexed": false,
          "internalType": "bytes4"
        }
      ],
      "anonymous": false
    },
    {
      "type": "error",
      "name": "AccountNotConfigured",
      "inputs": []
    },
    {
      "type": "error",
      "name": "AddressAlreadyGuardian",
      "inputs": []
    },
    {
      "type": "error",
      "name": "AddressNotGuardianForAccount",
      "inputs": []
    },
    {
      "type": "error",
      "name": "AlreadyInitialized",
      "inputs": [
        {
          "name": "smartAccount",
          "type": "address",
          "internalType": "address"
        }
      ]
    },
    {
      "type": "error",
      "name": "DelayMoreThanExpiry",
      "inputs": [
        {
          "name": "delay",
          "type": "uint256",
          "internalType": "uint256"
        },
        {
          "name": "expiry",
          "type": "uint256",
          "internalType": "uint256"
        }
      ]
    },
    {
      "type": "error",
      "name": "DelayNotPassed",
      "inputs": [
        {
          "name": "blockTimestamp",
          "type": "uint256",
          "internalType": "uint256"
        },
        {
          "name": "executeAfter",
          "type": "uint256",
          "internalType": "uint256"
        }
      ]
    },
    {
      "type": "error",
      "name": "IncorrectNumberOfWeights",
      "inputs": [
        {
          "name": "guardianCount",
          "type": "uint256",
          "internalType": "uint256"
        },
        {
          "name": "weightCount",
          "type": "uint256",
          "internalType": "uint256"
        }
      ]
    },
    {
      "type": "error",
      "name": "InvalidAccountAddress",
      "inputs": []
    },
    {
      "type": "error",
      "name": "InvalidDkimRegistry",
      "inputs": []
    },
    {
      "type": "error",
      "name": "InvalidEmailAuthImpl",
      "inputs": []
    },
    {
      "type": "error",
      "name": "InvalidGuardianAddress",
      "inputs": [
        {
          "name": "guardian",
          "type": "address",
          "internalType": "address"
        }
      ]
    },
    {
      "type": "error",
      "name": "InvalidGuardianStatus",
      "inputs": [
        {
          "name": "guardianStatus",
          "type": "uint8",
          "internalType": "enum GuardianStatus"
        },
        {
          "name": "expectedGuardianStatus",
          "type": "uint8",
          "internalType": "enum GuardianStatus"
        }
      ]
    },
    {
      "type": "error",
      "name": "InvalidGuardianWeight",
      "inputs": []
    },
    {
      "type": "error",
      "name": "InvalidOnInstallData",
      "inputs": []
    },
    {
      "type": "error",
      "name": "InvalidRecoveryDataHash",
      "inputs": [
        {
          "name": "recoveryDataHash",
          "type": "bytes32",
          "internalType": "bytes32"
        },
        {
          "name": "expectedRecoveryDataHash",
          "type": "bytes32",
          "internalType": "bytes32"
        }
      ]
    },
    {
      "type": "error",
      "name": "InvalidSelector",
      "inputs": [
        {
          "name": "selector",
          "type": "bytes4",
          "internalType": "bytes4"
        }
      ]
    },
    {
      "type": "error",
      "name": "InvalidSubjectHandler",
      "inputs": []
    },
    {
      "type": "error",
      "name": "InvalidValidator",
      "inputs": [
        {
          "name": "validator",
          "type": "address",
          "internalType": "address"
        }
      ]
    },
    {
      "type": "error",
      "name": "InvalidVerifier",
      "inputs": []
    },
    {
      "type": "error",
      "name": "LinkedList_AlreadyInitialized",
      "inputs": []
    },
    {
      "type": "error",
      "name": "LinkedList_EntryAlreadyInList",
      "inputs": [
        {
          "name": "entry",
          "type": "address",
          "internalType": "address"
        }
      ]
    },
    {
      "type": "error",
      "name": "LinkedList_InvalidEntry",
      "inputs": [
        {
          "name": "entry",
          "type": "address",
          "internalType": "address"
        }
      ]
    },
    {
      "type": "error",
      "name": "LinkedList_InvalidPage",
      "inputs": []
    },
    {
      "type": "error",
      "name": "MaxNumberOfGuardiansReached",
      "inputs": []
    },
    {
      "type": "error",
      "name": "MaxValidatorsReached",
      "inputs": []
    },
    {
      "type": "error",
      "name": "NoRecoveryConfigured",
      "inputs": []
    },
    {
      "type": "error",
      "name": "NoRecoveryInProcess",
      "inputs": []
    },
    {
      "type": "error",
      "name": "NotEnoughApprovals",
      "inputs": [
        {
          "name": "currentWeight",
          "type": "uint256",
          "internalType": "uint256"
        },
        {
          "name": "threshold",
          "type": "uint256",
          "internalType": "uint256"
        }
      ]
    },
    {
      "type": "error",
      "name": "NotInitialized",
      "inputs": [
        {
          "name": "smartAccount",
          "type": "address",
          "internalType": "address"
        }
      ]
    },
    {
      "type": "error",
      "name": "RecoveryInProcess",
      "inputs": []
    },
    {
      "type": "error",
      "name": "RecoveryIsNotActivated",
      "inputs": []
    },
    {
      "type": "error",
      "name": "RecoveryModuleNotInitialized",
      "inputs": []
    },
    {
      "type": "error",
      "name": "RecoveryRequestExpired",
      "inputs": [
        {
          "name": "blockTimestamp",
          "type": "uint256",
          "internalType": "uint256"
        },
        {
          "name": "executeBefore",
          "type": "uint256",
          "internalType": "uint256"
        }
      ]
    },
    {
      "type": "error",
      "name": "RecoveryWindowTooShort",
      "inputs": [
        {
          "name": "recoveryWindow",
          "type": "uint256",
          "internalType": "uint256"
        }
      ]
    },
    {
      "type": "error",
      "name": "SetupAlreadyCalled",
      "inputs": []
    },
    {
      "type": "error",
      "name": "SetupNotCalled",
      "inputs": []
    },
    {
      "type": "error",
      "name": "StatusCannotBeTheSame",
      "inputs": [
        {
          "name": "newStatus",
          "type": "uint8",
          "internalType": "enum GuardianStatus"
        }
      ]
    },
    {
      "type": "error",
      "name": "ThresholdCannotBeZero",
      "inputs": []
    },
    {
      "type": "error",
      "name": "ThresholdExceedsAcceptedWeight",
      "inputs": [
        {
          "name": "threshold",
          "type": "uint256",
          "internalType": "uint256"
        },
        {
          "name": "acceptedWeight",
          "type": "uint256",
          "internalType": "uint256"
        }
      ]
    },
    {
      "type": "error",
      "name": "ThresholdExceedsTotalWeight",
      "inputs": [
        {
          "name": "threshold",
          "type": "uint256",
          "internalType": "uint256"
        },
        {
          "name": "totalWeight",
          "type": "uint256",
          "internalType": "uint256"
        }
      ]
    },
    {
      "type": "error",
      "name": "TooManyValuesToRemove",
      "inputs": []
    }
  ],
  "bytecode": {
    "object": "0x60a060405234801561001057600080fd5b50604051614ee1380380614ee183398101604081905261002f91610139565b838383836001600160a01b03841661005a5760405163baa3de5f60e01b815260040160405180910390fd5b6001600160a01b0383166100815760405163260ce05b60e01b815260040160405180910390fd5b6001600160a01b0382166100a85760405163e98100fb60e01b815260040160405180910390fd5b6001600160a01b0381166100cf5760405163436dcac560e01b815260040160405180910390fd5b600080546001600160a01b03199081166001600160a01b0396871617909155600180548216948616949094179093556002805490931691841691909117909155166080525061018d92505050565b80516001600160a01b038116811461013457600080fd5b919050565b6000806000806080858703121561014f57600080fd5b6101588561011d565b93506101666020860161011d565b92506101746040860161011d565b91506101826060860161011d565b905092959194509250565b608051614d086101d960003960008181610519015281816111d5015281816114ae015281816115b7015281816122d5015281816123fb01528181612b2d0152612cd80152614d086000f3fe608060405234801561001057600080fd5b506004361061025e5760003560e01c8063663ea2e211610146578063b264314f116100c3578063c9faa7c511610087578063c9faa7c5146105fd578063d60b347f1461062c578063d779a8501461063f578063da34a85014610652578063e81dcaf214610672578063ecd059611461068557600080fd5b8063b264314f14610586578063b6201692146105a6578063b68126fa146105b7578063c18d09cf146105ca578063c7f53022146105dd57600080fd5b8063714041561161010a578063714041561461053b578063714897df1461054e57806373357f85146105565780638a91b0e314610569578063991506801461057c57600080fd5b8063663ea2e2146104c8578063694e80c3146104db5780636d61fe70146104ee5780636da9951514610501578063701e3eec1461051457600080fd5b80632b7ac3f3116101df578063400ad5ce116101a3578063400ad5ce146104455780634f9a28b91461045657806354fd4d50146104695780635bafadda1461048a57806360bb9d5c14610492578063647e2853146104a557600080fd5b80632b7ac3f3146103d857806330e6a5ab146103e957806332ccc2f2146103fc5780633a8eab141461041d5780633e91cdcd1461043057600080fd5b80631098e02e116102265780631098e02e146102f7578063111e5313146103225780631788178f1461033557806318baa84b146103485780632788bbda1461036857600080fd5b806301eedf2c146102635780630481af671461027857806306fdde031461028b5780630ba234d6146102a95780630bb6094a146102b1575b600080fd5b61027661027136600461382c565b610699565b005b610276610286366004613a4c565b6107e0565b610293610d42565b6040516102a09190613c17565b60405180910390f35b610276610d62565b6102c46102bf366004613c2a565b610de2565b6040516102a091908151815260208083015190820152604080830151908201526060918201519181019190915260800190565b60025461030a906001600160a01b031681565b6040516001600160a01b0390911681526020016102a0565b610276610330366004613c47565b610e58565b610276610343366004613c73565b610f1e565b61035b610356366004613c2a565b6110ad565b6040516102a09190613cc3565b6103bd610376366004613c2a565b6040805180820190915260008082526020820152506001600160a01b0316600090815260056020908152604091829020825180840190935280548352600101549082015290565b604080518251815260209283015192810192909252016102a0565b6000546001600160a01b031661030a565b61030a6103f7366004613d10565b6111bb565b61040f61040a366004613d54565b611256565b6040519081526020016102a0565b61030a61042b366004613c47565b6112ae565b6104386114aa565b6040516102a09190613dc9565b6001546001600160a01b031661030a565b6102c4610464366004613c2a565b611537565b6040805180820190915260058152640312e302e360dc1b6020820152610293565b6104386115b3565b6102766104a0366004613ef3565b611613565b6104b86104b3366004613f75565b6116cd565b60405190151581526020016102a0565b60005461030a906001600160a01b031681565b6102766104e9366004613d54565b611718565b6102766104fc366004613ff6565b611894565b61040f61050f366004613d54565b61191b565b61030a7f000000000000000000000000000000000000000000000000000000000000000081565b610276610549366004613c2a565b611931565b61040f602081565b60015461030a906001600160a01b031681565b610276610577366004613ff6565b611b7c565b61040f6202a30081565b61040f610594366004613c2a565b60086020526000908152604090205481565b6002546001600160a01b031661030a565b6102766105c5366004613a4c565b611c24565b6102766105d8366004614037565b611de6565b6105f06105eb366004613c2a565b611fd8565b6040516102a0919061408b565b6104b861060b366004613c2a565b6001600160a01b031660009081526003602081905260409091200154151590565b6104b861063a366004613c2a565b61200b565b61027661064d3660046140cc565b612022565b610665610660366004613f75565b612285565b6040516102a0919061415a565b61030a610680366004613d10565b6122bb565b6104b8610693366004613d54565b60021490565b336000908152600760209081526040808320600184529091529020546001600160a01b03166106db57604051630b088c2360e01b815260040160405180910390fd5b3360009081526007602052604090206106f590838561230c565b33600090815260086020526040812080549161071083614191565b90915550506001600160a01b038316600090815260096020908152604080832033845290915290205460e01b6001600160e01b03199081169082161461077457806040516312ba286f60e01b815260040161076b91906141a8565b60405180910390fd5b6001600160a01b038316600081815260096020908152604080832033808552925291829020805463ffffffff1916905590517ff0197ce362f35457b805abe6aecdbf4435a7d26f4e4a8721f3ccf16e40a9fa89906107d39085906141a8565b60405180910390a3505050565b60006107f08360200151836122bb565b90506001600160a01b0381166108435760405162461bcd60e51b81526020600482015260186024820152771a5b9d985b1a59081858d8dbdd5b9d081a5b88195b585a5b60421b604482015260640161076b565b600061085782856060015160a001516112ae565b9050600061086484611256565b855190915081146108ad5760405162461bcd60e51b81526020600482015260136024820152721a5b9d985b1a59081d195b5c1b185d19481a59606a1b604482015260640161076b565b606085015160c0015115156001146108fe5760405162461bcd60e51b81526020600482015260146024820152736973436f646545786973742069732066616c736560601b604482015260640161076b565b6000826001600160a01b03163b600003610c0a576000866060015160a0015161092f6002546001600160a01b031690565b606089015160a001516040516001600160a01b0389166024820152604481019190915230606482015260840160408051601f198184030181529181526020820180516001600160e01b03166369359f3760e11b1790525161098f906137ed565b61099a9291906141bd565b8190604051809103906000f59050801580156109ba573d6000803e3d6000fd5b509050809150816001600160a01b031663557cf5ef6109e16001546001600160a01b031690565b6040516001600160e01b031960e084901b1681526001600160a01b039091166004820152602401600060405180830381600087803b158015610a2257600080fd5b505af1158015610a36573d6000803e3d6000fd5b50505050816001600160a01b0316634141407c610a5b6000546001600160a01b031690565b6040516001600160e01b031960e084901b1681526001600160a01b039091166004820152602401600060405180830381600087803b158015610a9c57600080fd5b505af1158015610ab0573d6000803e3d6000fd5b5050505060005b610abf6115b3565b51811015610b5b57826001600160a01b031663c4b84df4610adf83611256565b610ae76115b3565b8481518110610af857610af86141e1565b60200260200101516040518363ffffffff1660e01b8152600401610b1d9291906141f7565b600060405180830381600087803b158015610b3757600080fd5b505af1158015610b4b573d6000803e3d6000fd5b505060019092019150610ab79050565b5060005b610b676114aa565b51811015610c0357826001600160a01b031663c4b84df4610b878361191b565b610b8f6114aa565b8481518110610ba057610ba06141e1565b60200260200101516040518363ffffffff1660e01b8152600401610bc59291906141f7565b600060405180830381600087803b158015610bdf57600080fd5b505af1158015610bf3573d6000803e3d6000fd5b505060019092019150610b5f9050565b5050610cc4565b829050306001600160a01b0316816001600160a01b031663f77c47916040518163ffffffff1660e01b8152600401602060405180830381865afa158015610c55573d6000803e3d6000fd5b505050506040513d601f19601f82011682018060405250810190610c799190614210565b6001600160a01b031614610cc45760405162461bcd60e51b815260206004820152601260248201527134b73b30b634b21031b7b73a3937b63632b960711b604482015260640161076b565b60405163ad3f5f9b60e01b81526001600160a01b0382169063ad3f5f9b90610cf090899060040161422d565b600060405180830381600087803b158015610d0a57600080fd5b505af1158015610d1e573d6000803e3d6000fd5b50505050610d3a838688602001518960600151608001516123e1565b505050505050565b6060604051806060016040528060248152602001614caf60249139905090565b336000908152600660205260408120600201549003610d94576040516387434f5160e01b815260040160405180910390fd5b336000818152600660205260408082208281556001810183905560028101839055600301829055517f8154b6c5e1fc90d44b49808ef93f9739148d0821411890f8cd684385e24b9f1e9190a2565b610e0d6040518060800160405280600081526020016000815260200160008152602001600081525090565b506001600160a01b0316600090815260036020818152604092839020835160808101855281548152600182015492810192909252600281015493820193909352910154606082015290565b604051634f9a28b960e01b81523360048201526000903090634f9a28b990602401608060405180830381865afa158015610e96573d6000803e3d6000fd5b505050506040513d601f19601f82011682018060405250810190610eba9190614300565b604001511115610edd57604051633e43a9bf60e21b815260040160405180910390fd5b336000908152600360208190526040822001549003610f0f5760405163ae69115b60e01b815260040160405180910390fd5b610f1a3383836125bf565b5050565b604051634f9a28b960e01b81523360048201526000903090634f9a28b990602401608060405180830381865afa158015610f5c573d6000803e3d6000fd5b505050506040513d601f19601f82011682018060405250810190610f809190614300565b604001511115610fa357604051633e43a9bf60e21b815260040160405180910390fd5b336000818152600360208190526040822001549003610fd5576040516366ecbd6d60e01b815260040160405180910390fd5b60208201518251111561100b5781516020830151604051632dd0a90f60e21b81526004810192909252602482015260440161076b565b8151602083015160009161101e9161434b565b90506202a3008110156110475760405163283cce6760e11b81526004810182905260240161076b565b6001600160a01b03821660008181526005602090815260409182902086518082558783015160019092018290558351908152918201527f1846bde2c0888937a0a3af4e9b851b2e78758487d44a7ec04ae4bb3dc356b495910160405180910390a2505050565b606060006110ba83611fd8565b80519091506000816001600160401b038111156110d9576110d9613873565b604051908082528060200260200182016040528015611102578160200160208202803683370190505b50905060005b828110156111b25760096000858381518110611126576111266141e1565b60200260200101516001600160a01b03166001600160a01b031681526020019081526020016000206000876001600160a01b03166001600160a01b0316815260200190815260200160002060009054906101000a900460e01b828281518110611191576111916141e1565b6001600160e01b031990921660209283029190910190910152600101611108565b50949350505050565b6040516330e6a5ab60e01b81526000906001600160a01b037f000000000000000000000000000000000000000000000000000000000000000016906330e6a5ab9061120c908690869060040161435e565b602060405180830381865afa158015611229573d6000803e3d6000fd5b505050506040513d601f19601f8201168201806040525081019061124d9190614210565b90505b92915050565b60408051600160208201526060918101829052600a608082015269414343455054414e434560b01b60a082015290810182905260009060c0015b60408051601f19818403018152919052805160209091012092915050565b60004661014414806112c157504661012c145b156113dd576113d630837f0100007934a4ec31a894c66e0d97810c45cade119a9dcba3f02c341c06aa86846112fe6002546001600160a01b031690565b6040516001600160a01b03891660248201526044810188905230606482015260840160408051601f19818403018152918152602080830180516001600160e01b03166369359f3760e11b1790529051611359939291016141bd565b60408051601f1981840301815282825280516020918201207f2020dba91b30cc0006188af794c2fb30dd8520db7e2c088b7fc7c103c00ca494848301526001600160a01b0396909616838301526060830194909452608082019290925260a0808201949094528151808203909401845260c0019052815191012090565b9050611250565b6113d682604051806020016113f1906137ed565b601f1982820381018352601f909101166040526114166002546001600160a01b031690565b6040516001600160a01b03881660248201526044810187905230606482015260840160408051601f19818403018152918152602080830180516001600160e01b03166369359f3760e11b1790529051611471939291016141bd565b60408051601f198184030181529082905261148f9291602001614380565b6040516020818303038152906040528051906020012061273c565b60607f00000000000000000000000000000000000000000000000000000000000000006001600160a01b0316633e91cdcd6040518163ffffffff1660e01b8152600401600060405180830381865afa15801561150a573d6000803e3d6000fd5b505050506040513d6000823e601f3d908101601f1916820160405261153291908101906143df565b905090565b6115656040518060800160405280600081526020016000815260200160008152602001600080191681525090565b506001600160a01b0316600090815260066020908152604091829020825160808101845281548152600182015492810192909252600281015492820192909252600390910154606082015290565b60607f00000000000000000000000000000000000000000000000000000000000000006001600160a01b0316635bafadda6040518163ffffffff1660e01b8152600401600060405180830381865afa15801561150a573d6000803e3d6000fd5b3360008181526003602081905260409091200154156116455760405163b3af559360e01b815260040160405180910390fd5b60008061165483898989612749565b6040805180820190915287815260208101879052919350915061167681610f1e565b60408051848152602081018490529081018890526001600160a01b038516907fe8d4b5048e4b6ac385ae4b62872cffb372825354882a4823833c9720bacdfc6a9060600160405180910390a2505050505050505050565b6000806116d984610de2565b9050806060015181604001511015801561171057506001600160a01b03841660009081526007602052604090206117109084612862565b949350505050565b604051634f9a28b960e01b81523360048201526000903090634f9a28b990602401608060405180830381865afa158015611756573d6000803e3d6000fd5b505050506040513d601f19601f8201168201806040525081019061177a9190614300565b60400151111561179d57604051633e43a9bf60e21b815260040160405180910390fd5b3360009081526003602081905260408220015490036117cf5760405163ae69115b60e01b815260040160405180910390fd5b3360009081526003602052604090206001015481111561182157336000908152600360205260409081902060010154905163eb912f7160e01b815261076b918391600401918252602082015260400190565b8060000361184257604051637a0920b360e11b815260040160405180910390fd5b3360008181526003602081905260409182902001839055517fde3e32a86d32ca955594af26f515d3dc60003ab279776b14b4012fe99d96f8f6906118899084815260200190565b60405180910390a250565b60008190036118b657604051632e111c4160e11b815260040160405180910390fd5b6000808080808080806118cb898b018b614536565b336000908152600760205260409020979f50959d50939b5091995097509550935091506118f79061289c565b611902888888612022565b61190f8585858585611613565b50505050505050505050565b6000600182604051602001611290929190614604565b604051634f9a28b960e01b81523360048201526000903090634f9a28b990602401608060405180830381865afa15801561196f573d6000803e3d6000fd5b505050506040513d601f19601f820116820180604052508101906119939190614300565b6040015111156119b657604051633e43a9bf60e21b815260040160405180910390fd5b336000818152600360208181526040808420815160808101835281548152600182015481850152600282015481840152930154606084015293835260049052918120611a0290846128f9565b33600090815260046020526040812091925090611a1f9085612972565b905080611a3f5760405163f3f7774960e01b815260040160405180910390fd5b600082602001518460200151611a55919061434b565b90508360600151811015611a8c57606084015160405163eb912f7160e01b815261076b918391600401918252602082015260400190565b336000908152600360205260408120805491611aa783614191565b9091555050602080840151336000908152600390925260408220600101805491929091611ad590849061434b565b909155506002905083516002811115611af057611af0614122565b03611b2457602080840151336000908152600390925260408220600201805491929091611b1e90849061434b565b90915550505b846001600160a01b0316336001600160a01b03167f99aeb23a57fa639a61aa8afa1b8b63e67a2e6d601c008c8a7cb4e0719992d1998560200151604051611b6d91815260200190565b60405180910390a35050505050565b6000611b8733611fd8565b905060005b8151811015611bee5760096000838381518110611bab57611bab6141e1565b6020908102919091018101516001600160a01b0316825281810192909252604090810160009081203382529092529020805463ffffffff19169055600101611b8c565b50336000908152600760205260409020611c07906129a4565b33600090815260086020526040812055611c1f6129fd565b505050565b6000611c348360200151836111bb565b90506001600160a01b038116611c875760405162461bcd60e51b81526020600482015260186024820152771a5b9d985b1a59081858d8dbdd5b9d081a5b88195b585a5b60421b604482015260640161076b565b6000611c9b82856060015160a001516112ae565b90506000816001600160a01b03163b11611cf75760405162461bcd60e51b815260206004820152601860248201527f677561726469616e206973206e6f74206465706c6f7965640000000000000000604482015260640161076b565b6000600184604051602001611d0d929190614604565b60408051601f19818403018152919052805160209091012085519091508114611d6e5760405162461bcd60e51b81526020600482015260136024820152721a5b9d985b1a59081d195b5c1b185d19481a59606a1b604482015260640161076b565b60405163ad3f5f9b60e01b815282906001600160a01b0382169063ad3f5f9b90611d9c90899060040161422d565b600060405180830381600087803b158015611db657600080fd5b505af1158015611dca573d6000803e3d6000fd5b50505050610d3a83868860200151896060015160800151612b13565b6001600160a01b038316611e0d5760405163200db56f60e11b815260040160405180910390fd5b6001600160a01b03831660008181526006602090815260408083208151608081018352815481526001820154818501526002820154818401526003918201546060820152948452918290528220015490819003611e7d57604051635337335b60e11b815260040160405180910390fd5b8082604001511015611eb35781604001518160405163443282f560e01b815260040161076b929190918252602082015260400190565b8151421015611ee1578151604051632f37ae3960e01b8152426004820152602481019190915260440161076b565b81602001514210611f14576020820151604051632b356baf60e11b8152426004820152602481019190915260440161076b565b60008484604051611f26929190614637565b6040518091039020905082606001518114611f64576060830151604051639e1a616f60e01b815261076b918391600401918252602082015260400190565b6001600160a01b0386166000908152600660205260408120818155600181018290556002810182905560030155611f9c868686612e7d565b6040516001600160a01b038716907f46f5008939fa0b4beb46ae7f0e8368318bb72b56608910ca71c23e83382f609f90600090a2505050505050565b6001600160a01b03811660009081526007602090815260408220606092916120039190600190612f77565b509392505050565b600061201682610de2565b60600151151592915050565b336000908152600760209081526040808320600184529091529020546001600160a01b031661206457604051630b088c2360e01b815260040160405180910390fd5b806001600160e01b03198116638a91b0e360e01b148061209457506001600160e01b031981166306d61fe760e41b145b806120af57506001600160e01b0319811663e9ae5c5360e01b145b806120ca57506001600160e01b0319811663f08a032360e01b145b806120e557506001600160e01b0319811663e19a9dd960e01b145b806120f857506001600160e01b03198116155b1561211857806040516312ba286f60e01b815260040161076b91906141a8565b60405163112d3a7d60e01b8152339063112d3a7d906121409060019088908890600401614647565b602060405180830381865afa15801561215d573d6000803e3d6000fd5b505050506040513d601f19601f820116820180604052508101906121819190614671565b6121a857604051628eae2b60e51b81526001600160a01b038516600482015260240161076b565b33600090815260086020908152604090912054106121d9576040516376bca46b60e11b815260040160405180910390fd5b3360009081526007602052604090206121f29085613123565b33600090815260086020526040812080549161220d8361468e565b90915550506001600160a01b038416600081815260096020908152604080832033808552925291829020805463ffffffff191660e087901c17905590517f83ccdcb4121fbd52f43483b0109351c571e564b33420da9b26a05346a739f66b906122779086906141a8565b60405180910390a350505050565b60408051808201909152600080825260208201526001600160a01b038316600090815260046020526040902061124d90836128f9565b60405163740ee57960e11b81526000906001600160a01b037f0000000000000000000000000000000000000000000000000000000000000000169063e81dcaf29061120c908690869060040161435e565b6001600160a01b038116158061232b57506001600160a01b0381166001145b1561235457604051637c84ecfb60e01b81526001600160a01b038316600482015260240161076b565b6001600160a01b0382811660009081526020859052604090205481169082161461239c57604051637c84ecfb60e01b81526001600160a01b038216600482015260240161076b565b6001600160a01b0390811660008181526020949094526040808520805494841686529085208054949093166001600160a01b0319948516179092559092528154169055565b60405163db914c8560e01b81526000906001600160a01b037f0000000000000000000000000000000000000000000000000000000000000000169063db914c859061243290879087906004016141f7565b602060405180830381865afa15801561244f573d6000803e3d6000fd5b505050506040513d601f19601f820116820180604052508101906124739190614210565b6001600160a01b038116600090815260066020526040902060020154909150156124b057604051633e43a9bf60e21b815260040160405180910390fd5b6001600160a01b038116600090815260036020819052604090912001546124ea5760405163c737140f60e01b815260040160405180910390fd5b60006124f68287612285565b905060018151600281111561250d5761250d614122565b14612531578051604051632b44da8d60e11b815261076b91906001906004016146a7565b61253d828760026131f9565b806020015160036000846001600160a01b03166001600160a01b03168152602001908152602001600020600201600082825461257991906146c2565b90915550506040516001600160a01b0380881691908416907f442abc7a4ecd5a019ce3f9fa872ad2d87c094248c412954aaf8ccf7a538e938c90600090a3505050505050565b6001600160a01b03821615806125e65750826001600160a01b0316826001600160a01b0316145b1561260f57604051631af7497560e01b81526001600160a01b038316600482015260240161076b565b8060000361262f5760405162a47bc760e51b815260040160405180910390fd5b600061267c8360405180604001604052806001600281111561265357612653614122565b815260209081018690526001600160a01b038816600090815260049091526040902091906132f6565b90508061269c57604051637270b0a760e11b815260040160405180910390fd5b6001600160a01b03841660009081526003602052604081208054916126c08361468e565b90915550506001600160a01b038416600090815260036020526040812060010180548492906126f09084906146c2565b92505081905550826001600160a01b0316846001600160a01b03167f6e56b96fb8216ff6218412de4842e5d754f98ee57d19d9ed40af02fac2b30d9c8460405161227791815260200190565b600061124d838330613395565b825182516000918291811461277e57845160405163166e79bd60e01b815261076b918391600401918252602082015260400190565b8360000361279f57604051637a0920b360e11b815260040160405180910390fd5b60005b818110156127ef576127e7888883815181106127c0576127c06141e1565b60200260200101518884815181106127da576127da6141e1565b60200260200101516125bf565b6001016127a2565b506001600160a01b038716600090815260036020526040902060010154808511156128375760405163eb912f7160e01b8152600481018690526024810182905260440161076b565b6001600160a01b03979097166000908152600360208190526040909120019390935550909492505050565b600060016001600160a01b0383161480159061124d5750506001600160a01b03908116600090815260209290925260409091205416151590565b60016000908152602082905260409020546001600160a01b0316156128d4576040516329e42f3360e11b815260040160405180910390fd5b60016000818152602092909252604090912080546001600160a01b0319169091179055565b60408051808201909152600080825260208201526001600160a01b03821660009081526002808501602052604091829020825180840190935280549091839160ff169081111561294b5761294b614122565b600281111561295c5761295c614122565b8152602001600182015481525050905092915050565b6001600160a01b03811660009081526002830160205260408120805460ff1916815560010181905561124d83836133bf565b60016000908152602082905260409020546001600160a01b03165b6001600160a01b03811615610f1a576001600160a01b03908116600090815260208390526040902080546001600160a01b03198116909155166129bf565b604051634f9a28b960e01b81523360048201526000903090634f9a28b990602401608060405180830381865afa158015612a3b573d6000803e3d6000fd5b505050506040513d601f19601f82011682018060405250810190612a5f9190614300565b604001511115612a8257604051633e43a9bf60e21b815260040160405180910390fd5b3360008181526005602090815260408083208381556001908101849055600690925282208281559081018290556002810182905560030155612ac3906133d4565b3360008181526003602081905260408083208381556001810184905560028101849055909101829055517fe07cb859e0fb96f60563e9ac3596b37d0c617a96f9f6db589548caaa99fa9b669190a2565b60405163740d946560e11b81526000906001600160a01b037f0000000000000000000000000000000000000000000000000000000000000000169063e81b28ca90612b6490879087906004016141f7565b602060405180830381865afa158015612b81573d6000803e3d6000fd5b505050506040513d601f19601f82011682018060405250810190612ba59190614210565b9050612bcc816001600160a01b031660009081526003602081905260409091200154151590565b612be95760405163c737140f60e01b815260040160405180910390fd5b6001600160a01b0381166000908152600360208181526040928390208351608081018552815481526001820154928101929092526002810154938201849052909101546060820181905290911015612c675760608101516040808301519051631f0fa60f60e21b81526004810192909252602482015260440161076b565b6000612c738388612285565b9050600281516002811115612c8a57612c8a614122565b14612cae578051604051632b44da8d60e11b815261076b91906002906004016146a7565b6001600160a01b03808416600090815260066020526040808220905163da06673960e01b815290927f0000000000000000000000000000000000000000000000000000000000000000169063da06673990612d0f908b908b906004016141f7565b602060405180830381865afa158015612d2c573d6000803e3d6000fd5b505050506040513d601f19601f82011682018060405250810190612d5091906146d5565b6003830154909150612d6457600382018190555b80826003015414612d98576003820154604051639e1a616f60e01b815261076b918391600401918252602082015260400190565b8260200151826002016000828254612db091906146c2565b90915550506060840151600283015410612e72576001600160a01b038516600090815260056020526040812054612de790426146c2565b6001600160a01b03871660009081526005602052604081206001015491925090612e1190426146c2565b8285556001850181905560408051848152602081018390529081018590529091506001600160a01b038c811691908916907f4ba32edb93f170b4f8da72336509b7d0604810e15c90427dddd7487e8d425fd19060600160405180910390a350505b505050505050505050565b600080612e8c838501856146ee565b90925090506001600160a01b038216612ec257604051628eae2b60e51b81526001600160a01b038316600482015260240161076b565b6020818101516001600160a01b038085166000908152600984526040808220928a168252919093529091205460e01b6001600160e01b031980821690831614612f2057816040516312ba286f60e01b815260040161076b91906141a8565b612f2d878560008661341a565b50836001600160a01b0316876001600160a01b03167f60f9f98be64687700419cfa6fdd7877bc88c6daeb10bc664a2be9fdd6b0c792160405160405180910390a350505050505050565b606060006001600160a01b038416600114801590612f9c5750612f9a8585612862565b155b15612fc557604051637c84ecfb60e01b81526001600160a01b038516600482015260240161076b565b82600003612fe65760405163f725081760e01b815260040160405180910390fd5b826001600160401b03811115612ffe57612ffe613873565b604051908082528060200260200182016040528015613027578160200160208202803683370190505b506001600160a01b03808616600090815260208890526040812054929450911691505b6001600160a01b0382161580159061306c57506001600160a01b038216600114155b801561307757508381105b156130d1578183828151811061308f5761308f6141e1565b6001600160a01b0392831660209182029290920181019190915292811660009081529287905260409092205490911690806130c98161468e565b91505061304a565b6001600160a01b0382166001148015906130eb5750600081115b1561311757826130fc60018361434b565b8151811061310c5761310c6141e1565b602002602001015191505b80835250935093915050565b6001600160a01b038116158061314257506001600160a01b0381166001145b1561316b57604051637c84ecfb60e01b81526001600160a01b038216600482015260240161076b565b6001600160a01b0381811660009081526020849052604090205416156131af57604051631034f46960e21b81526001600160a01b038216600482015260240161076b565b60016000818152602093909352604080842080546001600160a01b039485168087529286208054959091166001600160a01b03199586161790559190935280549091169091179055565b6001600160a01b038316600090815260046020526040812061321b90846128f9565b8051909150600281111561323157613231614122565b82600281111561324357613243614122565b036132635781604051637e12071160e01b815260040161076b919061473d565b6132b283604051806040016040528085600281111561328457613284614122565b8152602085810151918101919091526001600160a01b038816600090815260049091526040902091906132f6565b50826001600160a01b0316846001600160a01b03167f6ae2e7cc465b15375a93daf2ea1e59f4c98d82465e7f2885f0b864db38b2797484604051612277919061473d565b6001600160a01b0382166000908152600280850160205260408220835181548593839160ff191690600190849081111561333257613332614122565b021790555060209190910151600190910155600061335085856134d0565b9050600061335d866134e5565b905081801561336c5750602081115b1561338a5760405163bb6c1e9360e01b815260040160405180910390fd5b5090505b9392505050565b6000604051836040820152846020820152828152600b8101905060ff815360559020949350505050565b600061124d836001600160a01b0384166134ef565b6001600160a01b0381166000908152600460205260409020613417906133f9906135e2565b6001600160a01b0383166000908152600460205260409020906135ed565b50565b6060600061342a818080806136a0565b9050856001600160a01b031663d691c9648261344788888861370b565b6040518363ffffffff1660e01b815260040161346492919061474b565b6000604051808303816000875af1158015613483573d6000803e3d6000fd5b505050506040513d6000823e601f3d908101601f191682016040526134ab9190810190614764565b6000815181106134bd576134bd6141e1565b6020026020010151915050949350505050565b600061124d836001600160a01b03841661373a565b6000611250825490565b600081815260018301602052604081205480156135d857600061351360018361434b565b85549091506000906135279060019061434b565b905080821461358c576000866000018281548110613547576135476141e1565b906000526020600020015490508087600001848154811061356a5761356a6141e1565b6000918252602080832090910192909255918252600188019052604090208390555b855486908061359d5761359d614822565b600190038181906000526020600020016000905590558560010160008681526020019081526020016000206000905560019350505050611250565b6000915050611250565b606061125082613789565b6020815111156136105760405163e023c21160e01b815260040160405180910390fd5b60005b8151811015611c1f57826002016000838381518110613634576136346141e1565b6020908102919091018101516001600160a01b031682528101919091526040016000908120805460ff191681556001015581516136979083908390811061367d5761367d6141e1565b6020026020010151846000016133bf90919063ffffffff16565b50600101613613565b604080516001600160f81b03198087166020830152851660218201526000602282018190526001600160e01b03198516602683015269ffffffffffffffffffff198416602a830152910160405160208183030381529060405261370290614838565b95945050505050565b60608383836040516020016137229392919061485f565b60405160208183030381529060405290509392505050565b600081815260018301602052604081205461378157508154600181810184556000848152602080822090930184905584548482528286019093526040902091909155611250565b506000611250565b6060600061338e836060816000018054806020026020016040519081016040528092919081815260200182805480156137e157602002820191906000526020600020905b8154815260200190600101908083116137cd575b50505050509050919050565b6104108061489f83390190565b6001600160a01b038116811461341757600080fd5b80356001600160e01b03198116811461382757600080fd5b919050565b60008060006060848603121561384157600080fd5b833561384c816137fa565b9250602084013561385c816137fa565b915061386a6040850161380f565b90509250925092565b634e487b7160e01b600052604160045260246000fd5b604051608081016001600160401b03811182821017156138ab576138ab613873565b60405290565b60405161010081016001600160401b03811182821017156138ab576138ab613873565b604051601f8201601f191681016001600160401b03811182821017156138fc576138fc613873565b604052919050565b60006001600160401b0382111561391d5761391d613873565b5060051b60200190565b60006001600160401b0382111561394057613940613873565b50601f01601f191660200190565b600082601f83011261395f57600080fd5b813560208301600061397861397384613927565b6138d4565b905082815285838301111561398c57600080fd5b82826020830137600092810160200192909252509392505050565b600082601f8301126139b857600080fd5b81356139c661397382613904565b8082825260208201915060208360051b8601019250858311156139e857600080fd5b602085015b83811015613a295780356001600160401b03811115613a0b57600080fd5b613a1a886020838a010161394e565b845250602092830192016139ed565b5095945050505050565b801515811461341757600080fd5b803561382781613a33565b60008060408385031215613a5f57600080fd5b82356001600160401b03811115613a7557600080fd5b830160808186031215613a8757600080fd5b613a8f613889565b8135815260208201356001600160401b03811115613aac57600080fd5b613ab8878285016139a7565b6020830152506040828101359082015260608201356001600160401b03811115613ae157600080fd5b91909101906101008287031215613af757600080fd5b613aff6138b1565b82356001600160401b03811115613b1557600080fd5b613b218882860161394e565b825250602083810135908201526040808401359082015260608301356001600160401b03811115613b5157600080fd5b613b5d8882860161394e565b6060830152506080838101359082015260a08084013590820152613b8360c08401613a41565b60c082015260e08301356001600160401b03811115613ba157600080fd5b613bad8882860161394e565b60e083015250606082015295602094909401359450505050565b60005b83811015613be2578181015183820152602001613bca565b50506000910152565b60008151808452613c03816020860160208601613bc7565b601f01601f19169290920160200192915050565b60208152600061124d6020830184613beb565b600060208284031215613c3c57600080fd5b813561338e816137fa565b60008060408385031215613c5a57600080fd5b8235613c65816137fa565b946020939093013593505050565b60006040828403128015613c8657600080fd5b50604080519081016001600160401b0381118282101715613ca957613ca9613873565b604052823581526020928301359281019290925250919050565b602080825282518282018190526000918401906040840190835b81811015613d055783516001600160e01b031916835260209384019390920191600101613cdd565b509095945050505050565b60008060408385031215613d2357600080fd5b82356001600160401b03811115613d3957600080fd5b613d45858286016139a7565b95602094909401359450505050565b600060208284031215613d6657600080fd5b5035919050565b600082825180855260208501945060208160051b8301016020850160005b83811015613dbd57601f19858403018852613da7838351613beb565b6020988901989093509190910190600101613d8b565b50909695505050505050565b6000602082016020835280845180835260408501915060408160051b86010192506020860160005b82811015613e2257603f19878603018452613e0d858351613d6d565b94506020938401939190910190600101613df1565b50929695505050505050565b600082601f830112613e3f57600080fd5b8135613e4d61397382613904565b8082825260208201915060208360051b860101925085831115613e6f57600080fd5b602085015b83811015613a29578035613e87816137fa565b835260209283019201613e74565b600082601f830112613ea657600080fd5b8135613eb461397382613904565b8082825260208201915060208360051b860101925085831115613ed657600080fd5b602085015b83811015613a29578035835260209283019201613edb565b600080600080600060a08688031215613f0b57600080fd5b85356001600160401b03811115613f2157600080fd5b613f2d88828901613e2e565b95505060208601356001600160401b03811115613f4957600080fd5b613f5588828901613e95565b959895975050505060408401359360608101359360809091013592509050565b60008060408385031215613f8857600080fd5b8235613f93816137fa565b91506020830135613fa3816137fa565b809150509250929050565b60008083601f840112613fc057600080fd5b5081356001600160401b03811115613fd757600080fd5b602083019150836020828501011115613fef57600080fd5b9250929050565b6000806020838503121561400957600080fd5b82356001600160401b0381111561401f57600080fd5b61402b85828601613fae565b90969095509350505050565b60008060006040848603121561404c57600080fd5b8335614057816137fa565b925060208401356001600160401b0381111561407257600080fd5b61407e86828701613fae565b9497909650939450505050565b602080825282518282018190526000918401906040840190835b81811015613d055783516001600160a01b03168352602093840193909201916001016140a5565b6000806000606084860312156140e157600080fd5b83356140ec816137fa565b925060208401356001600160401b0381111561410757600080fd5b6141138682870161394e565b92505061386a6040850161380f565b634e487b7160e01b600052602160045260246000fd5b6003811061415657634e487b7160e01b600052602160045260246000fd5b9052565b600060408201905061416d828451614138565b602092830151919092015290565b634e487b7160e01b600052601160045260246000fd5b6000816141a0576141a061417b565b506000190190565b6001600160e01b031991909116815260200190565b6001600160a01b038316815260406020820181905260009061171090830184613beb565b634e487b7160e01b600052603260045260246000fd5b8281526040602082015260006117106040830184613d6d565b60006020828403121561422257600080fd5b815161338e816137fa565b6020815281516020820152600060208301516080604084015261425360a0840182613d6d565b9050604084015160608401526060840151601f1984830301608085015280516101008352614285610100840182613beb565b90506020820151602084015260408201516040840152606082015183820360608501526142b28282613beb565b9150506080820151608084015260a082015160a084015260c08201516142dc60c085018215159052565b5060e0820151915082810360e08401526142f68183613beb565b9695505050505050565b6000608082840312801561431357600080fd5b50600061431e613889565b83518152602080850151908201526040808501519082015260609384015193810193909352509092915050565b818103818111156112505761125061417b565b6040815260006143716040830185613d6d565b90508260208301529392505050565b60008351614392818460208801613bc7565b8351908301906143a6818360208801613bc7565b01949350505050565b60006143bd61397384613927565b90508281528383830111156143d157600080fd5b61338e836020830184613bc7565b6000602082840312156143f157600080fd5b81516001600160401b0381111561440757600080fd5b8201601f8101841361441857600080fd5b805161442661397382613904565b8082825260208201915060208360051b85010192508683111561444857600080fd5b602084015b838110156145205780516001600160401b0381111561446b57600080fd5b8501603f8101891361447c57600080fd5b602081015161448d61397382613904565b808282526020820191506020808460051b8601010192508b8311156144b157600080fd5b604084015b8381101561450a5780516001600160401b038111156144d457600080fd5b85016020810190605f018e136144e957600080fd5b6144fb8e6020830151604084016143af565b845250602092830192016144b6565b508652505060209384019391909101905061444d565b509695505050505050565b8035613827816137fa565b600080600080600080600080610100898b03121561455357600080fd5b61455c8961452b565b975060208901356001600160401b0381111561457757600080fd5b6145838b828c0161394e565b97505061459260408a0161380f565b955060608901356001600160401b038111156145ad57600080fd5b6145b98b828c01613e2e565b95505060808901356001600160401b038111156145d557600080fd5b6145e18b828c01613e95565b989b979a50959894979660a0860135965060c08601359560e00135945092505050565b60ff929092168252606060208301819052600890830152675245434f5645525960c01b6080830152604082015260a00190565b8183823760009101908152919050565b8381526001600160a01b038316602082015260606040820181905260009061370290830184613beb565b60006020828403121561468357600080fd5b815161338e81613a33565b6000600182016146a0576146a061417b565b5060010190565b604081016146b58285614138565b61338e6020830184614138565b808201808211156112505761125061417b565b6000602082840312156146e757600080fd5b5051919050565b6000806040838503121561470157600080fd5b823561470c816137fa565b915060208301356001600160401b0381111561472757600080fd5b6147338582860161394e565b9150509250929050565b602081016112508284614138565b8281526040602082015260006117106040830184613beb565b60006020828403121561477657600080fd5b81516001600160401b0381111561478c57600080fd5b8201601f8101841361479d57600080fd5b80516147ab61397382613904565b8082825260208201915060208360051b8501019250868311156147cd57600080fd5b602084015b838110156145205780516001600160401b038111156147f057600080fd5b8501603f8101891361480157600080fd5b614813896020830151604084016143af565b845250602092830192016147d2565b634e487b7160e01b600052603160045260246000fd5b80516020808301519190811015614859576000198160200360031b1b821691505b50919050565b6bffffffffffffffffffffffff198460601b1681528260148201526000825161488f816034850160208701613bc7565b9190910160340194935050505056fe608060405260405161041038038061041083398101604081905261002291610268565b61002c8282610033565b5050610358565b61003c82610092565b6040516001600160a01b038316907fbc7cd75a20ee27fd9adebab32041f755214dbc6bffa90cc0225b39da2e5c2d3b90600090a280511561008657610081828261010e565b505050565b61008e610185565b5050565b806001600160a01b03163b6000036100cd57604051634c9c8ce360e01b81526001600160a01b03821660048201526024015b60405180910390fd5b7f360894a13ba1a3210667c828492db98dca3e2076cc3735a920a3ca505d382bbc80546001600160a01b0319166001600160a01b0392909216919091179055565b6060600080846001600160a01b03168460405161012b919061033c565b600060405180830381855af49150503d8060008114610166576040519150601f19603f3d011682016040523d82523d6000602084013e61016b565b606091505b50909250905061017c8583836101a6565b95945050505050565b34156101a45760405163b398979f60e01b815260040160405180910390fd5b565b6060826101bb576101b682610205565b6101fe565b81511580156101d257506001600160a01b0384163b155b156101fb57604051639996b31560e01b81526001600160a01b03851660048201526024016100c4565b50805b9392505050565b8051156102155780518082602001fd5b604051630a12f52160e11b815260040160405180910390fd5b634e487b7160e01b600052604160045260246000fd5b60005b8381101561025f578181015183820152602001610247565b50506000910152565b6000806040838503121561027b57600080fd5b82516001600160a01b038116811461029257600080fd5b60208401519092506001600160401b038111156102ae57600080fd5b8301601f810185136102bf57600080fd5b80516001600160401b038111156102d8576102d861022e565b604051601f8201601f19908116603f011681016001600160401b03811182821017156103065761030661022e565b60405281815282820160200187101561031e57600080fd5b61032f826020830160208601610244565b8093505050509250929050565b6000825161034e818460208701610244565b9190910192915050565b60aa806103666000396000f3fe6080604052600a600c565b005b60186014601a565b6051565b565b6000604c7f360894a13ba1a3210667c828492db98dca3e2076cc3735a920a3ca505d382bbc546001600160a01b031690565b905090565b3660008037600080366000845af43d6000803e808015606f573d6000f35b3d6000fdfea2646970667358221220fd1e1f9e6a06211bc3a73747c9c34865829c5e13f71c8401022b0cef376b2e9c64736f6c634300081a00335a4b456d61696c2e556e6976657273616c456d61696c5265636f766572794d6f64756c65a2646970667358221220c491206e528d45702f1e7e914cbbb72f54ee9b9bbb22509f67f4038c2134e71964736f6c634300081a0033",
    "linkReferences": {}
  },
  "methodIdentifiers": {
    "MAX_VALIDATORS()": "714897df",
    "MINIMUM_RECOVERY_WINDOW()": "99150680",
    "acceptanceSubjectTemplates()": "5bafadda",
    "addGuardian(address,uint256)": "111e5313",
    "allowValidatorRecovery(address,bytes,bytes4)": "d779a850",
    "canStartRecoveryRequest(address,address)": "647e2853",
    "cancelRecovery()": "0ba234d6",
    "changeThreshold(uint256)": "694e80c3",
    "completeRecovery(address,bytes)": "c18d09cf",
    "computeAcceptanceTemplateId(uint256)": "32ccc2f2",
    "computeEmailAuthAddress(address,bytes32)": "3a8eab14",
    "computeRecoveryTemplateId(uint256)": "6da99515",
    "configureRecovery(address[],uint256[],uint256,uint256,uint256)": "60bb9d5c",
    "disallowValidatorRecovery(address,address,bytes4)": "01eedf2c",
    "dkim()": "400ad5ce",
    "dkimAddr()": "73357f85",
    "emailAuthImplementation()": "b6201692",
    "emailAuthImplementationAddr()": "1098e02e",
    "extractRecoveredAccountFromAcceptanceSubject(bytes[],uint256)": "e81dcaf2",
    "extractRecoveredAccountFromRecoverySubject(bytes[],uint256)": "30e6a5ab",
    "getAllowedSelectors(address)": "18baa84b",
    "getAllowedValidators(address)": "c7f53022",
    "getGuardian(address,address)": "da34a850",
    "getGuardianConfig(address)": "0bb6094a",
    "getRecoveryConfig(address)": "2788bbda",
    "getRecoveryRequest(address)": "4f9a28b9",
    "handleAcceptance((uint256,bytes[],uint256,(string,bytes32,uint256,string,bytes32,bytes32,bool,bytes)),uint256)": "0481af67",
    "handleRecovery((uint256,bytes[],uint256,(string,bytes32,uint256,string,bytes32,bytes32,bool,bytes)),uint256)": "b68126fa",
    "isActivated(address)": "c9faa7c5",
    "isInitialized(address)": "d60b347f",
    "isModuleType(uint256)": "ecd05961",
    "name()": "06fdde03",
    "onInstall(bytes)": "6d61fe70",
    "onUninstall(bytes)": "8a91b0e3",
    "recoverySubjectTemplates()": "3e91cdcd",
    "removeGuardian(address)": "71404156",
    "subjectHandler()": "701e3eec",
    "updateRecoveryConfig((uint256,uint256))": "1788178f",
    "validatorCount(address)": "b264314f",
    "verifier()": "2b7ac3f3",
    "verifierAddr()": "663ea2e2",
    "version()": "54fd4d50"
  },
  "id": 308
}